{
  "contractName": "Primary",
  "abi": [
    {
      "inputs": [],
      "payable": false,
      "stateMutability": "nonpayable",
      "type": "constructor"
    },
    {
      "constant": true,
      "inputs": [
        {
          "internalType": "uint256",
          "name": "",
          "type": "uint256"
        }
      ],
      "name": "Id_Video",
      "outputs": [
        {
          "internalType": "uint256",
          "name": "id",
          "type": "uint256"
        },
        {
          "internalType": "string",
          "name": "hash",
          "type": "string"
        },
        {
          "internalType": "string",
          "name": "title",
          "type": "string"
        },
        {
          "internalType": "string",
          "name": "time",
          "type": "string"
        },
        {
          "internalType": "string",
          "name": "description",
          "type": "string"
        },
        {
          "internalType": "uint256",
          "name": "views",
          "type": "uint256"
        },
        {
          "internalType": "uint256",
          "name": "hearts",
          "type": "uint256"
        },
        {
          "internalType": "uint256",
          "name": "tags",
          "type": "uint256"
        },
        {
          "internalType": "string",
          "name": "creatorId",
          "type": "string"
        }
      ],
      "payable": false,
      "stateMutability": "view",
      "type": "function"
    },
    {
      "constant": true,
      "inputs": [
        {
          "internalType": "string",
          "name": "",
          "type": "string"
        }
      ],
      "name": "PublicKey_User",
      "outputs": [
        {
          "internalType": "string",
          "name": "publicKey",
          "type": "string"
        },
        {
          "internalType": "string",
          "name": "userName",
          "type": "string"
        },
        {
          "internalType": "uint256",
          "name": "subscribersCount",
          "type": "uint256"
        }
      ],
      "payable": false,
      "stateMutability": "view",
      "type": "function"
    },
    {
      "constant": true,
      "inputs": [
        {
          "internalType": "uint256",
          "name": "",
          "type": "uint256"
        }
      ],
      "name": "Tag1_Videos",
      "outputs": [
        {
          "internalType": "uint256",
          "name": "",
          "type": "uint256"
        }
      ],
      "payable": false,
      "stateMutability": "view",
      "type": "function"
    },
    {
      "constant": true,
      "inputs": [
        {
          "internalType": "uint256",
          "name": "",
          "type": "uint256"
        }
      ],
      "name": "Tag2_Videos",
      "outputs": [
        {
          "internalType": "uint256",
          "name": "",
          "type": "uint256"
        }
      ],
      "payable": false,
      "stateMutability": "view",
      "type": "function"
    },
    {
      "constant": true,
      "inputs": [
        {
          "internalType": "uint256",
          "name": "",
          "type": "uint256"
        }
      ],
      "name": "Tag3_Videos",
      "outputs": [
        {
          "internalType": "uint256",
          "name": "",
          "type": "uint256"
        }
      ],
      "payable": false,
      "stateMutability": "view",
      "type": "function"
    },
    {
      "constant": true,
      "inputs": [
        {
          "internalType": "uint256",
          "name": "",
          "type": "uint256"
        }
      ],
      "name": "Tag4_Videos",
      "outputs": [
        {
          "internalType": "uint256",
          "name": "",
          "type": "uint256"
        }
      ],
      "payable": false,
      "stateMutability": "view",
      "type": "function"
    },
    {
      "constant": true,
      "inputs": [
        {
          "internalType": "uint256",
          "name": "",
          "type": "uint256"
        }
      ],
      "name": "Tag5_Videos",
      "outputs": [
        {
          "internalType": "uint256",
          "name": "",
          "type": "uint256"
        }
      ],
      "payable": false,
      "stateMutability": "view",
      "type": "function"
    },
    {
      "constant": true,
      "inputs": [
        {
          "internalType": "string",
          "name": "",
          "type": "string"
        }
      ],
      "name": "Title_Video",
      "outputs": [
        {
          "internalType": "uint256",
          "name": "",
          "type": "uint256"
        }
      ],
      "payable": false,
      "stateMutability": "view",
      "type": "function"
    },
    {
      "constant": true,
      "inputs": [
        {
          "internalType": "string",
          "name": "",
          "type": "string"
        }
      ],
      "name": "UserName_User",
      "outputs": [
        {
          "internalType": "string",
          "name": "",
          "type": "string"
        }
      ],
      "payable": false,
      "stateMutability": "view",
      "type": "function"
    },
    {
      "constant": true,
      "inputs": [
        {
          "internalType": "string",
          "name": "",
          "type": "string"
        },
        {
          "internalType": "uint256",
          "name": "",
          "type": "uint256"
        }
      ],
      "name": "User_Videos",
      "outputs": [
        {
          "internalType": "uint256",
          "name": "",
          "type": "uint256"
        }
      ],
      "payable": false,
      "stateMutability": "view",
      "type": "function"
    },
    {
      "constant": true,
      "inputs": [],
      "name": "name",
      "outputs": [
        {
          "internalType": "string",
          "name": "",
          "type": "string"
        }
      ],
      "payable": false,
      "stateMutability": "view",
      "type": "function"
    },
    {
      "constant": true,
      "inputs": [],
      "name": "usersCount",
      "outputs": [
        {
          "internalType": "uint256",
          "name": "",
          "type": "uint256"
        }
      ],
      "payable": false,
      "stateMutability": "view",
      "type": "function"
    },
    {
      "constant": true,
      "inputs": [],
      "name": "videoCount",
      "outputs": [
        {
          "internalType": "uint256",
          "name": "",
          "type": "uint256"
        }
      ],
      "payable": false,
      "stateMutability": "view",
      "type": "function"
    },
    {
      "constant": true,
      "inputs": [
        {
          "internalType": "string",
          "name": "_publicKey",
          "type": "string"
        }
      ],
      "name": "getUserSubscriptions",
      "outputs": [
        {
          "internalType": "string[]",
          "name": "",
          "type": "string[]"
        }
      ],
      "payable": false,
      "stateMutability": "view",
      "type": "function"
    },
    {
      "constant": true,
      "inputs": [
        {
          "internalType": "string",
          "name": "_publicKey",
          "type": "string"
        },
        {
          "internalType": "string",
          "name": "_playlist",
          "type": "string"
        }
      ],
      "name": "getUserPlaylist",
      "outputs": [
        {
          "internalType": "uint256[]",
          "name": "",
          "type": "uint256[]"
        }
      ],
      "payable": false,
      "stateMutability": "view",
      "type": "function"
    },
    {
      "constant": true,
      "inputs": [
        {
          "internalType": "string",
          "name": "_publicKey",
          "type": "string"
        }
      ],
      "name": "getUserVideos",
      "outputs": [
        {
          "internalType": "uint256[]",
          "name": "",
          "type": "uint256[]"
        }
      ],
      "payable": false,
      "stateMutability": "view",
      "type": "function"
    },
    {
      "constant": true,
      "inputs": [
        {
          "internalType": "uint256",
          "name": "_videoId",
          "type": "uint256"
        }
      ],
      "name": "getVideoComments",
      "outputs": [
        {
          "internalType": "string[]",
          "name": "",
          "type": "string[]"
        }
      ],
      "payable": false,
      "stateMutability": "view",
      "type": "function"
    },
    {
      "constant": false,
      "inputs": [
        {
          "internalType": "string",
          "name": "_userName",
          "type": "string"
        },
        {
          "internalType": "string",
          "name": "_publicKey",
          "type": "string"
        }
      ],
      "name": "signup",
      "outputs": [],
      "payable": false,
      "stateMutability": "nonpayable",
      "type": "function"
    },
    {
      "constant": false,
      "inputs": [
        {
          "internalType": "string[]",
          "name": "_type",
          "type": "string[]"
        },
        {
          "internalType": "string[]",
          "name": "_userId",
          "type": "string[]"
        },
        {
          "internalType": "string[]",
          "name": "_timestamp",
          "type": "string[]"
        },
        {
          "internalType": "string[][]",
          "name": "_params",
          "type": "string[][]"
        }
      ],
      "name": "transactions",
      "outputs": [],
      "payable": false,
      "stateMutability": "nonpayable",
      "type": "function"
    },
    {
      "constant": false,
      "inputs": [
        {
          "internalType": "string",
          "name": "_userId",
          "type": "string"
        },
        {
          "internalType": "uint256",
          "name": "_videoId",
          "type": "uint256"
        }
      ],
      "name": "watch",
      "outputs": [],
      "payable": false,
      "stateMutability": "nonpayable",
      "type": "function"
    },
    {
      "constant": false,
      "inputs": [
        {
          "internalType": "string",
          "name": "_userId",
          "type": "string"
        },
        {
          "internalType": "uint256",
          "name": "_videoId",
          "type": "uint256"
        }
      ],
      "name": "like",
      "outputs": [],
      "payable": false,
      "stateMutability": "nonpayable",
      "type": "function"
    },
    {
      "constant": false,
      "inputs": [
        {
          "internalType": "string",
          "name": "_userId",
          "type": "string"
        },
        {
          "internalType": "uint256",
          "name": "_videoId",
          "type": "uint256"
        }
      ],
      "name": "save",
      "outputs": [],
      "payable": false,
      "stateMutability": "nonpayable",
      "type": "function"
    },
    {
      "constant": false,
      "inputs": [
        {
          "internalType": "uint256",
          "name": "_videoId",
          "type": "uint256"
        },
        {
          "internalType": "string",
          "name": "_comment",
          "type": "string"
        }
      ],
      "name": "comment",
      "outputs": [],
      "payable": false,
      "stateMutability": "nonpayable",
      "type": "function"
    },
    {
      "constant": false,
      "inputs": [
        {
          "internalType": "string",
          "name": "_userId",
          "type": "string"
        },
        {
          "internalType": "string",
          "name": "_subscribedUserId",
          "type": "string"
        }
      ],
      "name": "subscribe",
      "outputs": [],
      "payable": false,
      "stateMutability": "nonpayable",
      "type": "function"
    },
    {
      "constant": false,
      "inputs": [
        {
          "internalType": "string",
          "name": "_hash",
          "type": "string"
        },
        {
          "internalType": "string",
          "name": "_title",
          "type": "string"
        },
        {
          "internalType": "string",
          "name": "_time",
          "type": "string"
        },
        {
          "internalType": "string",
          "name": "_description",
          "type": "string"
        },
        {
          "internalType": "uint256",
          "name": "_tags",
          "type": "uint256"
        },
        {
          "internalType": "string",
          "name": "_creatorId",
          "type": "string"
        }
      ],
      "name": "uploadVideo",
      "outputs": [],
      "payable": false,
      "stateMutability": "nonpayable",
      "type": "function"
    },
    {
      "constant": true,
      "inputs": [
        {
          "internalType": "string",
          "name": "s",
          "type": "string"
        }
      ],
      "name": "stringToUint",
      "outputs": [
        {
          "internalType": "uint256",
          "name": "result",
          "type": "uint256"
        }
      ],
      "payable": false,
      "stateMutability": "pure",
      "type": "function"
    }
  ],
  "bytecode": "0x60806040526000805560006001556040518060400160405280600781526020017f5072696d61727900000000000000000000000000000000000000000000000000815250600290805190602001906200005a9291906200006f565b503480156200006857600080fd5b506200011e565b828054600181600116156101000203166002900490600052602060002090601f016020900481019282601f10620000b257805160ff1916838001178555620000e3565b82800160010185558215620000e3579182015b82811115620000e2578251825591602001919060010190620000c5565b5b509050620000f29190620000f6565b5090565b6200011b91905b8082111562000117576000816000905550600101620000fd565b5090565b90565b612bec806200012e6000396000f3fe608060405234801561001057600080fd5b506004361061018e5760003560e01c806347e70e64116100de578063ae32ddef11610097578063c00f123d11610071578063c00f123d1461050d578063c61b5f4c1461053d578063daf6160c1461055b578063e12e4fa01461058b5761018e565b8063ae32ddef14610491578063b66cab0f146104c1578063bbd5cf2f146104f15761018e565b806347e70e64146103a95780636ba13a82146103c55780637c47d262146103e35780637d8379b8146103ff5780637e642989146104315780639e227b10146104615761018e565b80631bd951551161014b5780632e2c6a59116101255780632e2c6a591461031157806332fca88114610341578063346d4d66146103715780633c04c0151461038d5761018e565b80631bd951551461028157806322852845146102b157806329b75422146102e15761018e565b806305f79ed81461019357806306fdde03146101cb57806307dba6bf146101e9578063138b07871461020557806316393204146102355780631805c52314610265575b600080fd5b6101ad60048036036101a891908101906122c9565b6105a7565b6040516101c2999897969594939291906128d3565b60405180910390f35b6101d36108ed565b6040516101e09190612851565b60405180910390f35b61020360048036036101fe9190810190612221565b61098b565b005b61021f600480360361021a9190810190612032565b6109f4565b60405161022c91906128b8565b60405180910390f35b61024f600480360361024a91908101906122c9565b610a22565b60405161025c91906128b8565b60405180910390f35b61027f600480360361027a91908101906122f2565b610a43565b005b61029b60048036036102969190810190612073565b610a9a565b6040516102a891906128b8565b60405180910390f35b6102cb60048036036102c69190810190612073565b610b0d565b6040516102d8919061280d565b60405180910390f35b6102fb60048036036102f691908101906120b4565b610c17565b604051610308919061282f565b60405180910390f35b61032b60048036036103269190810190612073565b610cad565b604051610338919061282f565b60405180910390f35b61035b600480360361035691908101906122c9565b610d23565b60405161036891906128b8565b60405180910390f35b61038b60048036036103869190810190611f6f565b610d44565b005b6103a760048036036103a29190810190612221565b611244565b005b6103c360048036036103be91908101906120b4565b6112d3565b005b6103cd6113c3565b6040516103da91906128b8565b60405180910390f35b6103fd60048036036103f89190810190612120565b6113c9565b005b61041960048036036104149190810190612032565b6116be565b60405161042893929190612873565b60405180910390f35b61044b60048036036104469190810190612275565b61182e565b60405161045891906128b8565b60405180910390f35b61047b60048036036104769190810190612032565b611872565b6040516104889190612851565b60405180910390f35b6104ab60048036036104a691908101906122c9565b611938565b6040516104b891906128b8565b60405180910390f35b6104db60048036036104d691908101906122c9565b611959565b6040516104e891906128b8565b60405180910390f35b61050b600480360361050691908101906120b4565b61197a565b005b610527600480360361052291908101906122c9565b611a0d565b60405161053491906128b8565b60405180910390f35b610545611a2e565b60405161055291906128b8565b60405180910390f35b610575600480360361057091908101906122c9565b611a34565b604051610582919061280d565b60405180910390f35b6105a560048036036105a09190810190612221565b611b33565b005b6003602052806000526040600020600091509050806000015490806001018054600181600116156101000203166002900480601f0160208091040260200160405190810160405280929190818152602001828054600181600116156101000203166002900480156106595780601f1061062e57610100808354040283529160200191610659565b820191906000526020600020905b81548152906001019060200180831161063c57829003601f168201915b505050505090806002018054600181600116156101000203166002900480601f0160208091040260200160405190810160405280929190818152602001828054600181600116156101000203166002900480156106f75780601f106106cc576101008083540402835291602001916106f7565b820191906000526020600020905b8154815290600101906020018083116106da57829003601f168201915b505050505090806003018054600181600116156101000203166002900480601f0160208091040260200160405190810160405280929190818152602001828054600181600116156101000203166002900480156107955780601f1061076a57610100808354040283529160200191610795565b820191906000526020600020905b81548152906001019060200180831161077857829003601f168201915b505050505090806004018054600181600116156101000203166002900480601f0160208091040260200160405190810160405280929190818152602001828054600181600116156101000203166002900480156108335780601f1061080857610100808354040283529160200191610833565b820191906000526020600020905b81548152906001019060200180831161081657829003601f168201915b505050505090806006015490806007015490806008015490806009018054600181600116156101000203166002900480601f0160208091040260200160405190810160405280929190818152602001828054600181600116156101000203166002900480156108e35780601f106108b8576101008083540402835291602001916108e3565b820191906000526020600020905b8154815290600101906020018083116108c657829003601f168201915b5050505050905089565b60028054600181600116156101000203166002900480601f0160208091040260200160405190810160405280929190818152602001828054600181600116156101000203166002900480156109835780601f1061095857610100808354040283529160200191610983565b820191906000526020600020905b81548152906001019060200180831161096657829003601f168201915b505050505081565b600b8260405161099b919061274e565b90815260200160405180910390206004016040516109b89061277a565b90815260200160405180910390208190806001815401808255809150509060018203906000526020600020016000909192909190915055505050565b6009818051602081018201805184825260208301602085012081835280955050505050506000915090505481565b60088181548110610a2f57fe5b906000526020600020016000915090505481565b60036000838152602001908152602001600020600501819080600181540180825580915050906001820390600052602060002001600090919290919091509080519060200190610a94929190611b5d565b50505050565b600060608290506000809250600090505b8151811015610b06576000828281518110610ac257fe5b602001015160f81c60f81b60f81c60ff16905060308110158015610ae7575060398111155b15610af85760308103600a85020193505b508080600101915050610aab565b5050919050565b6060600b82604051610b1f919061274e565b9081526020016040518091039020600201805480602002602001604051908101604052809291908181526020016000905b82821015610c0c578382906000526020600020018054600181600116156101000203166002900480601f016020809104026020016040519081016040528092919081815260200182805460018160011615610100020316600290048015610bf85780601f10610bcd57610100808354040283529160200191610bf8565b820191906000526020600020905b815481529060010190602001808311610bdb57829003601f168201915b505050505081526020019060010190610b50565b505050509050919050565b6060600b83604051610c29919061274e565b908152602001604051809103902060040182604051610c48919061274e565b9081526020016040518091039020805480602002602001604051908101604052809291908181526020018280548015610ca057602002820191906000526020600020905b815481526020019060010190808311610c8c575b5050505050905092915050565b6060600a82604051610cbf919061274e565b9081526020016040518091039020805480602002602001604051908101604052809291908181526020018280548015610d1757602002820191906000526020600020905b815481526020019060010190808311610d03575b50505050509050919050565b60058181548110610d3057fe5b906000526020600020016000915090505481565b60008090505b845181101561123d57604051602001610d62906127a4565b60405160208183030381529060405280519060200120858281518110610d8457fe5b6020026020010151604051602001610d9c9190612737565b604051602081830303815290604052805190602001201415610e0957610e04848281518110610dc757fe5b6020026020010151610dff848481518110610dde57fe5b6020026020010151600081518110610df257fe5b6020026020010151610a9a565b611b33565b611230565b604051602001610e1890612765565b60405160208183030381529060405280519060200120858281518110610e3a57fe5b6020026020010151604051602001610e529190612737565b604051602081830303815290604052805190602001201415610ebf57610eba848281518110610e7d57fe5b6020026020010151610eb5848481518110610e9457fe5b6020026020010151600081518110610ea857fe5b6020026020010151610a9a565b611244565b61122f565b604051602001610ece906127f8565b60405160208183030381529060405280519060200120858281518110610ef057fe5b6020026020010151604051602001610f089190612737565b604051602081830303815290604052805190602001201415610f8957610f84610f57838381518110610f3657fe5b6020026020010151600081518110610f4a57fe5b6020026020010151610a9a565b838381518110610f6357fe5b6020026020010151600181518110610f7757fe5b6020026020010151610a43565b61122e565b604051602001610f98906127e3565b60405160208183030381529060405280519060200120858281518110610fba57fe5b6020026020010151604051602001610fd29190612737565b60405160208183030381529060405280519060200120141561103757611032848281518110610ffd57fe5b602002602001015183838151811061101157fe5b602002602001015160008151811061102557fe5b602002602001015161197a565b61122d565b604051602001611046906127ce565b6040516020818303038152906040528051906020012085828151811061106857fe5b60200260200101516040516020016110809190612737565b6040516020818303038152906040528051906020012014156110ed576110e88482815181106110ab57fe5b60200260200101516110e38484815181106110c257fe5b60200260200101516000815181106110d657fe5b6020026020010151610a9a565b61098b565b61122c565b6040516020016110fc906127b9565b6040516020818303038152906040528051906020012085828151811061111e57fe5b60200260200101516040516020016111369190612737565b60405160208183030381529060405280519060200120141561122b5761122a82828151811061116157fe5b602002602001015160038151811061117557fe5b602002602001015183838151811061118957fe5b602002602001015160008151811061119d57fe5b60200260200101518584815181106111b157fe5b60200260200101518585815181106111c557fe5b60200260200101516001815181106111d957fe5b60200260200101516112118787815181106111f057fe5b602002602001015160028151811061120457fe5b6020026020010151610a9a565b89878151811061121d57fe5b60200260200101516113c9565b5b5b5b5b5b5b8080600101915050610d4a565b5050505050565b6003600082815260200190815260200160002060070160008154809291906001019190505550600b8260405161127a919061274e565b90815260200160405180910390206004016040516112979061278f565b90815260200160405180910390208190806001815401808255809150509060018203906000526020600020016000909192909190915055505050565b600160008154809291906001019190505550606060405180608001604052808381526020018481526020018281526020016000815250600b83604051611319919061274e565b90815260200160405180910390206000820151816000019080519060200190611343929190611bdd565b506020820151816001019080519060200190611360929190611bdd565b50604082015181600201908051906020019061137d929190611c5d565b506060820151816003015590505081600c8460405161139c919061274e565b908152602001604051809103902090805190602001906113bd929190611b5d565b50505050565b60015481565b6000808154809291906001019190505550606060405180610140016040528060005481526020018881526020018781526020018681526020018581526020018281526020016000815260200160008152602001848152602001838152506003600080548152602001908152602001600020600082015181600001556020820151816001019080519060200190611460929190611bdd565b50604082015181600201908051906020019061147d929190611bdd565b50606082015181600301908051906020019061149a929190611bdd565b5060808201518160040190805190602001906114b7929190611bdd565b5060a08201518160050190805190602001906114d4929190611c5d565b5060c0820151816006015560e082015181600701556101008201518160080155610120820151816009019080519060200190611511929190611bdd565b50905050600054600987604051611528919061274e565b908152602001604051809103902081905550600a8260405161154a919061274e565b90815260200160405180910390206000549080600181540180825580915050906001820390600052602060002001600090919290919091505550600060018416146115be57600460005490806001815401808255809150509060018203906000526020600020016000909192909190915055505b600060018085901c16146115fb57600560005490806001815401808255809150509060018203906000526020600020016000909192909190915055505b60006001600285901c161461163957600660005490806001815401808255809150509060018203906000526020600020016000909192909190915055505b60006001600385901c161461167757600760005490806001815401808255809150509060018203906000526020600020016000909192909190915055505b60006001600485901c16146116b557600860005490806001815401808255809150509060018203906000526020600020016000909192909190915055505b50505050505050565b600b81805160208101820180518482526020830160208501208183528095505050505050600091509050806000018054600181600116156101000203166002900480601f0160208091040260200160405190810160405280929190818152602001828054600181600116156101000203166002900480156117805780601f1061175557610100808354040283529160200191611780565b820191906000526020600020905b81548152906001019060200180831161176357829003601f168201915b505050505090806001018054600181600116156101000203166002900480601f01602080910402602001604051908101604052809291908181526020018280546001816001161561010002031660029004801561181e5780601f106117f35761010080835404028352916020019161181e565b820191906000526020600020905b81548152906001019060200180831161180157829003601f168201915b5050505050908060030154905083565b600a82805160208101820180518482526020830160208501208183528095505050505050818154811061185d57fe5b90600052602060002001600091509150505481565b600c818051602081018201805184825260208301602085012081835280955050505050506000915090508054600181600116156101000203166002900480601f0160208091040260200160405190810160405280929190818152602001828054600181600116156101000203166002900480156119305780601f1061190557610100808354040283529160200191611930565b820191906000526020600020905b81548152906001019060200180831161191357829003601f168201915b505050505081565b6007818154811061194557fe5b906000526020600020016000915090505481565b6004818154811061196657fe5b906000526020600020016000915090505481565b600b8260405161198a919061274e565b90815260200160405180910390206002018190806001815401808255809150509060018203906000526020600020016000909192909190915090805190602001906119d6929190611b5d565b5050600b816040516119e8919061274e565b9081526020016040518091039020600301600081548092919060010191905055505050565b60068181548110611a1a57fe5b906000526020600020016000915090505481565b60005481565b606060036000838152602001908152602001600020600501805480602002602001604051908101604052809291908181526020016000905b82821015611b28578382906000526020600020018054600181600116156101000203166002900480601f016020809104026020016040519081016040528092919081815260200182805460018160011615610100020316600290048015611b145780601f10611ae957610100808354040283529160200191611b14565b820191906000526020600020905b815481529060010190602001808311611af757829003601f168201915b505050505081526020019060010190611a6c565b505050509050919050565b60036000828152602001908152602001600020600601600081548092919060010191905055505050565b828054600181600116156101000203166002900490600052602060002090601f016020900481019282601f10611b9e57805160ff1916838001178555611bcc565b82800160010185558215611bcc579182015b82811115611bcb578251825591602001919060010190611bb0565b5b509050611bd99190611cbd565b5090565b828054600181600116156101000203166002900490600052602060002090601f016020900481019282601f10611c1e57805160ff1916838001178555611c4c565b82800160010185558215611c4c579182015b82811115611c4b578251825591602001919060010190611c30565b5b509050611c599190611cbd565b5090565b828054828255906000526020600020908101928215611cac579160200282015b82811115611cab578251829080519060200190611c9b929190611bdd565b5091602001919060010190611c7d565b5b509050611cb99190611ce2565b5090565b611cdf91905b80821115611cdb576000816000905550600101611cc3565b5090565b90565b611d0b91905b80821115611d075760008181611cfe9190611d0e565b50600101611ce8565b5090565b90565b50805460018160011615610100020316600290046000825580601f10611d345750611d53565b601f016020900490600052602060002090810190611d529190611cbd565b5b50565b600082601f830112611d6757600080fd5b8135611d7a611d75826129b0565b612983565b9150818183526020840193506020810190508360005b83811015611dc05781358601611da68882611dca565b845260208401935060208301925050600181019050611d90565b5050505092915050565b600082601f830112611ddb57600080fd5b8135611dee611de9826129d8565b612983565b9150818183526020840193506020810190508360005b83811015611e345781358601611e1a8882611eb2565b845260208401935060208301925050600181019050611e04565b5050505092915050565b600082601f830112611e4f57600080fd5b8135611e62611e5d82612a00565b612983565b9150818183526020840193506020810190508360005b83811015611ea85781358601611e8e8882611eb2565b845260208401935060208301925050600181019050611e78565b5050505092915050565b600082601f830112611ec357600080fd5b8135611ed6611ed182612a28565b612983565b91508082526020830160208301858383011115611ef257600080fd5b611efd838284612b3f565b50505092915050565b600082601f830112611f1757600080fd5b8135611f2a611f2582612a54565b612983565b91508082526020830160208301858383011115611f4657600080fd5b611f51838284612b3f565b50505092915050565b600081359050611f6981612b92565b92915050565b60008060008060808587031215611f8557600080fd5b600085013567ffffffffffffffff811115611f9f57600080fd5b611fab87828801611e3e565b945050602085013567ffffffffffffffff811115611fc857600080fd5b611fd487828801611e3e565b935050604085013567ffffffffffffffff811115611ff157600080fd5b611ffd87828801611e3e565b925050606085013567ffffffffffffffff81111561201a57600080fd5b61202687828801611d56565b91505092959194509250565b60006020828403121561204457600080fd5b600082013567ffffffffffffffff81111561205e57600080fd5b61206a84828501611eb2565b91505092915050565b60006020828403121561208557600080fd5b600082013567ffffffffffffffff81111561209f57600080fd5b6120ab84828501611f06565b91505092915050565b600080604083850312156120c757600080fd5b600083013567ffffffffffffffff8111156120e157600080fd5b6120ed85828601611f06565b925050602083013567ffffffffffffffff81111561210a57600080fd5b61211685828601611f06565b9150509250929050565b60008060008060008060c0878903121561213957600080fd5b600087013567ffffffffffffffff81111561215357600080fd5b61215f89828a01611f06565b965050602087013567ffffffffffffffff81111561217c57600080fd5b61218889828a01611f06565b955050604087013567ffffffffffffffff8111156121a557600080fd5b6121b189828a01611f06565b945050606087013567ffffffffffffffff8111156121ce57600080fd5b6121da89828a01611f06565b93505060806121eb89828a01611f5a565b92505060a087013567ffffffffffffffff81111561220857600080fd5b61221489828a01611f06565b9150509295509295509295565b6000806040838503121561223457600080fd5b600083013567ffffffffffffffff81111561224e57600080fd5b61225a85828601611f06565b925050602061226b85828601611f5a565b9150509250929050565b6000806040838503121561228857600080fd5b600083013567ffffffffffffffff8111156122a257600080fd5b6122ae85828601611eb2565b92505060206122bf85828601611f5a565b9150509250929050565b6000602082840312156122db57600080fd5b60006122e984828501611f5a565b91505092915050565b6000806040838503121561230557600080fd5b600061231385828601611f5a565b925050602083013567ffffffffffffffff81111561233057600080fd5b61233c85828601611f06565b9150509250929050565b60006123528383612476565b905092915050565b60006123668383612719565b60208301905092915050565b600061237d82612aa0565b6123878185612ae6565b93508360208202850161239985612a80565b8060005b858110156123d557848403895281516123b68582612346565b94506123c183612acc565b925060208a0199505060018101905061239d565b50829750879550505050505092915050565b60006123f282612aab565b6123fc8185612af7565b935061240783612a90565b8060005b8381101561243857815161241f888261235a565b975061242a83612ad9565b92505060018101905061240b565b5085935050505092915050565b600061245082612ac1565b61245a8185612b2a565b935061246a818560208601612b4e565b80840191505092915050565b600061248182612ab6565b61248b8185612b08565b935061249b818560208601612b4e565b6124a481612b81565b840191505092915050565b60006124ba82612ab6565b6124c48185612b19565b93506124d4818560208601612b4e565b6124dd81612b81565b840191505092915050565b60006124f382612ab6565b6124fd8185612b2a565b935061250d818560208601612b4e565b80840191505092915050565b6000612526600483612b2a565b91507f6c696b65000000000000000000000000000000000000000000000000000000006000830152600482019050919050565b6000612566600583612b2a565b91507f6c617465720000000000000000000000000000000000000000000000000000006000830152600582019050919050565b60006125a6600583612b2a565b91507f6c696b65640000000000000000000000000000000000000000000000000000006000830152600582019050919050565b60006125e6600483612b2a565b91507f76696577000000000000000000000000000000000000000000000000000000006000830152600482019050919050565b6000612626600683612b2a565b91507f75706c6f616400000000000000000000000000000000000000000000000000006000830152600682019050919050565b6000612666600483612b2a565b91507f73617665000000000000000000000000000000000000000000000000000000006000830152600482019050919050565b60006126a6600983612b2a565b91507f73756273637269626500000000000000000000000000000000000000000000006000830152600982019050919050565b60006126e6600783612b2a565b91507f636f6d6d656e74000000000000000000000000000000000000000000000000006000830152600782019050919050565b61272281612b35565b82525050565b61273181612b35565b82525050565b600061274382846124e8565b915081905092915050565b600061275a8284612445565b915081905092915050565b600061277082612519565b9150819050919050565b600061278582612559565b9150819050919050565b600061279a82612599565b9150819050919050565b60006127af826125d9565b9150819050919050565b60006127c482612619565b9150819050919050565b60006127d982612659565b9150819050919050565b60006127ee82612699565b9150819050919050565b6000612803826126d9565b9150819050919050565b600060208201905081810360008301526128278184612372565b905092915050565b6000602082019050818103600083015261284981846123e7565b905092915050565b6000602082019050818103600083015261286b81846124af565b905092915050565b6000606082019050818103600083015261288d81866124af565b905081810360208301526128a181856124af565b90506128b06040830184612728565b949350505050565b60006020820190506128cd6000830184612728565b92915050565b6000610120820190506128e9600083018c612728565b81810360208301526128fb818b6124af565b9050818103604083015261290f818a6124af565b9050818103606083015261292381896124af565b9050818103608083015261293781886124af565b905061294660a0830187612728565b61295360c0830186612728565b61296060e0830185612728565b81810361010083015261297381846124af565b90509a9950505050505050505050565b6000604051905081810181811067ffffffffffffffff821117156129a657600080fd5b8060405250919050565b600067ffffffffffffffff8211156129c757600080fd5b602082029050602081019050919050565b600067ffffffffffffffff8211156129ef57600080fd5b602082029050602081019050919050565b600067ffffffffffffffff821115612a1757600080fd5b602082029050602081019050919050565b600067ffffffffffffffff821115612a3f57600080fd5b601f19601f8301169050602081019050919050565b600067ffffffffffffffff821115612a6b57600080fd5b601f19601f8301169050602081019050919050565b6000819050602082019050919050565b6000819050602082019050919050565b600081519050919050565b600081519050919050565b600081519050919050565b600081519050919050565b6000602082019050919050565b6000602082019050919050565b600082825260208201905092915050565b600082825260208201905092915050565b600082825260208201905092915050565b600082825260208201905092915050565b600081905092915050565b6000819050919050565b82818337600083830152505050565b60005b83811015612b6c578082015181840152602081019050612b51565b83811115612b7b576000848401525b50505050565b6000601f19601f8301169050919050565b612b9b81612b35565b8114612ba657600080fd5b5056fea365627a7a72315820314b0a96a92a7d5129319c522e519a3a28783f45d75158f1dd5d0852efbbf55f6c6578706572696d656e74616cf564736f6c63430005100040",
  "source": "pragma solidity ^0.5.16;\r\npragma experimental ABIEncoderV2;\r\n\r\ncontract Primary {\r\n    uint256 public videoCount = 0;\r\n    uint256 public usersCount = 0;\r\n    string public name = \"Primary\";\r\n    mapping(uint256 => Video) public Id_Video;\r\n    uint256[] public Tag1_Videos;\r\n    uint256[] public Tag2_Videos;\r\n    uint256[] public Tag3_Videos;\r\n    uint256[] public Tag4_Videos;\r\n    uint256[] public Tag5_Videos;\r\n    mapping(string => uint256) public Title_Video;\r\n    mapping(string => uint256[]) public User_Videos;\r\n    mapping(string => User) public PublicKey_User;\r\n    mapping(string => string) public UserName_User;\r\n\r\n    struct Video {\r\n        uint256 id;\r\n        string hash;\r\n        string title;\r\n        string time;\r\n        string description;\r\n        string[] comments;\r\n        uint256 views;\r\n        uint256 hearts;\r\n        uint256 tags;\r\n        string creatorId;\r\n    }\r\n\r\n    struct User {\r\n        string publicKey;\r\n        string userName;\r\n        string[] subscriptions;\r\n        uint256 subscribersCount;\r\n        mapping(string => uint256[]) Playlist_Videos;\r\n    }\r\n\r\n    constructor() public {}\r\n\r\n    function getUserSubscriptions(string memory _publicKey)\r\n        public\r\n        view\r\n        returns (string[] memory)\r\n    {\r\n        return PublicKey_User[_publicKey].subscriptions;\r\n    }\r\n\r\n    function getUserPlaylist(string memory _publicKey, string memory _playlist)\r\n        public\r\n        view\r\n        returns (uint256[] memory)\r\n    {\r\n        return PublicKey_User[_publicKey].Playlist_Videos[_playlist];\r\n    }\r\n\r\n    function getUserVideos(string memory _publicKey)\r\n        public\r\n        view\r\n        returns (uint256[] memory)\r\n    {\r\n        return User_Videos[_publicKey];\r\n    }\r\n\r\n    function getVideoComments(uint256 _videoId)\r\n        public\r\n        view\r\n        returns (string[] memory)\r\n    {\r\n        return Id_Video[_videoId].comments;\r\n    }\r\n\r\n    function signup(string memory _userName, string memory _publicKey) public {\r\n        usersCount++;\r\n        string[] memory subscriptions;\r\n        PublicKey_User[_publicKey] = User(\r\n            _publicKey,\r\n            _userName,\r\n            subscriptions,\r\n            0\r\n        );\r\n        UserName_User[_userName] = _publicKey;\r\n    }\r\n\r\n    function transactions(\r\n        string[] memory _type,\r\n        string[] memory _userId,\r\n        string[] memory _timestamp,\r\n        string[][] memory _params\r\n    ) public {\r\n        for (\r\n            uint256 transaction = 0;\r\n            transaction < _type.length;\r\n            transaction++\r\n        ) {\r\n            if (\r\n                keccak256(abi.encodePacked(_type[transaction])) ==\r\n                keccak256(abi.encodePacked(\"view\"))\r\n            ) {\r\n                watch(\r\n                    _userId[transaction],\r\n                    stringToUint(_params[transaction][0])\r\n                );\r\n            } else if (\r\n                keccak256(abi.encodePacked(_type[transaction])) ==\r\n                keccak256(abi.encodePacked(\"like\"))\r\n            ) {\r\n                like(\r\n                    _userId[transaction],\r\n                    stringToUint(_params[transaction][0])\r\n                );\r\n            } else if (\r\n                keccak256(abi.encodePacked(_type[transaction])) ==\r\n                keccak256(abi.encodePacked(\"comment\"))\r\n            ) {\r\n                comment(\r\n                    stringToUint(_params[transaction][0]),\r\n                    _params[transaction][1]\r\n                );\r\n            } else if (\r\n                keccak256(abi.encodePacked(_type[transaction])) ==\r\n                keccak256(abi.encodePacked(\"subscribe\"))\r\n            ) {\r\n                subscribe(_userId[transaction], _params[transaction][0]);\r\n            } else if (\r\n                keccak256(abi.encodePacked(_type[transaction])) ==\r\n                keccak256(abi.encodePacked(\"save\"))\r\n            ) {\r\n                save(\r\n                    _userId[transaction],\r\n                    stringToUint(_params[transaction][0])\r\n                );\r\n            } else if (\r\n                keccak256(abi.encodePacked(_type[transaction])) ==\r\n                keccak256(abi.encodePacked(\"upload\"))\r\n            ) {\r\n                uploadVideo(\r\n                    _params[transaction][3],\r\n                    _params[transaction][0],\r\n                    _timestamp[transaction],\r\n                    _params[transaction][1],\r\n                    stringToUint(_params[transaction][2]),\r\n                    _userId[transaction]\r\n                );\r\n            }\r\n        }\r\n    }\r\n\r\n    function watch(string memory _userId, uint256 _videoId) public {\r\n        Id_Video[_videoId].views++;\r\n    }\r\n\r\n    function like(string memory _userId, uint256 _videoId) public {\r\n        Id_Video[_videoId].hearts++;\r\n        PublicKey_User[_userId].Playlist_Videos[\"liked\"].push(_videoId);\r\n    }\r\n\r\n    function save(string memory _userId, uint256 _videoId) public {\r\n        PublicKey_User[_userId].Playlist_Videos[\"later\"].push(_videoId);\r\n    }\r\n\r\n    function comment(uint256 _videoId, string memory _comment) public {\r\n        Id_Video[_videoId].comments.push(_comment);\r\n    }\r\n\r\n    function subscribe(string memory _userId, string memory _subscribedUserId)\r\n        public\r\n    {\r\n        PublicKey_User[_userId].subscriptions.push(_subscribedUserId);\r\n        PublicKey_User[_subscribedUserId].subscribersCount++;\r\n    }\r\n\r\n    function uploadVideo(\r\n        string memory _hash,\r\n        string memory _title,\r\n        string memory _time,\r\n        string memory _description,\r\n        uint256 _tags,\r\n        string memory _creatorId\r\n    ) public {\r\n        videoCount++;\r\n        string[] memory comments;\r\n        Id_Video[videoCount] = Video(\r\n            videoCount,\r\n            _hash,\r\n            _title,\r\n            _time,\r\n            _description,\r\n            comments,\r\n            0,\r\n            0,\r\n            _tags,\r\n            _creatorId\r\n        );\r\n        Title_Video[_title] = videoCount;\r\n        User_Videos[_creatorId].push(videoCount);\r\n        if ((_tags & 1) != 0) {\r\n            Tag1_Videos.push(videoCount);\r\n        }\r\n        if ((_tags >> 1) & 1 != 0) {\r\n            Tag2_Videos.push(videoCount);\r\n        }\r\n        if ((_tags >> 2) & 1 != 0) {\r\n            Tag3_Videos.push(videoCount);\r\n        }\r\n        if ((_tags >> 3) & 1 != 0) {\r\n            Tag4_Videos.push(videoCount);\r\n        }\r\n        if ((_tags >> 4) & 1 != 0) {\r\n            Tag5_Videos.push(videoCount);\r\n        }\r\n    }\r\n\r\n    function stringToUint(string memory s)\r\n        public\r\n        pure\r\n        returns (uint256 result)\r\n    {\r\n        bytes memory b = bytes(s);\r\n        uint256 i;\r\n        result = 0;\r\n        for (i = 0; i < b.length; i++) {\r\n            uint256 c = uint256(uint8(b[i]));\r\n            if (c >= 48 && c <= 57) {\r\n                result = result * 10 + (c - 48);\r\n            }\r\n        }\r\n    }\r\n}\r\n",
  "sourcePath": "D:\\Dvideo\\src\\contracts\\Primary.sol",
  "compiler": {
    "name": "solc",
    "version": "0.5.16+commit.9c3226ce.Emscripten.clang"
  },
  "schemaVersion": "3.4.3",
  "updatedAt": "2021-10-28T06:36:40.251Z",
  "networkType": "ethereum",
  "devdoc": {
    "methods": {}
  },
  "userdoc": {
    "methods": {}
  }
}