{
  "contractName": "Primary",
  "abi": [
    {
      "inputs": [],
      "payable": false,
      "stateMutability": "nonpayable",
      "type": "constructor"
    },
    {
      "constant": true,
      "inputs": [
        {
          "internalType": "uint256",
          "name": "",
          "type": "uint256"
        }
      ],
      "name": "Id_Video",
      "outputs": [
        {
          "internalType": "uint256",
          "name": "id",
          "type": "uint256"
        },
        {
          "internalType": "string",
          "name": "hash",
          "type": "string"
        },
        {
          "internalType": "string",
          "name": "title",
          "type": "string"
        },
        {
          "internalType": "string",
          "name": "time",
          "type": "string"
        },
        {
          "internalType": "string",
          "name": "description",
          "type": "string"
        },
        {
          "internalType": "uint256",
          "name": "views",
          "type": "uint256"
        },
        {
          "internalType": "uint256",
          "name": "hearts",
          "type": "uint256"
        },
        {
          "internalType": "uint256",
          "name": "tags",
          "type": "uint256"
        },
        {
          "internalType": "string",
          "name": "creatorId",
          "type": "string"
        }
      ],
      "payable": false,
      "stateMutability": "view",
      "type": "function"
    },
    {
      "constant": true,
      "inputs": [
        {
          "internalType": "string",
          "name": "",
          "type": "string"
        }
      ],
      "name": "PublicKey_User",
      "outputs": [
        {
          "internalType": "string",
          "name": "publicKey",
          "type": "string"
        },
        {
          "internalType": "string",
          "name": "userName",
          "type": "string"
        },
        {
          "internalType": "uint256",
          "name": "subscribersCount",
          "type": "uint256"
        }
      ],
      "payable": false,
      "stateMutability": "view",
      "type": "function"
    },
    {
      "constant": true,
      "inputs": [
        {
          "internalType": "uint256",
          "name": "",
          "type": "uint256"
        }
      ],
      "name": "Tag1_Videos",
      "outputs": [
        {
          "internalType": "uint256",
          "name": "",
          "type": "uint256"
        }
      ],
      "payable": false,
      "stateMutability": "view",
      "type": "function"
    },
    {
      "constant": true,
      "inputs": [
        {
          "internalType": "uint256",
          "name": "",
          "type": "uint256"
        }
      ],
      "name": "Tag2_Videos",
      "outputs": [
        {
          "internalType": "uint256",
          "name": "",
          "type": "uint256"
        }
      ],
      "payable": false,
      "stateMutability": "view",
      "type": "function"
    },
    {
      "constant": true,
      "inputs": [
        {
          "internalType": "uint256",
          "name": "",
          "type": "uint256"
        }
      ],
      "name": "Tag3_Videos",
      "outputs": [
        {
          "internalType": "uint256",
          "name": "",
          "type": "uint256"
        }
      ],
      "payable": false,
      "stateMutability": "view",
      "type": "function"
    },
    {
      "constant": true,
      "inputs": [
        {
          "internalType": "uint256",
          "name": "",
          "type": "uint256"
        }
      ],
      "name": "Tag4_Videos",
      "outputs": [
        {
          "internalType": "uint256",
          "name": "",
          "type": "uint256"
        }
      ],
      "payable": false,
      "stateMutability": "view",
      "type": "function"
    },
    {
      "constant": true,
      "inputs": [
        {
          "internalType": "uint256",
          "name": "",
          "type": "uint256"
        }
      ],
      "name": "Tag5_Videos",
      "outputs": [
        {
          "internalType": "uint256",
          "name": "",
          "type": "uint256"
        }
      ],
      "payable": false,
      "stateMutability": "view",
      "type": "function"
    },
    {
      "constant": true,
      "inputs": [
        {
          "internalType": "string",
          "name": "",
          "type": "string"
        }
      ],
      "name": "Title_Video",
      "outputs": [
        {
          "internalType": "uint256",
          "name": "",
          "type": "uint256"
        }
      ],
      "payable": false,
      "stateMutability": "view",
      "type": "function"
    },
    {
      "constant": true,
      "inputs": [
        {
          "internalType": "string",
          "name": "",
          "type": "string"
        }
      ],
      "name": "UserName_User",
      "outputs": [
        {
          "internalType": "string",
          "name": "",
          "type": "string"
        }
      ],
      "payable": false,
      "stateMutability": "view",
      "type": "function"
    },
    {
      "constant": true,
      "inputs": [
        {
          "internalType": "string",
          "name": "",
          "type": "string"
        },
        {
          "internalType": "uint256",
          "name": "",
          "type": "uint256"
        }
      ],
      "name": "User_Videos",
      "outputs": [
        {
          "internalType": "uint256",
          "name": "",
          "type": "uint256"
        }
      ],
      "payable": false,
      "stateMutability": "view",
      "type": "function"
    },
    {
      "constant": true,
      "inputs": [],
      "name": "name",
      "outputs": [
        {
          "internalType": "string",
          "name": "",
          "type": "string"
        }
      ],
      "payable": false,
      "stateMutability": "view",
      "type": "function"
    },
    {
      "constant": true,
      "inputs": [],
      "name": "usersCount",
      "outputs": [
        {
          "internalType": "uint256",
          "name": "",
          "type": "uint256"
        }
      ],
      "payable": false,
      "stateMutability": "view",
      "type": "function"
    },
    {
      "constant": true,
      "inputs": [],
      "name": "videoCount",
      "outputs": [
        {
          "internalType": "uint256",
          "name": "",
          "type": "uint256"
        }
      ],
      "payable": false,
      "stateMutability": "view",
      "type": "function"
    },
    {
      "constant": true,
      "inputs": [
        {
          "internalType": "string",
          "name": "_publicKey",
          "type": "string"
        }
      ],
      "name": "getUserSubscriptions",
      "outputs": [
        {
          "internalType": "string[]",
          "name": "",
          "type": "string[]"
        }
      ],
      "payable": false,
      "stateMutability": "view",
      "type": "function"
    },
    {
      "constant": true,
      "inputs": [
        {
          "internalType": "string",
          "name": "_publicKey",
          "type": "string"
        },
        {
          "internalType": "string",
          "name": "_playlist",
          "type": "string"
        }
      ],
      "name": "getUserPlaylist",
      "outputs": [
        {
          "internalType": "uint256[]",
          "name": "",
          "type": "uint256[]"
        }
      ],
      "payable": false,
      "stateMutability": "view",
      "type": "function"
    },
    {
      "constant": true,
      "inputs": [
        {
          "internalType": "string",
          "name": "_publicKey",
          "type": "string"
        }
      ],
      "name": "getUserVideos",
      "outputs": [
        {
          "internalType": "uint256[]",
          "name": "",
          "type": "uint256[]"
        }
      ],
      "payable": false,
      "stateMutability": "view",
      "type": "function"
    },
    {
      "constant": true,
      "inputs": [
        {
          "internalType": "uint256",
          "name": "_videoId",
          "type": "uint256"
        }
      ],
      "name": "getVideoComments",
      "outputs": [
        {
          "internalType": "string[]",
          "name": "",
          "type": "string[]"
        }
      ],
      "payable": false,
      "stateMutability": "view",
      "type": "function"
    },
    {
      "constant": false,
      "inputs": [
        {
          "internalType": "string",
          "name": "_userName",
          "type": "string"
        },
        {
          "internalType": "string",
          "name": "_publicKey",
          "type": "string"
        }
      ],
      "name": "signup",
      "outputs": [],
      "payable": false,
      "stateMutability": "nonpayable",
      "type": "function"
    },
    {
      "constant": false,
      "inputs": [
        {
          "internalType": "string[]",
          "name": "_type",
          "type": "string[]"
        },
        {
          "internalType": "string[]",
          "name": "_userId",
          "type": "string[]"
        },
        {
          "internalType": "string[]",
          "name": "_timestamp",
          "type": "string[]"
        },
        {
          "internalType": "string[][]",
          "name": "_params",
          "type": "string[][]"
        }
      ],
      "name": "transactions",
      "outputs": [],
      "payable": false,
      "stateMutability": "nonpayable",
      "type": "function"
    },
    {
      "constant": false,
      "inputs": [
        {
          "internalType": "uint256",
          "name": "_videoId",
          "type": "uint256"
        }
      ],
      "name": "watch",
      "outputs": [],
      "payable": false,
      "stateMutability": "nonpayable",
      "type": "function"
    },
    {
      "constant": false,
      "inputs": [
        {
          "internalType": "string",
          "name": "_userId",
          "type": "string"
        },
        {
          "internalType": "uint256",
          "name": "_videoId",
          "type": "uint256"
        }
      ],
      "name": "like",
      "outputs": [],
      "payable": false,
      "stateMutability": "nonpayable",
      "type": "function"
    },
    {
      "constant": false,
      "inputs": [
        {
          "internalType": "string",
          "name": "_userId",
          "type": "string"
        },
        {
          "internalType": "uint256",
          "name": "_videoId",
          "type": "uint256"
        }
      ],
      "name": "save",
      "outputs": [],
      "payable": false,
      "stateMutability": "nonpayable",
      "type": "function"
    },
    {
      "constant": false,
      "inputs": [
        {
          "internalType": "uint256",
          "name": "_videoId",
          "type": "uint256"
        },
        {
          "internalType": "string",
          "name": "_comment",
          "type": "string"
        }
      ],
      "name": "comment",
      "outputs": [],
      "payable": false,
      "stateMutability": "nonpayable",
      "type": "function"
    },
    {
      "constant": false,
      "inputs": [
        {
          "internalType": "string",
          "name": "_userId",
          "type": "string"
        },
        {
          "internalType": "string",
          "name": "_subscribedUserId",
          "type": "string"
        }
      ],
      "name": "subscribe",
      "outputs": [],
      "payable": false,
      "stateMutability": "nonpayable",
      "type": "function"
    },
    {
      "constant": false,
      "inputs": [
        {
          "internalType": "string",
          "name": "_hash",
          "type": "string"
        },
        {
          "internalType": "string",
          "name": "_title",
          "type": "string"
        },
        {
          "internalType": "string",
          "name": "_time",
          "type": "string"
        },
        {
          "internalType": "string",
          "name": "_description",
          "type": "string"
        },
        {
          "internalType": "uint256",
          "name": "_tags",
          "type": "uint256"
        },
        {
          "internalType": "string",
          "name": "_creatorId",
          "type": "string"
        }
      ],
      "name": "uploadVideo",
      "outputs": [],
      "payable": false,
      "stateMutability": "nonpayable",
      "type": "function"
    },
    {
      "constant": true,
      "inputs": [
        {
          "internalType": "string",
          "name": "s",
          "type": "string"
        }
      ],
      "name": "stringToUint",
      "outputs": [
        {
          "internalType": "uint256",
          "name": "result",
          "type": "uint256"
        }
      ],
      "payable": false,
      "stateMutability": "pure",
      "type": "function"
    }
  ],
  "bytecode": "0x60806040526000805560006001556040518060400160405280600781526020017f5072696d61727900000000000000000000000000000000000000000000000000815250600290805190602001906200005a9291906200006f565b503480156200006857600080fd5b506200011e565b828054600181600116156101000203166002900490600052602060002090601f016020900481019282601f10620000b257805160ff1916838001178555620000e3565b82800160010185558215620000e3579182015b82811115620000e2578251825591602001919060010190620000c5565b5b509050620000f29190620000f6565b5090565b6200011b91905b8082111562000117576000816000905550600101620000fd565b5090565b90565b612bd7806200012e6000396000f3fe608060405234801561001057600080fd5b506004361061018e5760003560e01c80633c04c015116100de5780639e227b1011610097578063bbd5cf2f11610071578063bbd5cf2f1461050d578063c00f123d14610529578063c61b5f4c14610559578063daf6160c146105775761018e565b80639e227b101461047d578063ae32ddef146104ad578063b66cab0f146104dd5761018e565b80633c04c015146103a957806347e70e64146103c55780636ba13a82146103e15780637c47d262146103ff5780637d8379b81461041b5780637e6429891461044d5761018e565b80631805c5231161014b57806329b754221161012557806329b75422146102fd5780632e2c6a591461032d57806332fca8811461035d578063346d4d661461038d5761018e565b80631805c523146102815780631bd951551461029d57806322852845146102cd5761018e565b806305f79ed81461019357806306fdde03146101cb57806307dba6bf146101e9578063109c5fed14610205578063138b0787146102215780631639320414610251575b600080fd5b6101ad60048036036101a891908101906122b4565b6105a7565b6040516101c2999897969594939291906128be565b60405180910390f35b6101d36108ed565b6040516101e0919061283c565b60405180910390f35b61020360048036036101fe919081019061220c565b61098b565b005b61021f600480360361021a91908101906122b4565b6109f4565b005b61023b6004803603610236919081019061201d565b610a1d565b60405161024891906128a3565b60405180910390f35b61026b600480360361026691908101906122b4565b610a4b565b60405161027891906128a3565b60405180910390f35b61029b600480360361029691908101906122dd565b610a6c565b005b6102b760048036036102b2919081019061205e565b610ac3565b6040516102c491906128a3565b60405180910390f35b6102e760048036036102e2919081019061205e565b610b36565b6040516102f491906127f8565b60405180910390f35b6103176004803603610312919081019061209f565b610c40565b604051610324919061281a565b60405180910390f35b6103476004803603610342919081019061205e565b610cd6565b604051610354919061281a565b60405180910390f35b610377600480360361037291908101906122b4565b610d4c565b60405161038491906128a3565b60405180910390f35b6103a760048036036103a29190810190611f5a565b610d6d565b005b6103c360048036036103be919081019061220c565b611259565b005b6103df60048036036103da919081019061209f565b6112e8565b005b6103e96113d8565b6040516103f691906128a3565b60405180910390f35b6104196004803603610414919081019061210b565b6113de565b005b6104356004803603610430919081019061201d565b6116d3565b6040516104449392919061285e565b60405180910390f35b61046760048036036104629190810190612260565b611843565b60405161047491906128a3565b60405180910390f35b6104976004803603610492919081019061201d565b611887565b6040516104a4919061283c565b60405180910390f35b6104c760048036036104c291908101906122b4565b61194d565b6040516104d491906128a3565b60405180910390f35b6104f760048036036104f291908101906122b4565b61196e565b60405161050491906128a3565b60405180910390f35b6105276004803603610522919081019061209f565b61198f565b005b610543600480360361053e91908101906122b4565b611a22565b60405161055091906128a3565b60405180910390f35b610561611a43565b60405161056e91906128a3565b60405180910390f35b610591600480360361058c91908101906122b4565b611a49565b60405161059e91906127f8565b60405180910390f35b6003602052806000526040600020600091509050806000015490806001018054600181600116156101000203166002900480601f0160208091040260200160405190810160405280929190818152602001828054600181600116156101000203166002900480156106595780601f1061062e57610100808354040283529160200191610659565b820191906000526020600020905b81548152906001019060200180831161063c57829003601f168201915b505050505090806002018054600181600116156101000203166002900480601f0160208091040260200160405190810160405280929190818152602001828054600181600116156101000203166002900480156106f75780601f106106cc576101008083540402835291602001916106f7565b820191906000526020600020905b8154815290600101906020018083116106da57829003601f168201915b505050505090806003018054600181600116156101000203166002900480601f0160208091040260200160405190810160405280929190818152602001828054600181600116156101000203166002900480156107955780601f1061076a57610100808354040283529160200191610795565b820191906000526020600020905b81548152906001019060200180831161077857829003601f168201915b505050505090806004018054600181600116156101000203166002900480601f0160208091040260200160405190810160405280929190818152602001828054600181600116156101000203166002900480156108335780601f1061080857610100808354040283529160200191610833565b820191906000526020600020905b81548152906001019060200180831161081657829003601f168201915b505050505090806006015490806007015490806008015490806009018054600181600116156101000203166002900480601f0160208091040260200160405190810160405280929190818152602001828054600181600116156101000203166002900480156108e35780601f106108b8576101008083540402835291602001916108e3565b820191906000526020600020905b8154815290600101906020018083116108c657829003601f168201915b5050505050905089565b60028054600181600116156101000203166002900480601f0160208091040260200160405190810160405280929190818152602001828054600181600116156101000203166002900480156109835780601f1061095857610100808354040283529160200191610983565b820191906000526020600020905b81548152906001019060200180831161096657829003601f168201915b505050505081565b600b8260405161099b9190612739565b90815260200160405180910390206004016040516109b890612765565b90815260200160405180910390208190806001815401808255809150509060018203906000526020600020016000909192909190915055505050565b600360008281526020019081526020016000206006016000815480929190600101919050555050565b6009818051602081018201805184825260208301602085012081835280955050505050506000915090505481565b60088181548110610a5857fe5b906000526020600020016000915090505481565b60036000838152602001908152602001600020600501819080600181540180825580915050906001820390600052602060002001600090919290919091509080519060200190610abd929190611b48565b50505050565b600060608290506000809250600090505b8151811015610b2f576000828281518110610aeb57fe5b602001015160f81c60f81b60f81c60ff16905060308110158015610b10575060398111155b15610b215760308103600a85020193505b508080600101915050610ad4565b5050919050565b6060600b82604051610b489190612739565b9081526020016040518091039020600201805480602002602001604051908101604052809291908181526020016000905b82821015610c35578382906000526020600020018054600181600116156101000203166002900480601f016020809104026020016040519081016040528092919081815260200182805460018160011615610100020316600290048015610c215780601f10610bf657610100808354040283529160200191610c21565b820191906000526020600020905b815481529060010190602001808311610c0457829003601f168201915b505050505081526020019060010190610b79565b505050509050919050565b6060600b83604051610c529190612739565b908152602001604051809103902060040182604051610c719190612739565b9081526020016040518091039020805480602002602001604051908101604052809291908181526020018280548015610cc957602002820191906000526020600020905b815481526020019060010190808311610cb5575b5050505050905092915050565b6060600a82604051610ce89190612739565b9081526020016040518091039020805480602002602001604051908101604052809291908181526020018280548015610d4057602002820191906000526020600020905b815481526020019060010190808311610d2c575b50505050509050919050565b60058181548110610d5957fe5b906000526020600020016000915090505481565b60008090505b845181101561125257604051602001610d8b9061278f565b60405160208183030381529060405280519060200120858281518110610dad57fe5b6020026020010151604051602001610dc59190612722565b604051602081830303815290604052805190602001201415610e1e57610e19610e14838381518110610df357fe5b6020026020010151600081518110610e0757fe5b6020026020010151610ac3565b6109f4565b611245565b604051602001610e2d90612750565b60405160208183030381529060405280519060200120858281518110610e4f57fe5b6020026020010151604051602001610e679190612722565b604051602081830303815290604052805190602001201415610ed457610ecf848281518110610e9257fe5b6020026020010151610eca848481518110610ea957fe5b6020026020010151600081518110610ebd57fe5b6020026020010151610ac3565b611259565b611244565b604051602001610ee3906127e3565b60405160208183030381529060405280519060200120858281518110610f0557fe5b6020026020010151604051602001610f1d9190612722565b604051602081830303815290604052805190602001201415610f9e57610f99610f6c838381518110610f4b57fe5b6020026020010151600081518110610f5f57fe5b6020026020010151610ac3565b838381518110610f7857fe5b6020026020010151600181518110610f8c57fe5b6020026020010151610a6c565b611243565b604051602001610fad906127ce565b60405160208183030381529060405280519060200120858281518110610fcf57fe5b6020026020010151604051602001610fe79190612722565b60405160208183030381529060405280519060200120141561104c5761104784828151811061101257fe5b602002602001015183838151811061102657fe5b602002602001015160008151811061103a57fe5b602002602001015161198f565b611242565b60405160200161105b906127b9565b6040516020818303038152906040528051906020012085828151811061107d57fe5b60200260200101516040516020016110959190612722565b604051602081830303815290604052805190602001201415611102576110fd8482815181106110c057fe5b60200260200101516110f88484815181106110d757fe5b60200260200101516000815181106110eb57fe5b6020026020010151610ac3565b61098b565b611241565b604051602001611111906127a4565b6040516020818303038152906040528051906020012085828151811061113357fe5b602002602001015160405160200161114b9190612722565b6040516020818303038152906040528051906020012014156112405761123f82828151811061117657fe5b602002602001015160038151811061118a57fe5b602002602001015183838151811061119e57fe5b60200260200101516000815181106111b257fe5b60200260200101518584815181106111c657fe5b60200260200101518585815181106111da57fe5b60200260200101516001815181106111ee57fe5b602002602001015161122687878151811061120557fe5b602002602001015160028151811061121957fe5b6020026020010151610ac3565b89878151811061123257fe5b60200260200101516113de565b5b5b5b5b5b5b8080600101915050610d73565b5050505050565b6003600082815260200190815260200160002060070160008154809291906001019190505550600b8260405161128f9190612739565b90815260200160405180910390206004016040516112ac9061277a565b90815260200160405180910390208190806001815401808255809150509060018203906000526020600020016000909192909190915055505050565b600160008154809291906001019190505550606060405180608001604052808381526020018481526020018281526020016000815250600b8360405161132e9190612739565b90815260200160405180910390206000820151816000019080519060200190611358929190611bc8565b506020820151816001019080519060200190611375929190611bc8565b506040820151816002019080519060200190611392929190611c48565b506060820151816003015590505081600c846040516113b19190612739565b908152602001604051809103902090805190602001906113d2929190611b48565b50505050565b60015481565b6000808154809291906001019190505550606060405180610140016040528060005481526020018881526020018781526020018681526020018581526020018281526020016000815260200160008152602001848152602001838152506003600080548152602001908152602001600020600082015181600001556020820151816001019080519060200190611475929190611bc8565b506040820151816002019080519060200190611492929190611bc8565b5060608201518160030190805190602001906114af929190611bc8565b5060808201518160040190805190602001906114cc929190611bc8565b5060a08201518160050190805190602001906114e9929190611c48565b5060c0820151816006015560e082015181600701556101008201518160080155610120820151816009019080519060200190611526929190611bc8565b5090505060005460098760405161153d9190612739565b908152602001604051809103902081905550600a8260405161155f9190612739565b90815260200160405180910390206000549080600181540180825580915050906001820390600052602060002001600090919290919091505550600060018416146115d357600460005490806001815401808255809150509060018203906000526020600020016000909192909190915055505b600060018085901c161461161057600560005490806001815401808255809150509060018203906000526020600020016000909192909190915055505b60006001600285901c161461164e57600660005490806001815401808255809150509060018203906000526020600020016000909192909190915055505b60006001600385901c161461168c57600760005490806001815401808255809150509060018203906000526020600020016000909192909190915055505b60006001600485901c16146116ca57600860005490806001815401808255809150509060018203906000526020600020016000909192909190915055505b50505050505050565b600b81805160208101820180518482526020830160208501208183528095505050505050600091509050806000018054600181600116156101000203166002900480601f0160208091040260200160405190810160405280929190818152602001828054600181600116156101000203166002900480156117955780601f1061176a57610100808354040283529160200191611795565b820191906000526020600020905b81548152906001019060200180831161177857829003601f168201915b505050505090806001018054600181600116156101000203166002900480601f0160208091040260200160405190810160405280929190818152602001828054600181600116156101000203166002900480156118335780601f1061180857610100808354040283529160200191611833565b820191906000526020600020905b81548152906001019060200180831161181657829003601f168201915b5050505050908060030154905083565b600a82805160208101820180518482526020830160208501208183528095505050505050818154811061187257fe5b90600052602060002001600091509150505481565b600c818051602081018201805184825260208301602085012081835280955050505050506000915090508054600181600116156101000203166002900480601f0160208091040260200160405190810160405280929190818152602001828054600181600116156101000203166002900480156119455780601f1061191a57610100808354040283529160200191611945565b820191906000526020600020905b81548152906001019060200180831161192857829003601f168201915b505050505081565b6007818154811061195a57fe5b906000526020600020016000915090505481565b6004818154811061197b57fe5b906000526020600020016000915090505481565b600b8260405161199f9190612739565b90815260200160405180910390206002018190806001815401808255809150509060018203906000526020600020016000909192909190915090805190602001906119eb929190611b48565b5050600b816040516119fd9190612739565b9081526020016040518091039020600301600081548092919060010191905055505050565b60068181548110611a2f57fe5b906000526020600020016000915090505481565b60005481565b606060036000838152602001908152602001600020600501805480602002602001604051908101604052809291908181526020016000905b82821015611b3d578382906000526020600020018054600181600116156101000203166002900480601f016020809104026020016040519081016040528092919081815260200182805460018160011615610100020316600290048015611b295780601f10611afe57610100808354040283529160200191611b29565b820191906000526020600020905b815481529060010190602001808311611b0c57829003601f168201915b505050505081526020019060010190611a81565b505050509050919050565b828054600181600116156101000203166002900490600052602060002090601f016020900481019282601f10611b8957805160ff1916838001178555611bb7565b82800160010185558215611bb7579182015b82811115611bb6578251825591602001919060010190611b9b565b5b509050611bc49190611ca8565b5090565b828054600181600116156101000203166002900490600052602060002090601f016020900481019282601f10611c0957805160ff1916838001178555611c37565b82800160010185558215611c37579182015b82811115611c36578251825591602001919060010190611c1b565b5b509050611c449190611ca8565b5090565b828054828255906000526020600020908101928215611c97579160200282015b82811115611c96578251829080519060200190611c86929190611bc8565b5091602001919060010190611c68565b5b509050611ca49190611ccd565b5090565b611cca91905b80821115611cc6576000816000905550600101611cae565b5090565b90565b611cf691905b80821115611cf25760008181611ce99190611cf9565b50600101611cd3565b5090565b90565b50805460018160011615610100020316600290046000825580601f10611d1f5750611d3e565b601f016020900490600052602060002090810190611d3d9190611ca8565b5b50565b600082601f830112611d5257600080fd5b8135611d65611d608261299b565b61296e565b9150818183526020840193506020810190508360005b83811015611dab5781358601611d918882611db5565b845260208401935060208301925050600181019050611d7b565b5050505092915050565b600082601f830112611dc657600080fd5b8135611dd9611dd4826129c3565b61296e565b9150818183526020840193506020810190508360005b83811015611e1f5781358601611e058882611e9d565b845260208401935060208301925050600181019050611def565b5050505092915050565b600082601f830112611e3a57600080fd5b8135611e4d611e48826129eb565b61296e565b9150818183526020840193506020810190508360005b83811015611e935781358601611e798882611e9d565b845260208401935060208301925050600181019050611e63565b5050505092915050565b600082601f830112611eae57600080fd5b8135611ec1611ebc82612a13565b61296e565b91508082526020830160208301858383011115611edd57600080fd5b611ee8838284612b2a565b50505092915050565b600082601f830112611f0257600080fd5b8135611f15611f1082612a3f565b61296e565b91508082526020830160208301858383011115611f3157600080fd5b611f3c838284612b2a565b50505092915050565b600081359050611f5481612b7d565b92915050565b60008060008060808587031215611f7057600080fd5b600085013567ffffffffffffffff811115611f8a57600080fd5b611f9687828801611e29565b945050602085013567ffffffffffffffff811115611fb357600080fd5b611fbf87828801611e29565b935050604085013567ffffffffffffffff811115611fdc57600080fd5b611fe887828801611e29565b925050606085013567ffffffffffffffff81111561200557600080fd5b61201187828801611d41565b91505092959194509250565b60006020828403121561202f57600080fd5b600082013567ffffffffffffffff81111561204957600080fd5b61205584828501611e9d565b91505092915050565b60006020828403121561207057600080fd5b600082013567ffffffffffffffff81111561208a57600080fd5b61209684828501611ef1565b91505092915050565b600080604083850312156120b257600080fd5b600083013567ffffffffffffffff8111156120cc57600080fd5b6120d885828601611ef1565b925050602083013567ffffffffffffffff8111156120f557600080fd5b61210185828601611ef1565b9150509250929050565b60008060008060008060c0878903121561212457600080fd5b600087013567ffffffffffffffff81111561213e57600080fd5b61214a89828a01611ef1565b965050602087013567ffffffffffffffff81111561216757600080fd5b61217389828a01611ef1565b955050604087013567ffffffffffffffff81111561219057600080fd5b61219c89828a01611ef1565b945050606087013567ffffffffffffffff8111156121b957600080fd5b6121c589828a01611ef1565b93505060806121d689828a01611f45565b92505060a087013567ffffffffffffffff8111156121f357600080fd5b6121ff89828a01611ef1565b9150509295509295509295565b6000806040838503121561221f57600080fd5b600083013567ffffffffffffffff81111561223957600080fd5b61224585828601611ef1565b925050602061225685828601611f45565b9150509250929050565b6000806040838503121561227357600080fd5b600083013567ffffffffffffffff81111561228d57600080fd5b61229985828601611e9d565b92505060206122aa85828601611f45565b9150509250929050565b6000602082840312156122c657600080fd5b60006122d484828501611f45565b91505092915050565b600080604083850312156122f057600080fd5b60006122fe85828601611f45565b925050602083013567ffffffffffffffff81111561231b57600080fd5b61232785828601611ef1565b9150509250929050565b600061233d8383612461565b905092915050565b60006123518383612704565b60208301905092915050565b600061236882612a8b565b6123728185612ad1565b93508360208202850161238485612a6b565b8060005b858110156123c057848403895281516123a18582612331565b94506123ac83612ab7565b925060208a01995050600181019050612388565b50829750879550505050505092915050565b60006123dd82612a96565b6123e78185612ae2565b93506123f283612a7b565b8060005b8381101561242357815161240a8882612345565b975061241583612ac4565b9250506001810190506123f6565b5085935050505092915050565b600061243b82612aac565b6124458185612b15565b9350612455818560208601612b39565b80840191505092915050565b600061246c82612aa1565b6124768185612af3565b9350612486818560208601612b39565b61248f81612b6c565b840191505092915050565b60006124a582612aa1565b6124af8185612b04565b93506124bf818560208601612b39565b6124c881612b6c565b840191505092915050565b60006124de82612aa1565b6124e88185612b15565b93506124f8818560208601612b39565b80840191505092915050565b6000612511600483612b15565b91507f6c696b65000000000000000000000000000000000000000000000000000000006000830152600482019050919050565b6000612551600583612b15565b91507f6c617465720000000000000000000000000000000000000000000000000000006000830152600582019050919050565b6000612591600583612b15565b91507f6c696b65640000000000000000000000000000000000000000000000000000006000830152600582019050919050565b60006125d1600483612b15565b91507f76696577000000000000000000000000000000000000000000000000000000006000830152600482019050919050565b6000612611600683612b15565b91507f75706c6f616400000000000000000000000000000000000000000000000000006000830152600682019050919050565b6000612651600483612b15565b91507f73617665000000000000000000000000000000000000000000000000000000006000830152600482019050919050565b6000612691600983612b15565b91507f73756273637269626500000000000000000000000000000000000000000000006000830152600982019050919050565b60006126d1600783612b15565b91507f636f6d6d656e74000000000000000000000000000000000000000000000000006000830152600782019050919050565b61270d81612b20565b82525050565b61271c81612b20565b82525050565b600061272e82846124d3565b915081905092915050565b60006127458284612430565b915081905092915050565b600061275b82612504565b9150819050919050565b600061277082612544565b9150819050919050565b600061278582612584565b9150819050919050565b600061279a826125c4565b9150819050919050565b60006127af82612604565b9150819050919050565b60006127c482612644565b9150819050919050565b60006127d982612684565b9150819050919050565b60006127ee826126c4565b9150819050919050565b60006020820190508181036000830152612812818461235d565b905092915050565b6000602082019050818103600083015261283481846123d2565b905092915050565b60006020820190508181036000830152612856818461249a565b905092915050565b60006060820190508181036000830152612878818661249a565b9050818103602083015261288c818561249a565b905061289b6040830184612713565b949350505050565b60006020820190506128b86000830184612713565b92915050565b6000610120820190506128d4600083018c612713565b81810360208301526128e6818b61249a565b905081810360408301526128fa818a61249a565b9050818103606083015261290e818961249a565b90508181036080830152612922818861249a565b905061293160a0830187612713565b61293e60c0830186612713565b61294b60e0830185612713565b81810361010083015261295e818461249a565b90509a9950505050505050505050565b6000604051905081810181811067ffffffffffffffff8211171561299157600080fd5b8060405250919050565b600067ffffffffffffffff8211156129b257600080fd5b602082029050602081019050919050565b600067ffffffffffffffff8211156129da57600080fd5b602082029050602081019050919050565b600067ffffffffffffffff821115612a0257600080fd5b602082029050602081019050919050565b600067ffffffffffffffff821115612a2a57600080fd5b601f19601f8301169050602081019050919050565b600067ffffffffffffffff821115612a5657600080fd5b601f19601f8301169050602081019050919050565b6000819050602082019050919050565b6000819050602082019050919050565b600081519050919050565b600081519050919050565b600081519050919050565b600081519050919050565b6000602082019050919050565b6000602082019050919050565b600082825260208201905092915050565b600082825260208201905092915050565b600082825260208201905092915050565b600082825260208201905092915050565b600081905092915050565b6000819050919050565b82818337600083830152505050565b60005b83811015612b57578082015181840152602081019050612b3c565b83811115612b66576000848401525b50505050565b6000601f19601f8301169050919050565b612b8681612b20565b8114612b9157600080fd5b5056fea365627a7a72315820999c29c7dd3de41a02b5b5c7fcd4d04ba21a9f20799ad8c8cc82e67ed6e82bba6c6578706572696d656e74616cf564736f6c63430005100040",
  "source": "pragma solidity ^0.5.16;\r\npragma experimental ABIEncoderV2;\r\n\r\ncontract Primary {\r\n    uint256 public videoCount = 0;\r\n    uint256 public usersCount = 0;\r\n    string public name = \"Primary\";\r\n    mapping(uint256 => Video) public Id_Video;\r\n    uint256[] public Tag1_Videos;\r\n    uint256[] public Tag2_Videos;\r\n    uint256[] public Tag3_Videos;\r\n    uint256[] public Tag4_Videos;\r\n    uint256[] public Tag5_Videos;\r\n    mapping(string => uint256) public Title_Video;\r\n    mapping(string => uint256[]) public User_Videos;\r\n    mapping(string => User) public PublicKey_User;\r\n    mapping(string => string) public UserName_User;\r\n\r\n    struct Video {\r\n        uint256 id;\r\n        string hash;\r\n        string title;\r\n        string time;\r\n        string description;\r\n        string[] comments;\r\n        uint256 views;\r\n        uint256 hearts;\r\n        uint256 tags;\r\n        string creatorId;\r\n    }\r\n\r\n    struct User {\r\n        string publicKey;\r\n        string userName;\r\n        string[] subscriptions;\r\n        uint256 subscribersCount;\r\n        mapping(string => uint256[]) Playlist_Videos;\r\n    }\r\n\r\n    constructor() public {}\r\n\r\n    function getUserSubscriptions(string memory _publicKey)\r\n        public\r\n        view\r\n        returns (string[] memory)\r\n    {\r\n        return PublicKey_User[_publicKey].subscriptions;\r\n    }\r\n\r\n    function getUserPlaylist(string memory _publicKey, string memory _playlist)\r\n        public\r\n        view\r\n        returns (uint256[] memory)\r\n    {\r\n        return PublicKey_User[_publicKey].Playlist_Videos[_playlist];\r\n    }\r\n\r\n    function getUserVideos(string memory _publicKey)\r\n        public\r\n        view\r\n        returns (uint256[] memory)\r\n    {\r\n        return User_Videos[_publicKey];\r\n    }\r\n\r\n    function getVideoComments(uint256 _videoId)\r\n        public\r\n        view\r\n        returns (string[] memory)\r\n    {\r\n        return Id_Video[_videoId].comments;\r\n    }\r\n\r\n    function signup(string memory _userName, string memory _publicKey) public {\r\n        usersCount++;\r\n        string[] memory subscriptions;\r\n        PublicKey_User[_publicKey] = User(\r\n            _publicKey,\r\n            _userName,\r\n            subscriptions,\r\n            0\r\n        );\r\n        UserName_User[_userName] = _publicKey;\r\n    }\r\n\r\n    function transactions(\r\n        string[] memory _type,\r\n        string[] memory _userId,\r\n        string[] memory _timestamp,\r\n        string[][] memory _params\r\n    ) public {\r\n        for (\r\n            uint256 transaction = 0;\r\n            transaction < _type.length;\r\n            transaction++\r\n        ) {\r\n            if (\r\n                keccak256(abi.encodePacked(_type[transaction])) ==\r\n                keccak256(abi.encodePacked(\"view\"))\r\n            ) {\r\n                watch(stringToUint(_params[transaction][0]));\r\n            } else if (\r\n                keccak256(abi.encodePacked(_type[transaction])) ==\r\n                keccak256(abi.encodePacked(\"like\"))\r\n            ) {\r\n                like(\r\n                    _userId[transaction],\r\n                    stringToUint(_params[transaction][0])\r\n                );\r\n            } else if (\r\n                keccak256(abi.encodePacked(_type[transaction])) ==\r\n                keccak256(abi.encodePacked(\"comment\"))\r\n            ) {\r\n                comment(\r\n                    stringToUint(_params[transaction][0]),\r\n                    _params[transaction][1]\r\n                );\r\n            } else if (\r\n                keccak256(abi.encodePacked(_type[transaction])) ==\r\n                keccak256(abi.encodePacked(\"subscribe\"))\r\n            ) {\r\n                subscribe(_userId[transaction], _params[transaction][0]);\r\n            } else if (\r\n                keccak256(abi.encodePacked(_type[transaction])) ==\r\n                keccak256(abi.encodePacked(\"save\"))\r\n            ) {\r\n                save(\r\n                    _userId[transaction],\r\n                    stringToUint(_params[transaction][0])\r\n                );\r\n            } else if (\r\n                keccak256(abi.encodePacked(_type[transaction])) ==\r\n                keccak256(abi.encodePacked(\"upload\"))\r\n            ) {\r\n                uploadVideo(\r\n                    _params[transaction][3],\r\n                    _params[transaction][0],\r\n                    _timestamp[transaction],\r\n                    _params[transaction][1],\r\n                    stringToUint(_params[transaction][2]),\r\n                    _userId[transaction]\r\n                );\r\n            }\r\n        }\r\n    }\r\n\r\n    function watch(uint256 _videoId) public {\r\n        Id_Video[_videoId].views++;\r\n    }\r\n\r\n    function like(string memory _userId, uint256 _videoId) public {\r\n        Id_Video[_videoId].hearts++;\r\n        PublicKey_User[_userId].Playlist_Videos[\"liked\"].push(_videoId);\r\n    }\r\n\r\n    function save(string memory _userId, uint256 _videoId) public {\r\n        PublicKey_User[_userId].Playlist_Videos[\"later\"].push(_videoId);\r\n    }\r\n\r\n    function comment(uint256 _videoId, string memory _comment) public {\r\n        Id_Video[_videoId].comments.push(_comment);\r\n    }\r\n\r\n    function subscribe(string memory _userId, string memory _subscribedUserId)\r\n        public\r\n    {\r\n        PublicKey_User[_userId].subscriptions.push(_subscribedUserId);\r\n        PublicKey_User[_subscribedUserId].subscribersCount++;\r\n    }\r\n\r\n    function uploadVideo(\r\n        string memory _hash,\r\n        string memory _title,\r\n        string memory _time,\r\n        string memory _description,\r\n        uint256 _tags,\r\n        string memory _creatorId\r\n    ) public {\r\n        videoCount++;\r\n        string[] memory comments;\r\n        Id_Video[videoCount] = Video(\r\n            videoCount,\r\n            _hash,\r\n            _title,\r\n            _time,\r\n            _description,\r\n            comments,\r\n            0,\r\n            0,\r\n            _tags,\r\n            _creatorId\r\n        );\r\n        Title_Video[_title] = videoCount;\r\n        User_Videos[_creatorId].push(videoCount);\r\n        if ((_tags & 1) != 0) {\r\n            Tag1_Videos.push(videoCount);\r\n        }\r\n        if ((_tags >> 1) & 1 != 0) {\r\n            Tag2_Videos.push(videoCount);\r\n        }\r\n        if ((_tags >> 2) & 1 != 0) {\r\n            Tag3_Videos.push(videoCount);\r\n        }\r\n        if ((_tags >> 3) & 1 != 0) {\r\n            Tag4_Videos.push(videoCount);\r\n        }\r\n        if ((_tags >> 4) & 1 != 0) {\r\n            Tag5_Videos.push(videoCount);\r\n        }\r\n    }\r\n\r\n    function stringToUint(string memory s)\r\n        public\r\n        pure\r\n        returns (uint256 result)\r\n    {\r\n        bytes memory b = bytes(s);\r\n        uint256 i;\r\n        result = 0;\r\n        for (i = 0; i < b.length; i++) {\r\n            uint256 c = uint256(uint8(b[i]));\r\n            if (c >= 48 && c <= 57) {\r\n                result = result * 10 + (c - 48);\r\n            }\r\n        }\r\n    }\r\n}\r\n",
  "sourcePath": "D:\\Dvideo\\src\\contracts\\Primary.sol",
  "compiler": {
    "name": "solc",
    "version": "0.5.16+commit.9c3226ce.Emscripten.clang"
  },
  "schemaVersion": "3.4.3",
  "updatedAt": "2021-10-30T05:57:44.037Z",
  "networkType": "ethereum",
  "devdoc": {
    "methods": {}
  },
  "userdoc": {
    "methods": {}
  }
}