{
  "contractName": "Primary",
  "abi": [
    {
      "inputs": [],
      "payable": false,
      "stateMutability": "nonpayable",
      "type": "constructor"
    },
    {
      "constant": true,
      "inputs": [
        {
          "internalType": "uint256",
          "name": "",
          "type": "uint256"
        }
      ],
      "name": "Id_Video",
      "outputs": [
        {
          "internalType": "uint256",
          "name": "id",
          "type": "uint256"
        },
        {
          "internalType": "string",
          "name": "hash",
          "type": "string"
        },
        {
          "internalType": "string",
          "name": "title",
          "type": "string"
        },
        {
          "internalType": "string",
          "name": "time",
          "type": "string"
        },
        {
          "internalType": "string",
          "name": "description",
          "type": "string"
        },
        {
          "internalType": "uint256",
          "name": "views",
          "type": "uint256"
        },
        {
          "internalType": "uint256",
          "name": "hearts",
          "type": "uint256"
        },
        {
          "internalType": "uint256",
          "name": "tags",
          "type": "uint256"
        },
        {
          "internalType": "string",
          "name": "creatorId",
          "type": "string"
        }
      ],
      "payable": false,
      "stateMutability": "view",
      "type": "function"
    },
    {
      "constant": true,
      "inputs": [
        {
          "internalType": "string",
          "name": "",
          "type": "string"
        }
      ],
      "name": "PublicKey_User",
      "outputs": [
        {
          "internalType": "string",
          "name": "publicKey",
          "type": "string"
        },
        {
          "internalType": "string",
          "name": "userName",
          "type": "string"
        },
        {
          "internalType": "uint256",
          "name": "subscribersCount",
          "type": "uint256"
        }
      ],
      "payable": false,
      "stateMutability": "view",
      "type": "function"
    },
    {
      "constant": true,
      "inputs": [
        {
          "internalType": "uint256",
          "name": "",
          "type": "uint256"
        }
      ],
      "name": "Tag1_Videos",
      "outputs": [
        {
          "internalType": "uint256",
          "name": "",
          "type": "uint256"
        }
      ],
      "payable": false,
      "stateMutability": "view",
      "type": "function"
    },
    {
      "constant": true,
      "inputs": [
        {
          "internalType": "uint256",
          "name": "",
          "type": "uint256"
        }
      ],
      "name": "Tag2_Videos",
      "outputs": [
        {
          "internalType": "uint256",
          "name": "",
          "type": "uint256"
        }
      ],
      "payable": false,
      "stateMutability": "view",
      "type": "function"
    },
    {
      "constant": true,
      "inputs": [
        {
          "internalType": "uint256",
          "name": "",
          "type": "uint256"
        }
      ],
      "name": "Tag3_Videos",
      "outputs": [
        {
          "internalType": "uint256",
          "name": "",
          "type": "uint256"
        }
      ],
      "payable": false,
      "stateMutability": "view",
      "type": "function"
    },
    {
      "constant": true,
      "inputs": [
        {
          "internalType": "uint256",
          "name": "",
          "type": "uint256"
        }
      ],
      "name": "Tag4_Videos",
      "outputs": [
        {
          "internalType": "uint256",
          "name": "",
          "type": "uint256"
        }
      ],
      "payable": false,
      "stateMutability": "view",
      "type": "function"
    },
    {
      "constant": true,
      "inputs": [
        {
          "internalType": "uint256",
          "name": "",
          "type": "uint256"
        }
      ],
      "name": "Tag5_Videos",
      "outputs": [
        {
          "internalType": "uint256",
          "name": "",
          "type": "uint256"
        }
      ],
      "payable": false,
      "stateMutability": "view",
      "type": "function"
    },
    {
      "constant": true,
      "inputs": [
        {
          "internalType": "string",
          "name": "",
          "type": "string"
        }
      ],
      "name": "Title_Video",
      "outputs": [
        {
          "internalType": "uint256",
          "name": "",
          "type": "uint256"
        }
      ],
      "payable": false,
      "stateMutability": "view",
      "type": "function"
    },
    {
      "constant": true,
      "inputs": [
        {
          "internalType": "string",
          "name": "",
          "type": "string"
        }
      ],
      "name": "UserName_User",
      "outputs": [
        {
          "internalType": "string",
          "name": "",
          "type": "string"
        }
      ],
      "payable": false,
      "stateMutability": "view",
      "type": "function"
    },
    {
      "constant": true,
      "inputs": [
        {
          "internalType": "string",
          "name": "",
          "type": "string"
        },
        {
          "internalType": "uint256",
          "name": "",
          "type": "uint256"
        }
      ],
      "name": "User_Videos",
      "outputs": [
        {
          "internalType": "uint256",
          "name": "",
          "type": "uint256"
        }
      ],
      "payable": false,
      "stateMutability": "view",
      "type": "function"
    },
    {
      "constant": true,
      "inputs": [],
      "name": "name",
      "outputs": [
        {
          "internalType": "string",
          "name": "",
          "type": "string"
        }
      ],
      "payable": false,
      "stateMutability": "view",
      "type": "function"
    },
    {
      "constant": true,
      "inputs": [],
      "name": "usersCount",
      "outputs": [
        {
          "internalType": "uint256",
          "name": "",
          "type": "uint256"
        }
      ],
      "payable": false,
      "stateMutability": "view",
      "type": "function"
    },
    {
      "constant": true,
      "inputs": [],
      "name": "videoCount",
      "outputs": [
        {
          "internalType": "uint256",
          "name": "",
          "type": "uint256"
        }
      ],
      "payable": false,
      "stateMutability": "view",
      "type": "function"
    },
    {
      "constant": true,
      "inputs": [
        {
          "internalType": "uint256",
          "name": "_tag",
          "type": "uint256"
        }
      ],
      "name": "getTagsVideos",
      "outputs": [
        {
          "internalType": "uint256[]",
          "name": "",
          "type": "uint256[]"
        }
      ],
      "payable": false,
      "stateMutability": "view",
      "type": "function"
    },
    {
      "constant": true,
      "inputs": [
        {
          "internalType": "string",
          "name": "_publicKey",
          "type": "string"
        }
      ],
      "name": "getUserName",
      "outputs": [
        {
          "internalType": "string",
          "name": "",
          "type": "string"
        }
      ],
      "payable": false,
      "stateMutability": "view",
      "type": "function"
    },
    {
      "constant": true,
      "inputs": [
        {
          "internalType": "string",
          "name": "_publicKey",
          "type": "string"
        }
      ],
      "name": "getUserSubscriptions",
      "outputs": [
        {
          "internalType": "string[]",
          "name": "",
          "type": "string[]"
        }
      ],
      "payable": false,
      "stateMutability": "view",
      "type": "function"
    },
    {
      "constant": true,
      "inputs": [
        {
          "internalType": "uint256",
          "name": "_id",
          "type": "uint256"
        }
      ],
      "name": "getVideoHash",
      "outputs": [
        {
          "internalType": "string",
          "name": "",
          "type": "string"
        }
      ],
      "payable": false,
      "stateMutability": "view",
      "type": "function"
    },
    {
      "constant": true,
      "inputs": [
        {
          "internalType": "uint256",
          "name": "_id",
          "type": "uint256"
        }
      ],
      "name": "getVideoTitle",
      "outputs": [
        {
          "internalType": "string",
          "name": "",
          "type": "string"
        }
      ],
      "payable": false,
      "stateMutability": "view",
      "type": "function"
    },
    {
      "constant": true,
      "inputs": [
        {
          "internalType": "string",
          "name": "_publicKey",
          "type": "string"
        },
        {
          "internalType": "string",
          "name": "_playlist",
          "type": "string"
        }
      ],
      "name": "getUserPlaylist",
      "outputs": [
        {
          "internalType": "uint256[]",
          "name": "",
          "type": "uint256[]"
        }
      ],
      "payable": false,
      "stateMutability": "view",
      "type": "function"
    },
    {
      "constant": true,
      "inputs": [
        {
          "internalType": "string",
          "name": "_publicKey",
          "type": "string"
        }
      ],
      "name": "getUserVideos",
      "outputs": [
        {
          "internalType": "uint256[]",
          "name": "",
          "type": "uint256[]"
        }
      ],
      "payable": false,
      "stateMutability": "view",
      "type": "function"
    },
    {
      "constant": true,
      "inputs": [
        {
          "internalType": "uint256",
          "name": "_videoId",
          "type": "uint256"
        }
      ],
      "name": "getVideoComments",
      "outputs": [
        {
          "internalType": "string[]",
          "name": "",
          "type": "string[]"
        }
      ],
      "payable": false,
      "stateMutability": "view",
      "type": "function"
    },
    {
      "constant": false,
      "inputs": [
        {
          "internalType": "string",
          "name": "_userName",
          "type": "string"
        },
        {
          "internalType": "string",
          "name": "_publicKey",
          "type": "string"
        }
      ],
      "name": "signup",
      "outputs": [],
      "payable": false,
      "stateMutability": "nonpayable",
      "type": "function"
    },
    {
      "constant": false,
      "inputs": [
        {
          "internalType": "string[]",
          "name": "_type",
          "type": "string[]"
        },
        {
          "internalType": "string[]",
          "name": "_userId",
          "type": "string[]"
        },
        {
          "internalType": "string[]",
          "name": "_timestamp",
          "type": "string[]"
        },
        {
          "internalType": "string[][]",
          "name": "_params",
          "type": "string[][]"
        }
      ],
      "name": "transactions",
      "outputs": [],
      "payable": false,
      "stateMutability": "nonpayable",
      "type": "function"
    },
    {
      "constant": false,
      "inputs": [
        {
          "internalType": "uint256",
          "name": "_videoId",
          "type": "uint256"
        }
      ],
      "name": "watch",
      "outputs": [],
      "payable": false,
      "stateMutability": "nonpayable",
      "type": "function"
    },
    {
      "constant": false,
      "inputs": [
        {
          "internalType": "string",
          "name": "_userId",
          "type": "string"
        },
        {
          "internalType": "uint256",
          "name": "_videoId",
          "type": "uint256"
        }
      ],
      "name": "like",
      "outputs": [],
      "payable": false,
      "stateMutability": "nonpayable",
      "type": "function"
    },
    {
      "constant": false,
      "inputs": [
        {
          "internalType": "string",
          "name": "_userId",
          "type": "string"
        },
        {
          "internalType": "uint256",
          "name": "_videoId",
          "type": "uint256"
        }
      ],
      "name": "save",
      "outputs": [],
      "payable": false,
      "stateMutability": "nonpayable",
      "type": "function"
    },
    {
      "constant": false,
      "inputs": [
        {
          "internalType": "uint256",
          "name": "_videoId",
          "type": "uint256"
        },
        {
          "internalType": "string",
          "name": "_comment",
          "type": "string"
        }
      ],
      "name": "comment",
      "outputs": [],
      "payable": false,
      "stateMutability": "nonpayable",
      "type": "function"
    },
    {
      "constant": false,
      "inputs": [
        {
          "internalType": "string",
          "name": "_userId",
          "type": "string"
        },
        {
          "internalType": "string",
          "name": "_subscribedUserId",
          "type": "string"
        }
      ],
      "name": "subscribe",
      "outputs": [],
      "payable": false,
      "stateMutability": "nonpayable",
      "type": "function"
    },
    {
      "constant": false,
      "inputs": [
        {
          "internalType": "string",
          "name": "_hash",
          "type": "string"
        },
        {
          "internalType": "string",
          "name": "_title",
          "type": "string"
        },
        {
          "internalType": "string",
          "name": "_time",
          "type": "string"
        },
        {
          "internalType": "string",
          "name": "_description",
          "type": "string"
        },
        {
          "internalType": "uint256",
          "name": "_tags",
          "type": "uint256"
        },
        {
          "internalType": "string",
          "name": "_creatorId",
          "type": "string"
        }
      ],
      "name": "uploadVideo",
      "outputs": [],
      "payable": false,
      "stateMutability": "nonpayable",
      "type": "function"
    },
    {
      "constant": true,
      "inputs": [
        {
          "internalType": "string",
          "name": "s",
          "type": "string"
        }
      ],
      "name": "stringToUint",
      "outputs": [
        {
          "internalType": "uint256",
          "name": "result",
          "type": "uint256"
        }
      ],
      "payable": false,
      "stateMutability": "pure",
      "type": "function"
    }
  ],
  "bytecode": "0x60806040526000805560006001556040518060400160405280600781526020017f5072696d61727900000000000000000000000000000000000000000000000000815250600290805190602001906200005a9291906200006f565b503480156200006857600080fd5b506200011e565b828054600181600116156101000203166002900490600052602060002090601f016020900481019282601f10620000b257805160ff1916838001178555620000e3565b82800160010185558215620000e3579182015b82811115620000e2578251825591602001919060010190620000c5565b5b509050620000f29190620000f6565b5090565b6200011b91905b8082111562000117576000816000905550600101620000fd565b5090565b90565b61315e806200012e6000396000f3fe608060405234801561001057600080fd5b50600436106101da5760003560e01c80636ba13a82116101045780639e227b10116100a2578063c00f123d11610071578063c00f123d14610605578063c61b5f4c14610635578063daf6160c14610653578063f676f06b14610683576101da565b80639e227b1014610559578063ae32ddef14610589578063b66cab0f146105b9578063bbd5cf2f146105e9576101da565b80637d8379b8116100de5780637d8379b8146104975780637e642989146104c95780638ab3116a146104f95780638caffd9b14610529576101da565b80636ba13a821461042d5780637228c6e01461044b5780637c47d2621461047b576101da565b80631bd951551161017c57806332fca8811161014b57806332fca881146103a9578063346d4d66146103d95780633c04c015146103f557806347e70e6414610411576101da565b80631bd95155146102e9578063228528451461031957806329b75422146103495780632e2c6a5914610379576101da565b8063109c5fed116101b8578063109c5fed14610251578063138b07871461026d578063163932041461029d5780631805c523146102cd576101da565b806305f79ed8146101df57806306fdde031461021757806307dba6bf14610235575b600080fd5b6101f960048036036101f491908101906127e0565b6106b3565b60405161020e99989796959493929190612e45565b60405180910390f35b61021f6109f9565b60405161022c9190612da1565b60405180910390f35b61024f600480360361024a9190810190612738565b610a97565b005b61026b600480360361026691908101906127e0565b610b00565b005b61028760048036036102829190810190612549565b610b29565b6040516102949190612e2a565b60405180910390f35b6102b760048036036102b291908101906127e0565b610b57565b6040516102c49190612e2a565b60405180910390f35b6102e760048036036102e29190810190612809565b610b78565b005b61030360048036036102fe919081019061258a565b610bcf565b6040516103109190612e2a565b60405180910390f35b610333600480360361032e919081019061258a565b610c42565b6040516103409190612d5d565b60405180910390f35b610363600480360361035e91908101906125cb565b610d4c565b6040516103709190612d7f565b60405180910390f35b610393600480360361038e919081019061258a565b610de2565b6040516103a09190612d7f565b60405180910390f35b6103c360048036036103be91908101906127e0565b610e58565b6040516103d09190612e2a565b60405180910390f35b6103f360048036036103ee9190810190612486565b610e79565b005b61040f600480360361040a9190810190612738565b611365565b005b61042b600480360361042691908101906125cb565b6113f4565b005b6104356114e4565b6040516104429190612e2a565b60405180910390f35b6104656004803603610460919081019061258a565b6114ea565b6040516104729190612dc3565b60405180910390f35b61049560048036036104909190810190612637565b6115ad565b005b6104b160048036036104ac9190810190612549565b6118a2565b6040516104c093929190612de5565b60405180910390f35b6104e360048036036104de919081019061278c565b611a12565b6040516104f09190612e2a565b60405180910390f35b610513600480360361050e91908101906127e0565b611a56565b6040516105209190612d7f565b60405180910390f35b610543600480360361053e91908101906127e0565b611c43565b6040516105509190612dc3565b60405180910390f35b610573600480360361056e9190810190612549565b611cfb565b6040516105809190612da1565b60405180910390f35b6105a3600480360361059e91908101906127e0565b611dc1565b6040516105b09190612e2a565b60405180910390f35b6105d360048036036105ce91908101906127e0565b611de2565b6040516105e09190612e2a565b60405180910390f35b61060360048036036105fe91908101906125cb565b611e03565b005b61061f600480360361061a91908101906127e0565b611e96565b60405161062c9190612e2a565b60405180910390f35b61063d611eb7565b60405161064a9190612e2a565b60405180910390f35b61066d600480360361066891908101906127e0565b611ebd565b60405161067a9190612d5d565b60405180910390f35b61069d600480360361069891908101906127e0565b611fbc565b6040516106aa9190612dc3565b60405180910390f35b6003602052806000526040600020600091509050806000015490806001018054600181600116156101000203166002900480601f0160208091040260200160405190810160405280929190818152602001828054600181600116156101000203166002900480156107655780601f1061073a57610100808354040283529160200191610765565b820191906000526020600020905b81548152906001019060200180831161074857829003601f168201915b505050505090806002018054600181600116156101000203166002900480601f0160208091040260200160405190810160405280929190818152602001828054600181600116156101000203166002900480156108035780601f106107d857610100808354040283529160200191610803565b820191906000526020600020905b8154815290600101906020018083116107e657829003601f168201915b505050505090806003018054600181600116156101000203166002900480601f0160208091040260200160405190810160405280929190818152602001828054600181600116156101000203166002900480156108a15780601f10610876576101008083540402835291602001916108a1565b820191906000526020600020905b81548152906001019060200180831161088457829003601f168201915b505050505090806004018054600181600116156101000203166002900480601f01602080910402602001604051908101604052809291908181526020018280546001816001161561010002031660029004801561093f5780601f106109145761010080835404028352916020019161093f565b820191906000526020600020905b81548152906001019060200180831161092257829003601f168201915b505050505090806006015490806007015490806008015490806009018054600181600116156101000203166002900480601f0160208091040260200160405190810160405280929190818152602001828054600181600116156101000203166002900480156109ef5780601f106109c4576101008083540402835291602001916109ef565b820191906000526020600020905b8154815290600101906020018083116109d257829003601f168201915b5050505050905089565b60028054600181600116156101000203166002900480601f016020809104026020016040519081016040528092919081815260200182805460018160011615610100020316600290048015610a8f5780601f10610a6457610100808354040283529160200191610a8f565b820191906000526020600020905b815481529060010190602001808311610a7257829003601f168201915b505050505081565b600b82604051610aa79190612c9e565b9081526020016040518091039020600401604051610ac490612cca565b90815260200160405180910390208190806001815401808255809150509060018203906000526020600020016000909192909190915055505050565b600360008281526020019081526020016000206006016000815480929190600101919050555050565b6009818051602081018201805184825260208301602085012081835280955050505050506000915090505481565b60088181548110610b6457fe5b906000526020600020016000915090505481565b60036000838152602001908152602001600020600501819080600181540180825580915050906001820390600052602060002001600090919290919091509080519060200190610bc9929190612074565b50505050565b600060608290506000809250600090505b8151811015610c3b576000828281518110610bf757fe5b602001015160f81c60f81b60f81c60ff16905060308110158015610c1c575060398111155b15610c2d5760308103600a85020193505b508080600101915050610be0565b5050919050565b6060600b82604051610c549190612c9e565b9081526020016040518091039020600201805480602002602001604051908101604052809291908181526020016000905b82821015610d41578382906000526020600020018054600181600116156101000203166002900480601f016020809104026020016040519081016040528092919081815260200182805460018160011615610100020316600290048015610d2d5780601f10610d0257610100808354040283529160200191610d2d565b820191906000526020600020905b815481529060010190602001808311610d1057829003601f168201915b505050505081526020019060010190610c85565b505050509050919050565b6060600b83604051610d5e9190612c9e565b908152602001604051809103902060040182604051610d7d9190612c9e565b9081526020016040518091039020805480602002602001604051908101604052809291908181526020018280548015610dd557602002820191906000526020600020905b815481526020019060010190808311610dc1575b5050505050905092915050565b6060600a82604051610df49190612c9e565b9081526020016040518091039020805480602002602001604051908101604052809291908181526020018280548015610e4c57602002820191906000526020600020905b815481526020019060010190808311610e38575b50505050509050919050565b60058181548110610e6557fe5b906000526020600020016000915090505481565b60008090505b845181101561135e57604051602001610e9790612cf4565b60405160208183030381529060405280519060200120858281518110610eb957fe5b6020026020010151604051602001610ed19190612c87565b604051602081830303815290604052805190602001201415610f2a57610f25610f20838381518110610eff57fe5b6020026020010151600081518110610f1357fe5b6020026020010151610bcf565b610b00565b611351565b604051602001610f3990612cb5565b60405160208183030381529060405280519060200120858281518110610f5b57fe5b6020026020010151604051602001610f739190612c87565b604051602081830303815290604052805190602001201415610fe057610fdb848281518110610f9e57fe5b6020026020010151610fd6848481518110610fb557fe5b6020026020010151600081518110610fc957fe5b6020026020010151610bcf565b611365565b611350565b604051602001610fef90612d48565b6040516020818303038152906040528051906020012085828151811061101157fe5b60200260200101516040516020016110299190612c87565b6040516020818303038152906040528051906020012014156110aa576110a561107883838151811061105757fe5b602002602001015160008151811061106b57fe5b6020026020010151610bcf565b83838151811061108457fe5b602002602001015160018151811061109857fe5b6020026020010151610b78565b61134f565b6040516020016110b990612d33565b604051602081830303815290604052805190602001208582815181106110db57fe5b60200260200101516040516020016110f39190612c87565b6040516020818303038152906040528051906020012014156111585761115384828151811061111e57fe5b602002602001015183838151811061113257fe5b602002602001015160008151811061114657fe5b6020026020010151611e03565b61134e565b60405160200161116790612d1e565b6040516020818303038152906040528051906020012085828151811061118957fe5b60200260200101516040516020016111a19190612c87565b60405160208183030381529060405280519060200120141561120e576112098482815181106111cc57fe5b60200260200101516112048484815181106111e357fe5b60200260200101516000815181106111f757fe5b6020026020010151610bcf565b610a97565b61134d565b60405160200161121d90612d09565b6040516020818303038152906040528051906020012085828151811061123f57fe5b60200260200101516040516020016112579190612c87565b60405160208183030381529060405280519060200120141561134c5761134b82828151811061128257fe5b602002602001015160038151811061129657fe5b60200260200101518383815181106112aa57fe5b60200260200101516000815181106112be57fe5b60200260200101518584815181106112d257fe5b60200260200101518585815181106112e657fe5b60200260200101516001815181106112fa57fe5b602002602001015161133287878151811061131157fe5b602002602001015160028151811061132557fe5b6020026020010151610bcf565b89878151811061133e57fe5b60200260200101516115ad565b5b5b5b5b5b5b8080600101915050610e7f565b5050505050565b6003600082815260200190815260200160002060070160008154809291906001019190505550600b8260405161139b9190612c9e565b90815260200160405180910390206004016040516113b890612cdf565b90815260200160405180910390208190806001815401808255809150509060018203906000526020600020016000909192909190915055505050565b600160008154809291906001019190505550606060405180608001604052808381526020018481526020018281526020016000815250600b8360405161143a9190612c9e565b908152602001604051809103902060008201518160000190805190602001906114649291906120f4565b5060208201518160010190805190602001906114819291906120f4565b50604082015181600201908051906020019061149e929190612174565b506060820151816003015590505081600c846040516114bd9190612c9e565b908152602001604051809103902090805190602001906114de929190612074565b50505050565b60015481565b6060600b826040516114fc9190612c9e565b90815260200160405180910390206001018054600181600116156101000203166002900480601f0160208091040260200160405190810160405280929190818152602001828054600181600116156101000203166002900480156115a15780601f10611576576101008083540402835291602001916115a1565b820191906000526020600020905b81548152906001019060200180831161158457829003601f168201915b50505050509050919050565b60008081548092919060010191905055506060604051806101400160405280600054815260200188815260200187815260200186815260200185815260200182815260200160008152602001600081526020018481526020018381525060036000805481526020019081526020016000206000820151816000015560208201518160010190805190602001906116449291906120f4565b5060408201518160020190805190602001906116619291906120f4565b50606082015181600301908051906020019061167e9291906120f4565b50608082015181600401908051906020019061169b9291906120f4565b5060a08201518160050190805190602001906116b8929190612174565b5060c0820151816006015560e0820151816007015561010082015181600801556101208201518160090190805190602001906116f59291906120f4565b5090505060005460098760405161170c9190612c9e565b908152602001604051809103902081905550600a8260405161172e9190612c9e565b90815260200160405180910390206000549080600181540180825580915050906001820390600052602060002001600090919290919091505550600060018416146117a257600460005490806001815401808255809150509060018203906000526020600020016000909192909190915055505b600060018085901c16146117df57600560005490806001815401808255809150509060018203906000526020600020016000909192909190915055505b60006001600285901c161461181d57600660005490806001815401808255809150509060018203906000526020600020016000909192909190915055505b60006001600385901c161461185b57600760005490806001815401808255809150509060018203906000526020600020016000909192909190915055505b60006001600485901c161461189957600860005490806001815401808255809150509060018203906000526020600020016000909192909190915055505b50505050505050565b600b81805160208101820180518482526020830160208501208183528095505050505050600091509050806000018054600181600116156101000203166002900480601f0160208091040260200160405190810160405280929190818152602001828054600181600116156101000203166002900480156119645780601f1061193957610100808354040283529160200191611964565b820191906000526020600020905b81548152906001019060200180831161194757829003601f168201915b505050505090806001018054600181600116156101000203166002900480601f016020809104026020016040519081016040528092919081815260200182805460018160011615610100020316600290048015611a025780601f106119d757610100808354040283529160200191611a02565b820191906000526020600020905b8154815290600101906020018083116119e557829003601f168201915b5050505050908060030154905083565b600a828051602081018201805184825260208301602085012081835280955050505050508181548110611a4157fe5b90600052602060002001600091509150505481565b60606001821415611ab9576004805480602002602001604051908101604052809291908181526020018280548015611aad57602002820191906000526020600020905b815481526020019060010190808311611a99575b50505050509050611c3e565b6002821415611b1a576005805480602002602001604051908101604052809291908181526020018280548015611b0e57602002820191906000526020600020905b815481526020019060010190808311611afa575b50505050509050611c3e565b6003821415611b7b576006805480602002602001604051908101604052809291908181526020018280548015611b6f57602002820191906000526020600020905b815481526020019060010190808311611b5b575b50505050509050611c3e565b6004821415611bdc576007805480602002602001604051908101604052809291908181526020018280548015611bd057602002820191906000526020600020905b815481526020019060010190808311611bbc575b50505050509050611c3e565b6005821415611c3d576008805480602002602001604051908101604052809291908181526020018280548015611c3157602002820191906000526020600020905b815481526020019060010190808311611c1d575b50505050509050611c3e565b5b919050565b6060600360008381526020019081526020016000206002018054600181600116156101000203166002900480601f016020809104026020016040519081016040528092919081815260200182805460018160011615610100020316600290048015611cef5780601f10611cc457610100808354040283529160200191611cef565b820191906000526020600020905b815481529060010190602001808311611cd257829003601f168201915b50505050509050919050565b600c818051602081018201805184825260208301602085012081835280955050505050506000915090508054600181600116156101000203166002900480601f016020809104026020016040519081016040528092919081815260200182805460018160011615610100020316600290048015611db95780601f10611d8e57610100808354040283529160200191611db9565b820191906000526020600020905b815481529060010190602001808311611d9c57829003601f168201915b505050505081565b60078181548110611dce57fe5b906000526020600020016000915090505481565b60048181548110611def57fe5b906000526020600020016000915090505481565b600b82604051611e139190612c9e565b9081526020016040518091039020600201819080600181540180825580915050906001820390600052602060002001600090919290919091509080519060200190611e5f929190612074565b5050600b81604051611e719190612c9e565b9081526020016040518091039020600301600081548092919060010191905055505050565b60068181548110611ea357fe5b906000526020600020016000915090505481565b60005481565b606060036000838152602001908152602001600020600501805480602002602001604051908101604052809291908181526020016000905b82821015611fb1578382906000526020600020018054600181600116156101000203166002900480601f016020809104026020016040519081016040528092919081815260200182805460018160011615610100020316600290048015611f9d5780601f10611f7257610100808354040283529160200191611f9d565b820191906000526020600020905b815481529060010190602001808311611f8057829003601f168201915b505050505081526020019060010190611ef5565b505050509050919050565b6060600360008381526020019081526020016000206001018054600181600116156101000203166002900480601f0160208091040260200160405190810160405280929190818152602001828054600181600116156101000203166002900480156120685780601f1061203d57610100808354040283529160200191612068565b820191906000526020600020905b81548152906001019060200180831161204b57829003601f168201915b50505050509050919050565b828054600181600116156101000203166002900490600052602060002090601f016020900481019282601f106120b557805160ff19168380011785556120e3565b828001600101855582156120e3579182015b828111156120e25782518255916020019190600101906120c7565b5b5090506120f091906121d4565b5090565b828054600181600116156101000203166002900490600052602060002090601f016020900481019282601f1061213557805160ff1916838001178555612163565b82800160010185558215612163579182015b82811115612162578251825591602001919060010190612147565b5b50905061217091906121d4565b5090565b8280548282559060005260206000209081019282156121c3579160200282015b828111156121c25782518290805190602001906121b29291906120f4565b5091602001919060010190612194565b5b5090506121d091906121f9565b5090565b6121f691905b808211156121f25760008160009055506001016121da565b5090565b90565b61222291905b8082111561221e57600081816122159190612225565b506001016121ff565b5090565b90565b50805460018160011615610100020316600290046000825580601f1061224b575061226a565b601f01602090049060005260206000209081019061226991906121d4565b5b50565b600082601f83011261227e57600080fd5b813561229161228c82612f22565b612ef5565b9150818183526020840193506020810190508360005b838110156122d757813586016122bd88826122e1565b8452602084019350602083019250506001810190506122a7565b5050505092915050565b600082601f8301126122f257600080fd5b813561230561230082612f4a565b612ef5565b9150818183526020840193506020810190508360005b8381101561234b578135860161233188826123c9565b84526020840193506020830192505060018101905061231b565b5050505092915050565b600082601f83011261236657600080fd5b813561237961237482612f72565b612ef5565b9150818183526020840193506020810190508360005b838110156123bf57813586016123a588826123c9565b84526020840193506020830192505060018101905061238f565b5050505092915050565b600082601f8301126123da57600080fd5b81356123ed6123e882612f9a565b612ef5565b9150808252602083016020830185838301111561240957600080fd5b6124148382846130b1565b50505092915050565b600082601f83011261242e57600080fd5b813561244161243c82612fc6565b612ef5565b9150808252602083016020830185838301111561245d57600080fd5b6124688382846130b1565b50505092915050565b60008135905061248081613104565b92915050565b6000806000806080858703121561249c57600080fd5b600085013567ffffffffffffffff8111156124b657600080fd5b6124c287828801612355565b945050602085013567ffffffffffffffff8111156124df57600080fd5b6124eb87828801612355565b935050604085013567ffffffffffffffff81111561250857600080fd5b61251487828801612355565b925050606085013567ffffffffffffffff81111561253157600080fd5b61253d8782880161226d565b91505092959194509250565b60006020828403121561255b57600080fd5b600082013567ffffffffffffffff81111561257557600080fd5b612581848285016123c9565b91505092915050565b60006020828403121561259c57600080fd5b600082013567ffffffffffffffff8111156125b657600080fd5b6125c28482850161241d565b91505092915050565b600080604083850312156125de57600080fd5b600083013567ffffffffffffffff8111156125f857600080fd5b6126048582860161241d565b925050602083013567ffffffffffffffff81111561262157600080fd5b61262d8582860161241d565b9150509250929050565b60008060008060008060c0878903121561265057600080fd5b600087013567ffffffffffffffff81111561266a57600080fd5b61267689828a0161241d565b965050602087013567ffffffffffffffff81111561269357600080fd5b61269f89828a0161241d565b955050604087013567ffffffffffffffff8111156126bc57600080fd5b6126c889828a0161241d565b945050606087013567ffffffffffffffff8111156126e557600080fd5b6126f189828a0161241d565b935050608061270289828a01612471565b92505060a087013567ffffffffffffffff81111561271f57600080fd5b61272b89828a0161241d565b9150509295509295509295565b6000806040838503121561274b57600080fd5b600083013567ffffffffffffffff81111561276557600080fd5b6127718582860161241d565b925050602061278285828601612471565b9150509250929050565b6000806040838503121561279f57600080fd5b600083013567ffffffffffffffff8111156127b957600080fd5b6127c5858286016123c9565b92505060206127d685828601612471565b9150509250929050565b6000602082840312156127f257600080fd5b600061280084828501612471565b91505092915050565b6000806040838503121561281c57600080fd5b600061282a85828601612471565b925050602083013567ffffffffffffffff81111561284757600080fd5b6128538582860161241d565b9150509250929050565b600061286983836129c6565b905092915050565b600061287d8383612c69565b60208301905092915050565b600061289482613012565b61289e8185613058565b9350836020820285016128b085612ff2565b8060005b858110156128ec57848403895281516128cd858261285d565b94506128d88361303e565b925060208a019950506001810190506128b4565b50829750879550505050505092915050565b60006129098261301d565b6129138185613069565b935061291e83613002565b8060005b8381101561294f5781516129368882612871565b97506129418361304b565b925050600181019050612922565b5085935050505092915050565b600061296782613033565b612971818561308b565b93506129818185602086016130c0565b61298a816130f3565b840191505092915050565b60006129a082613033565b6129aa818561309c565b93506129ba8185602086016130c0565b80840191505092915050565b60006129d182613028565b6129db818561307a565b93506129eb8185602086016130c0565b6129f4816130f3565b840191505092915050565b6000612a0a82613028565b612a14818561308b565b9350612a248185602086016130c0565b612a2d816130f3565b840191505092915050565b6000612a4382613028565b612a4d818561309c565b9350612a5d8185602086016130c0565b80840191505092915050565b6000612a7660048361309c565b91507f6c696b65000000000000000000000000000000000000000000000000000000006000830152600482019050919050565b6000612ab660058361309c565b91507f6c617465720000000000000000000000000000000000000000000000000000006000830152600582019050919050565b6000612af660058361309c565b91507f6c696b65640000000000000000000000000000000000000000000000000000006000830152600582019050919050565b6000612b3660048361309c565b91507f76696577000000000000000000000000000000000000000000000000000000006000830152600482019050919050565b6000612b7660068361309c565b91507f75706c6f616400000000000000000000000000000000000000000000000000006000830152600682019050919050565b6000612bb660048361309c565b91507f73617665000000000000000000000000000000000000000000000000000000006000830152600482019050919050565b6000612bf660098361309c565b91507f73756273637269626500000000000000000000000000000000000000000000006000830152600982019050919050565b6000612c3660078361309c565b91507f636f6d6d656e74000000000000000000000000000000000000000000000000006000830152600782019050919050565b612c72816130a7565b82525050565b612c81816130a7565b82525050565b6000612c938284612a38565b915081905092915050565b6000612caa8284612995565b915081905092915050565b6000612cc082612a69565b9150819050919050565b6000612cd582612aa9565b9150819050919050565b6000612cea82612ae9565b9150819050919050565b6000612cff82612b29565b9150819050919050565b6000612d1482612b69565b9150819050919050565b6000612d2982612ba9565b9150819050919050565b6000612d3e82612be9565b9150819050919050565b6000612d5382612c29565b9150819050919050565b60006020820190508181036000830152612d778184612889565b905092915050565b60006020820190508181036000830152612d9981846128fe565b905092915050565b60006020820190508181036000830152612dbb81846129ff565b905092915050565b60006020820190508181036000830152612ddd818461295c565b905092915050565b60006060820190508181036000830152612dff81866129ff565b90508181036020830152612e1381856129ff565b9050612e226040830184612c78565b949350505050565b6000602082019050612e3f6000830184612c78565b92915050565b600061012082019050612e5b600083018c612c78565b8181036020830152612e6d818b6129ff565b90508181036040830152612e81818a6129ff565b90508181036060830152612e9581896129ff565b90508181036080830152612ea981886129ff565b9050612eb860a0830187612c78565b612ec560c0830186612c78565b612ed260e0830185612c78565b818103610100830152612ee581846129ff565b90509a9950505050505050505050565b6000604051905081810181811067ffffffffffffffff82111715612f1857600080fd5b8060405250919050565b600067ffffffffffffffff821115612f3957600080fd5b602082029050602081019050919050565b600067ffffffffffffffff821115612f6157600080fd5b602082029050602081019050919050565b600067ffffffffffffffff821115612f8957600080fd5b602082029050602081019050919050565b600067ffffffffffffffff821115612fb157600080fd5b601f19601f8301169050602081019050919050565b600067ffffffffffffffff821115612fdd57600080fd5b601f19601f8301169050602081019050919050565b6000819050602082019050919050565b6000819050602082019050919050565b600081519050919050565b600081519050919050565b600081519050919050565b600081519050919050565b6000602082019050919050565b6000602082019050919050565b600082825260208201905092915050565b600082825260208201905092915050565b600082825260208201905092915050565b600082825260208201905092915050565b600081905092915050565b6000819050919050565b82818337600083830152505050565b60005b838110156130de5780820151818401526020810190506130c3565b838111156130ed576000848401525b50505050565b6000601f19601f8301169050919050565b61310d816130a7565b811461311857600080fd5b5056fea365627a7a72315820ce1f38568e33b6a5d4c1d9feefefd399bcdd5bb72e8c542eea7a37c4f1d6cc0b6c6578706572696d656e74616cf564736f6c63430005100040",
  "source": "pragma solidity ^0.5.16;\r\npragma experimental ABIEncoderV2;\r\n\r\ncontract Primary {\r\n    uint256 public videoCount = 0;\r\n    uint256 public usersCount = 0;\r\n    string public name = \"Primary\";\r\n    mapping(uint256 => Video) public Id_Video;\r\n    uint256[] public Tag1_Videos;\r\n    uint256[] public Tag2_Videos;\r\n    uint256[] public Tag3_Videos;\r\n    uint256[] public Tag4_Videos;\r\n    uint256[] public Tag5_Videos;\r\n    mapping(string => uint256) public Title_Video;\r\n    mapping(string => uint256[]) public User_Videos;\r\n    mapping(string => User) public PublicKey_User;\r\n    mapping(string => string) public UserName_User;\r\n\r\n    struct Video {\r\n        uint256 id;\r\n        string hash;\r\n        string title;\r\n        string time;\r\n        string description;\r\n        string[] comments;\r\n        uint256 views;\r\n        uint256 hearts;\r\n        uint256 tags;\r\n        string creatorId;\r\n    }\r\n\r\n    struct User {\r\n        string publicKey;\r\n        string userName;\r\n        string[] subscriptions;\r\n        uint256 subscribersCount;\r\n        mapping(string => uint256[]) Playlist_Videos;\r\n    }\r\n\r\n    constructor() public {}\r\n\r\n    function getTagsVideos(uint256 _tag)\r\n        public\r\n        view\r\n        returns (uint256[] memory)\r\n    {\r\n        if (_tag == 1) {\r\n            return Tag1_Videos;\r\n        } else if (_tag == 2) {\r\n            return Tag2_Videos;\r\n        } else if (_tag == 3) {\r\n            return Tag3_Videos;\r\n        } else if (_tag == 4) {\r\n            return Tag4_Videos;\r\n        } else if (_tag == 5) {\r\n            return Tag5_Videos;\r\n        }\r\n    }\r\n\r\n    function getUserName(string memory _publicKey)\r\n        public\r\n        view\r\n        returns (string memory)\r\n    {\r\n        return PublicKey_User[_publicKey].userName;\r\n    }\r\n\r\n    function getUserSubscriptions(string memory _publicKey)\r\n        public\r\n        view\r\n        returns (string[] memory)\r\n    {\r\n        return PublicKey_User[_publicKey].subscriptions;\r\n    }\r\n\r\n    function getVideoHash(uint256 _id) public view returns (string memory) {\r\n        return Id_Video[_id].hash;\r\n    }\r\n\r\n    function getVideoTitle(uint256 _id) public view returns (string memory) {\r\n        return Id_Video[_id].title;\r\n    }\r\n\r\n    function getUserPlaylist(string memory _publicKey, string memory _playlist)\r\n        public\r\n        view\r\n        returns (uint256[] memory)\r\n    {\r\n        return PublicKey_User[_publicKey].Playlist_Videos[_playlist];\r\n    }\r\n\r\n    function getUserVideos(string memory _publicKey)\r\n        public\r\n        view\r\n        returns (uint256[] memory)\r\n    {\r\n        return User_Videos[_publicKey];\r\n    }\r\n\r\n    function getVideoComments(uint256 _videoId)\r\n        public\r\n        view\r\n        returns (string[] memory)\r\n    {\r\n        return Id_Video[_videoId].comments;\r\n    }\r\n\r\n    function signup(string memory _userName, string memory _publicKey) public {\r\n        usersCount++;\r\n        string[] memory subscriptions;\r\n        PublicKey_User[_publicKey] = User(\r\n            _publicKey,\r\n            _userName,\r\n            subscriptions,\r\n            0\r\n        );\r\n        UserName_User[_userName] = _publicKey;\r\n    }\r\n\r\n    function transactions(\r\n        string[] memory _type,\r\n        string[] memory _userId,\r\n        string[] memory _timestamp,\r\n        string[][] memory _params\r\n    ) public {\r\n        for (\r\n            uint256 transaction = 0;\r\n            transaction < _type.length;\r\n            transaction++\r\n        ) {\r\n            if (\r\n                keccak256(abi.encodePacked(_type[transaction])) ==\r\n                keccak256(abi.encodePacked(\"view\"))\r\n            ) {\r\n                watch(stringToUint(_params[transaction][0]));\r\n            } else if (\r\n                keccak256(abi.encodePacked(_type[transaction])) ==\r\n                keccak256(abi.encodePacked(\"like\"))\r\n            ) {\r\n                like(\r\n                    _userId[transaction],\r\n                    stringToUint(_params[transaction][0])\r\n                );\r\n            } else if (\r\n                keccak256(abi.encodePacked(_type[transaction])) ==\r\n                keccak256(abi.encodePacked(\"comment\"))\r\n            ) {\r\n                comment(\r\n                    stringToUint(_params[transaction][0]),\r\n                    _params[transaction][1]\r\n                );\r\n            } else if (\r\n                keccak256(abi.encodePacked(_type[transaction])) ==\r\n                keccak256(abi.encodePacked(\"subscribe\"))\r\n            ) {\r\n                subscribe(_userId[transaction], _params[transaction][0]);\r\n            } else if (\r\n                keccak256(abi.encodePacked(_type[transaction])) ==\r\n                keccak256(abi.encodePacked(\"save\"))\r\n            ) {\r\n                save(\r\n                    _userId[transaction],\r\n                    stringToUint(_params[transaction][0])\r\n                );\r\n            } else if (\r\n                keccak256(abi.encodePacked(_type[transaction])) ==\r\n                keccak256(abi.encodePacked(\"upload\"))\r\n            ) {\r\n                uploadVideo(\r\n                    _params[transaction][3],\r\n                    _params[transaction][0],\r\n                    _timestamp[transaction],\r\n                    _params[transaction][1],\r\n                    stringToUint(_params[transaction][2]),\r\n                    _userId[transaction]\r\n                );\r\n            }\r\n        }\r\n    }\r\n\r\n    function watch(uint256 _videoId) public {\r\n        Id_Video[_videoId].views++;\r\n    }\r\n\r\n    function like(string memory _userId, uint256 _videoId) public {\r\n        Id_Video[_videoId].hearts++;\r\n        PublicKey_User[_userId].Playlist_Videos[\"liked\"].push(_videoId);\r\n    }\r\n\r\n    function save(string memory _userId, uint256 _videoId) public {\r\n        PublicKey_User[_userId].Playlist_Videos[\"later\"].push(_videoId);\r\n    }\r\n\r\n    function comment(uint256 _videoId, string memory _comment) public {\r\n        Id_Video[_videoId].comments.push(_comment);\r\n    }\r\n\r\n    function subscribe(string memory _userId, string memory _subscribedUserId)\r\n        public\r\n    {\r\n        PublicKey_User[_userId].subscriptions.push(_subscribedUserId);\r\n        PublicKey_User[_subscribedUserId].subscribersCount++;\r\n    }\r\n\r\n    function uploadVideo(\r\n        string memory _hash,\r\n        string memory _title,\r\n        string memory _time,\r\n        string memory _description,\r\n        uint256 _tags,\r\n        string memory _creatorId\r\n    ) public {\r\n        videoCount++;\r\n        string[] memory comments;\r\n        Id_Video[videoCount] = Video(\r\n            videoCount,\r\n            _hash,\r\n            _title,\r\n            _time,\r\n            _description,\r\n            comments,\r\n            0,\r\n            0,\r\n            _tags,\r\n            _creatorId\r\n        );\r\n        Title_Video[_title] = videoCount;\r\n        User_Videos[_creatorId].push(videoCount);\r\n        if ((_tags & 1) != 0) {\r\n            Tag1_Videos.push(videoCount);\r\n        }\r\n        if ((_tags >> 1) & 1 != 0) {\r\n            Tag2_Videos.push(videoCount);\r\n        }\r\n        if ((_tags >> 2) & 1 != 0) {\r\n            Tag3_Videos.push(videoCount);\r\n        }\r\n        if ((_tags >> 3) & 1 != 0) {\r\n            Tag4_Videos.push(videoCount);\r\n        }\r\n        if ((_tags >> 4) & 1 != 0) {\r\n            Tag5_Videos.push(videoCount);\r\n        }\r\n    }\r\n\r\n    function stringToUint(string memory s)\r\n        public\r\n        pure\r\n        returns (uint256 result)\r\n    {\r\n        bytes memory b = bytes(s);\r\n        uint256 i;\r\n        result = 0;\r\n        for (i = 0; i < b.length; i++) {\r\n            uint256 c = uint256(uint8(b[i]));\r\n            if (c >= 48 && c <= 57) {\r\n                result = result * 10 + (c - 48);\r\n            }\r\n        }\r\n    }\r\n}\r\n",
  "sourcePath": "C:\\College NSIT\\Sem 7\\BTP Dtube\\dvideo\\src\\contracts\\Primary.sol",
  "compiler": {
    "name": "solc",
    "version": "0.5.16+commit.9c3226ce.Emscripten.clang"
  },
  "schemaVersion": "3.4.3",
  "updatedAt": "2021-11-01T12:58:03.198Z",
  "networkType": "ethereum",
  "devdoc": {
    "methods": {}
  },
  "userdoc": {
    "methods": {}
  }
}