{
  "contractName": "Primary",
  "abi": [
    {
      "inputs": [],
      "payable": false,
      "stateMutability": "nonpayable",
      "type": "constructor"
    },
    {
      "constant": true,
      "inputs": [
        {
          "internalType": "uint256",
          "name": "",
          "type": "uint256"
        }
      ],
      "name": "Id_Video",
      "outputs": [
        {
          "internalType": "uint256",
          "name": "id",
          "type": "uint256"
        },
        {
          "internalType": "string",
          "name": "hash",
          "type": "string"
        },
        {
          "internalType": "string",
          "name": "title",
          "type": "string"
        },
        {
          "internalType": "string",
          "name": "time",
          "type": "string"
        },
        {
          "internalType": "string",
          "name": "description",
          "type": "string"
        },
        {
          "internalType": "uint256",
          "name": "views",
          "type": "uint256"
        },
        {
          "internalType": "uint256",
          "name": "hearts",
          "type": "uint256"
        },
        {
          "internalType": "uint256",
          "name": "tags",
          "type": "uint256"
        },
        {
          "internalType": "string",
          "name": "creatorId",
          "type": "string"
        }
      ],
      "payable": false,
      "stateMutability": "view",
      "type": "function"
    },
    {
      "constant": true,
      "inputs": [
        {
          "internalType": "string",
          "name": "",
          "type": "string"
        }
      ],
      "name": "PublicKey_User",
      "outputs": [
        {
          "internalType": "string",
          "name": "publicKey",
          "type": "string"
        },
        {
          "internalType": "string",
          "name": "userName",
          "type": "string"
        },
        {
          "internalType": "uint256",
          "name": "subscribersCount",
          "type": "uint256"
        }
      ],
      "payable": false,
      "stateMutability": "view",
      "type": "function"
    },
    {
      "constant": true,
      "inputs": [
        {
          "internalType": "uint256",
          "name": "",
          "type": "uint256"
        }
      ],
      "name": "Tag1_Videos",
      "outputs": [
        {
          "internalType": "uint256",
          "name": "",
          "type": "uint256"
        }
      ],
      "payable": false,
      "stateMutability": "view",
      "type": "function"
    },
    {
      "constant": true,
      "inputs": [
        {
          "internalType": "uint256",
          "name": "",
          "type": "uint256"
        }
      ],
      "name": "Tag2_Videos",
      "outputs": [
        {
          "internalType": "uint256",
          "name": "",
          "type": "uint256"
        }
      ],
      "payable": false,
      "stateMutability": "view",
      "type": "function"
    },
    {
      "constant": true,
      "inputs": [
        {
          "internalType": "uint256",
          "name": "",
          "type": "uint256"
        }
      ],
      "name": "Tag3_Videos",
      "outputs": [
        {
          "internalType": "uint256",
          "name": "",
          "type": "uint256"
        }
      ],
      "payable": false,
      "stateMutability": "view",
      "type": "function"
    },
    {
      "constant": true,
      "inputs": [
        {
          "internalType": "uint256",
          "name": "",
          "type": "uint256"
        }
      ],
      "name": "Tag4_Videos",
      "outputs": [
        {
          "internalType": "uint256",
          "name": "",
          "type": "uint256"
        }
      ],
      "payable": false,
      "stateMutability": "view",
      "type": "function"
    },
    {
      "constant": true,
      "inputs": [
        {
          "internalType": "uint256",
          "name": "",
          "type": "uint256"
        }
      ],
      "name": "Tag5_Videos",
      "outputs": [
        {
          "internalType": "uint256",
          "name": "",
          "type": "uint256"
        }
      ],
      "payable": false,
      "stateMutability": "view",
      "type": "function"
    },
    {
      "constant": true,
      "inputs": [
        {
          "internalType": "string",
          "name": "",
          "type": "string"
        },
        {
          "internalType": "uint256",
          "name": "",
          "type": "uint256"
        }
      ],
      "name": "Title_Video",
      "outputs": [
        {
          "internalType": "uint256",
          "name": "",
          "type": "uint256"
        }
      ],
      "payable": false,
      "stateMutability": "view",
      "type": "function"
    },
    {
      "constant": true,
      "inputs": [
        {
          "internalType": "string",
          "name": "",
          "type": "string"
        }
      ],
      "name": "UserName_User",
      "outputs": [
        {
          "internalType": "string",
          "name": "",
          "type": "string"
        }
      ],
      "payable": false,
      "stateMutability": "view",
      "type": "function"
    },
    {
      "constant": true,
      "inputs": [
        {
          "internalType": "string",
          "name": "",
          "type": "string"
        },
        {
          "internalType": "uint256",
          "name": "",
          "type": "uint256"
        }
      ],
      "name": "User_Videos",
      "outputs": [
        {
          "internalType": "uint256",
          "name": "",
          "type": "uint256"
        }
      ],
      "payable": false,
      "stateMutability": "view",
      "type": "function"
    },
    {
      "constant": true,
      "inputs": [],
      "name": "name",
      "outputs": [
        {
          "internalType": "string",
          "name": "",
          "type": "string"
        }
      ],
      "payable": false,
      "stateMutability": "view",
      "type": "function"
    },
    {
      "constant": true,
      "inputs": [],
      "name": "usersCount",
      "outputs": [
        {
          "internalType": "uint256",
          "name": "",
          "type": "uint256"
        }
      ],
      "payable": false,
      "stateMutability": "view",
      "type": "function"
    },
    {
      "constant": true,
      "inputs": [],
      "name": "videoCount",
      "outputs": [
        {
          "internalType": "uint256",
          "name": "",
          "type": "uint256"
        }
      ],
      "payable": false,
      "stateMutability": "view",
      "type": "function"
    },
    {
      "constant": true,
      "inputs": [
        {
          "internalType": "uint256",
          "name": "_tag",
          "type": "uint256"
        }
      ],
      "name": "getTagsVideos",
      "outputs": [
        {
          "internalType": "uint256[]",
          "name": "",
          "type": "uint256[]"
        }
      ],
      "payable": false,
      "stateMutability": "view",
      "type": "function"
    },
    {
      "constant": true,
      "inputs": [
        {
          "internalType": "string",
          "name": "_publicKey",
          "type": "string"
        }
      ],
      "name": "getUserName",
      "outputs": [
        {
          "internalType": "string",
          "name": "",
          "type": "string"
        }
      ],
      "payable": false,
      "stateMutability": "view",
      "type": "function"
    },
    {
      "constant": true,
      "inputs": [
        {
          "internalType": "string",
          "name": "_publicKey",
          "type": "string"
        }
      ],
      "name": "getUserSubscriptions",
      "outputs": [
        {
          "internalType": "string[]",
          "name": "",
          "type": "string[]"
        }
      ],
      "payable": false,
      "stateMutability": "view",
      "type": "function"
    },
    {
      "constant": true,
      "inputs": [
        {
          "internalType": "uint256",
          "name": "_id",
          "type": "uint256"
        }
      ],
      "name": "getVideoHash",
      "outputs": [
        {
          "internalType": "string",
          "name": "",
          "type": "string"
        }
      ],
      "payable": false,
      "stateMutability": "view",
      "type": "function"
    },
    {
      "constant": true,
      "inputs": [
        {
          "internalType": "uint256",
          "name": "_id",
          "type": "uint256"
        }
      ],
      "name": "getVideoTitle",
      "outputs": [
        {
          "internalType": "string",
          "name": "",
          "type": "string"
        }
      ],
      "payable": false,
      "stateMutability": "view",
      "type": "function"
    },
    {
      "constant": true,
      "inputs": [
        {
          "internalType": "string",
          "name": "title",
          "type": "string"
        }
      ],
      "name": "getVideo",
      "outputs": [
        {
          "internalType": "uint256[]",
          "name": "",
          "type": "uint256[]"
        }
      ],
      "payable": false,
      "stateMutability": "view",
      "type": "function"
    },
    {
      "constant": true,
      "inputs": [
        {
          "internalType": "string",
          "name": "_publicKey",
          "type": "string"
        },
        {
          "internalType": "string",
          "name": "_playlist",
          "type": "string"
        }
      ],
      "name": "getUserPlaylist",
      "outputs": [
        {
          "internalType": "uint256[]",
          "name": "",
          "type": "uint256[]"
        }
      ],
      "payable": false,
      "stateMutability": "view",
      "type": "function"
    },
    {
      "constant": true,
      "inputs": [
        {
          "internalType": "string",
          "name": "_publicKey",
          "type": "string"
        }
      ],
      "name": "getUserVideos",
      "outputs": [
        {
          "internalType": "uint256[]",
          "name": "",
          "type": "uint256[]"
        }
      ],
      "payable": false,
      "stateMutability": "view",
      "type": "function"
    },
    {
      "constant": true,
      "inputs": [
        {
          "internalType": "uint256",
          "name": "_videoId",
          "type": "uint256"
        }
      ],
      "name": "getVideoComments",
      "outputs": [
        {
          "internalType": "string[]",
          "name": "",
          "type": "string[]"
        }
      ],
      "payable": false,
      "stateMutability": "view",
      "type": "function"
    },
    {
      "constant": false,
      "inputs": [
        {
          "internalType": "string",
          "name": "_userName",
          "type": "string"
        },
        {
          "internalType": "string",
          "name": "_publicKey",
          "type": "string"
        }
      ],
      "name": "signup",
      "outputs": [],
      "payable": false,
      "stateMutability": "nonpayable",
      "type": "function"
    },
    {
      "constant": false,
      "inputs": [
        {
          "internalType": "string[]",
          "name": "_type",
          "type": "string[]"
        },
        {
          "internalType": "string[]",
          "name": "_userId",
          "type": "string[]"
        },
        {
          "internalType": "string[]",
          "name": "_timestamp",
          "type": "string[]"
        },
        {
          "internalType": "string[][]",
          "name": "_params",
          "type": "string[][]"
        }
      ],
      "name": "transactions",
      "outputs": [],
      "payable": false,
      "stateMutability": "nonpayable",
      "type": "function"
    },
    {
      "constant": false,
      "inputs": [
        {
          "internalType": "uint256",
          "name": "_videoId",
          "type": "uint256"
        }
      ],
      "name": "watch",
      "outputs": [],
      "payable": false,
      "stateMutability": "nonpayable",
      "type": "function"
    },
    {
      "constant": false,
      "inputs": [
        {
          "internalType": "string",
          "name": "_userId",
          "type": "string"
        },
        {
          "internalType": "uint256",
          "name": "_videoId",
          "type": "uint256"
        }
      ],
      "name": "like",
      "outputs": [],
      "payable": false,
      "stateMutability": "nonpayable",
      "type": "function"
    },
    {
      "constant": false,
      "inputs": [
        {
          "internalType": "string",
          "name": "_userId",
          "type": "string"
        },
        {
          "internalType": "uint256",
          "name": "_videoId",
          "type": "uint256"
        }
      ],
      "name": "save",
      "outputs": [],
      "payable": false,
      "stateMutability": "nonpayable",
      "type": "function"
    },
    {
      "constant": false,
      "inputs": [
        {
          "internalType": "uint256",
          "name": "_videoId",
          "type": "uint256"
        },
        {
          "internalType": "string",
          "name": "_comment",
          "type": "string"
        }
      ],
      "name": "comment",
      "outputs": [],
      "payable": false,
      "stateMutability": "nonpayable",
      "type": "function"
    },
    {
      "constant": false,
      "inputs": [
        {
          "internalType": "string",
          "name": "_userId",
          "type": "string"
        },
        {
          "internalType": "string",
          "name": "_subscribedUserId",
          "type": "string"
        }
      ],
      "name": "subscribe",
      "outputs": [],
      "payable": false,
      "stateMutability": "nonpayable",
      "type": "function"
    },
    {
      "constant": false,
      "inputs": [
        {
          "internalType": "string",
          "name": "_hash",
          "type": "string"
        },
        {
          "internalType": "string",
          "name": "_title",
          "type": "string"
        },
        {
          "internalType": "string",
          "name": "_time",
          "type": "string"
        },
        {
          "internalType": "string",
          "name": "_description",
          "type": "string"
        },
        {
          "internalType": "uint256",
          "name": "_tags",
          "type": "uint256"
        },
        {
          "internalType": "string",
          "name": "_creatorId",
          "type": "string"
        }
      ],
      "name": "uploadVideo",
      "outputs": [],
      "payable": false,
      "stateMutability": "nonpayable",
      "type": "function"
    },
    {
      "constant": true,
      "inputs": [
        {
          "internalType": "string",
          "name": "s",
          "type": "string"
        }
      ],
      "name": "stringToUint",
      "outputs": [
        {
          "internalType": "uint256",
          "name": "result",
          "type": "uint256"
        }
      ],
      "payable": false,
      "stateMutability": "pure",
      "type": "function"
    }
  ],
  "bytecode": "0x60806040526000805560006001556040518060400160405280600781526020017f5072696d61727900000000000000000000000000000000000000000000000000815250600290805190602001906200005a9291906200006f565b503480156200006857600080fd5b506200011e565b828054600181600116156101000203166002900490600052602060002090601f016020900481019282601f10620000b257805160ff1916838001178555620000e3565b82800160010185558215620000e3579182015b82811115620000e2578251825591602001919060010190620000c5565b5b509050620000f29190620000f6565b5090565b6200011b91905b8082111562000117576000816000905550600101620000fd565b5090565b90565b61324a806200012e6000396000f3fe608060405234801561001057600080fd5b50600436106101e55760003560e01c80637228c6e01161010f578063ae32ddef116100a2578063c00f123d11610071578063c00f123d14610640578063c61b5f4c14610670578063daf6160c1461068e578063f676f06b146106be576101e5565b8063ae32ddef14610594578063b66cab0f146105c4578063b71f7d09146105f4578063bbd5cf2f14610624576101e5565b80638ab3116a116100de5780638ab3116a146104d45780638caffd9b14610504578063972dc5a2146105345780639e227b1014610564576101e5565b80637228c6e0146104265780637c47d262146104565780637d8379b8146104725780637e642989146104a4576101e5565b80632285284511610187578063346d4d6611610156578063346d4d66146103b45780633c04c015146103d057806347e70e64146103ec5780636ba13a8214610408576101e5565b806322852845146102f457806329b75422146103245780632e2c6a591461035457806332fca88114610384576101e5565b8063109c5fed116101c3578063109c5fed1461025c57806316393204146102785780631805c523146102a85780631bd95155146102c4576101e5565b806305f79ed8146101ea57806306fdde031461022257806307dba6bf14610240575b600080fd5b61020460048036036101ff91908101906128cc565b6106ee565b60405161021999989796959493929190612f31565b60405180910390f35b61022a610a34565b6040516102379190612e8d565b60405180910390f35b61025a60048036036102559190810190612824565b610ad2565b005b610276600480360361027191908101906128cc565b610b3b565b005b610292600480360361028d91908101906128cc565b610b64565b60405161029f9190612f16565b60405180910390f35b6102c260048036036102bd91908101906128f5565b610b85565b005b6102de60048036036102d99190810190612676565b610bdc565b6040516102eb9190612f16565b60405180910390f35b61030e60048036036103099190810190612676565b610c4f565b60405161031b9190612e49565b60405180910390f35b61033e600480360361033991908101906126b7565b610d59565b60405161034b9190612e6b565b60405180910390f35b61036e60048036036103699190810190612676565b610def565b60405161037b9190612e6b565b60405180910390f35b61039e600480360361039991908101906128cc565b610e65565b6040516103ab9190612f16565b60405180910390f35b6103ce60048036036103c99190810190612572565b610e86565b005b6103ea60048036036103e59190810190612824565b611372565b005b610406600480360361040191908101906126b7565b611401565b005b6104106114f1565b60405161041d9190612f16565b60405180910390f35b610440600480360361043b9190810190612676565b6114f7565b60405161044d9190612eaf565b60405180910390f35b610470600480360361046b9190810190612723565b6115ba565b005b61048c60048036036104879190810190612635565b6118d4565b60405161049b93929190612ed1565b60405180910390f35b6104be60048036036104b99190810190612878565b611a44565b6040516104cb9190612f16565b60405180910390f35b6104ee60048036036104e991908101906128cc565b611a88565b6040516104fb9190612e6b565b60405180910390f35b61051e600480360361051991908101906128cc565b611c75565b60405161052b9190612eaf565b60405180910390f35b61054e60048036036105499190810190612676565b611d2d565b60405161055b9190612e6b565b60405180910390f35b61057e60048036036105799190810190612635565b611da3565b60405161058b9190612e8d565b60405180910390f35b6105ae60048036036105a991908101906128cc565b611e69565b6040516105bb9190612f16565b60405180910390f35b6105de60048036036105d991908101906128cc565b611e8a565b6040516105eb9190612f16565b60405180910390f35b61060e60048036036106099190810190612878565b611eab565b60405161061b9190612f16565b60405180910390f35b61063e600480360361063991908101906126b7565b611eef565b005b61065a600480360361065591908101906128cc565b611f82565b6040516106679190612f16565b60405180910390f35b610678611fa3565b6040516106859190612f16565b60405180910390f35b6106a860048036036106a391908101906128cc565b611fa9565b6040516106b59190612e49565b60405180910390f35b6106d860048036036106d391908101906128cc565b6120a8565b6040516106e59190612eaf565b60405180910390f35b6003602052806000526040600020600091509050806000015490806001018054600181600116156101000203166002900480601f0160208091040260200160405190810160405280929190818152602001828054600181600116156101000203166002900480156107a05780601f10610775576101008083540402835291602001916107a0565b820191906000526020600020905b81548152906001019060200180831161078357829003601f168201915b505050505090806002018054600181600116156101000203166002900480601f01602080910402602001604051908101604052809291908181526020018280546001816001161561010002031660029004801561083e5780601f106108135761010080835404028352916020019161083e565b820191906000526020600020905b81548152906001019060200180831161082157829003601f168201915b505050505090806003018054600181600116156101000203166002900480601f0160208091040260200160405190810160405280929190818152602001828054600181600116156101000203166002900480156108dc5780601f106108b1576101008083540402835291602001916108dc565b820191906000526020600020905b8154815290600101906020018083116108bf57829003601f168201915b505050505090806004018054600181600116156101000203166002900480601f01602080910402602001604051908101604052809291908181526020018280546001816001161561010002031660029004801561097a5780601f1061094f5761010080835404028352916020019161097a565b820191906000526020600020905b81548152906001019060200180831161095d57829003601f168201915b505050505090806006015490806007015490806008015490806009018054600181600116156101000203166002900480601f016020809104026020016040519081016040528092919081815260200182805460018160011615610100020316600290048015610a2a5780601f106109ff57610100808354040283529160200191610a2a565b820191906000526020600020905b815481529060010190602001808311610a0d57829003601f168201915b5050505050905089565b60028054600181600116156101000203166002900480601f016020809104026020016040519081016040528092919081815260200182805460018160011615610100020316600290048015610aca5780601f10610a9f57610100808354040283529160200191610aca565b820191906000526020600020905b815481529060010190602001808311610aad57829003601f168201915b505050505081565b600b82604051610ae29190612d8a565b9081526020016040518091039020600401604051610aff90612db6565b90815260200160405180910390208190806001815401808255809150509060018203906000526020600020016000909192909190915055505050565b600360008281526020019081526020016000206006016000815480929190600101919050555050565b60088181548110610b7157fe5b906000526020600020016000915090505481565b60036000838152602001908152602001600020600501819080600181540180825580915050906001820390600052602060002001600090919290919091509080519060200190610bd6929190612160565b50505050565b600060608290506000809250600090505b8151811015610c48576000828281518110610c0457fe5b602001015160f81c60f81b60f81c60ff16905060308110158015610c29575060398111155b15610c3a5760308103600a85020193505b508080600101915050610bed565b5050919050565b6060600b82604051610c619190612d8a565b9081526020016040518091039020600201805480602002602001604051908101604052809291908181526020016000905b82821015610d4e578382906000526020600020018054600181600116156101000203166002900480601f016020809104026020016040519081016040528092919081815260200182805460018160011615610100020316600290048015610d3a5780601f10610d0f57610100808354040283529160200191610d3a565b820191906000526020600020905b815481529060010190602001808311610d1d57829003601f168201915b505050505081526020019060010190610c92565b505050509050919050565b6060600b83604051610d6b9190612d8a565b908152602001604051809103902060040182604051610d8a9190612d8a565b9081526020016040518091039020805480602002602001604051908101604052809291908181526020018280548015610de257602002820191906000526020600020905b815481526020019060010190808311610dce575b5050505050905092915050565b6060600a82604051610e019190612d8a565b9081526020016040518091039020805480602002602001604051908101604052809291908181526020018280548015610e5957602002820191906000526020600020905b815481526020019060010190808311610e45575b50505050509050919050565b60058181548110610e7257fe5b906000526020600020016000915090505481565b60008090505b845181101561136b57604051602001610ea490612de0565b60405160208183030381529060405280519060200120858281518110610ec657fe5b6020026020010151604051602001610ede9190612d73565b604051602081830303815290604052805190602001201415610f3757610f32610f2d838381518110610f0c57fe5b6020026020010151600081518110610f2057fe5b6020026020010151610bdc565b610b3b565b61135e565b604051602001610f4690612da1565b60405160208183030381529060405280519060200120858281518110610f6857fe5b6020026020010151604051602001610f809190612d73565b604051602081830303815290604052805190602001201415610fed57610fe8848281518110610fab57fe5b6020026020010151610fe3848481518110610fc257fe5b6020026020010151600081518110610fd657fe5b6020026020010151610bdc565b611372565b61135d565b604051602001610ffc90612e34565b6040516020818303038152906040528051906020012085828151811061101e57fe5b60200260200101516040516020016110369190612d73565b6040516020818303038152906040528051906020012014156110b7576110b261108583838151811061106457fe5b602002602001015160008151811061107857fe5b6020026020010151610bdc565b83838151811061109157fe5b60200260200101516001815181106110a557fe5b6020026020010151610b85565b61135c565b6040516020016110c690612e1f565b604051602081830303815290604052805190602001208582815181106110e857fe5b60200260200101516040516020016111009190612d73565b6040516020818303038152906040528051906020012014156111655761116084828151811061112b57fe5b602002602001015183838151811061113f57fe5b602002602001015160008151811061115357fe5b6020026020010151611eef565b61135b565b60405160200161117490612e0a565b6040516020818303038152906040528051906020012085828151811061119657fe5b60200260200101516040516020016111ae9190612d73565b60405160208183030381529060405280519060200120141561121b576112168482815181106111d957fe5b60200260200101516112118484815181106111f057fe5b602002602001015160008151811061120457fe5b6020026020010151610bdc565b610ad2565b61135a565b60405160200161122a90612df5565b6040516020818303038152906040528051906020012085828151811061124c57fe5b60200260200101516040516020016112649190612d73565b6040516020818303038152906040528051906020012014156113595761135882828151811061128f57fe5b60200260200101516003815181106112a357fe5b60200260200101518383815181106112b757fe5b60200260200101516000815181106112cb57fe5b60200260200101518584815181106112df57fe5b60200260200101518585815181106112f357fe5b602002602001015160018151811061130757fe5b602002602001015161133f87878151811061131e57fe5b602002602001015160028151811061133257fe5b6020026020010151610bdc565b89878151811061134b57fe5b60200260200101516115ba565b5b5b5b5b5b5b8080600101915050610e8c565b5050505050565b6003600082815260200190815260200160002060070160008154809291906001019190505550600b826040516113a89190612d8a565b90815260200160405180910390206004016040516113c590612dcb565b90815260200160405180910390208190806001815401808255809150509060018203906000526020600020016000909192909190915055505050565b600160008154809291906001019190505550606060405180608001604052808381526020018481526020018281526020016000815250600b836040516114479190612d8a565b908152602001604051809103902060008201518160000190805190602001906114719291906121e0565b50602082015181600101908051906020019061148e9291906121e0565b5060408201518160020190805190602001906114ab929190612260565b506060820151816003015590505081600c846040516114ca9190612d8a565b908152602001604051809103902090805190602001906114eb929190612160565b50505050565b60015481565b6060600b826040516115099190612d8a565b90815260200160405180910390206001018054600181600116156101000203166002900480601f0160208091040260200160405190810160405280929190818152602001828054600181600116156101000203166002900480156115ae5780601f10611583576101008083540402835291602001916115ae565b820191906000526020600020905b81548152906001019060200180831161159157829003601f168201915b50505050509050919050565b60008081548092919060010191905055506060604051806101400160405280600054815260200188815260200187815260200186815260200185815260200182815260200160008152602001600081526020018481526020018381525060036000805481526020019081526020016000206000820151816000015560208201518160010190805190602001906116519291906121e0565b50604082015181600201908051906020019061166e9291906121e0565b50606082015181600301908051906020019061168b9291906121e0565b5060808201518160040190805190602001906116a89291906121e0565b5060a08201518160050190805190602001906116c5929190612260565b5060c0820151816006015560e0820151816007015561010082015181600801556101208201518160090190805190602001906117029291906121e0565b509050506009866040516117169190612d8a565b90815260200160405180910390206000549080600181540180825580915050906001820390600052602060002001600090919290919091505550600a826040516117609190612d8a565b90815260200160405180910390206000549080600181540180825580915050906001820390600052602060002001600090919290919091505550600060018416146117d457600460005490806001815401808255809150509060018203906000526020600020016000909192909190915055505b600060018085901c161461181157600560005490806001815401808255809150509060018203906000526020600020016000909192909190915055505b60006001600285901c161461184f57600660005490806001815401808255809150509060018203906000526020600020016000909192909190915055505b60006001600385901c161461188d57600760005490806001815401808255809150509060018203906000526020600020016000909192909190915055505b60006001600485901c16146118cb57600860005490806001815401808255809150509060018203906000526020600020016000909192909190915055505b50505050505050565b600b81805160208101820180518482526020830160208501208183528095505050505050600091509050806000018054600181600116156101000203166002900480601f0160208091040260200160405190810160405280929190818152602001828054600181600116156101000203166002900480156119965780601f1061196b57610100808354040283529160200191611996565b820191906000526020600020905b81548152906001019060200180831161197957829003601f168201915b505050505090806001018054600181600116156101000203166002900480601f016020809104026020016040519081016040528092919081815260200182805460018160011615610100020316600290048015611a345780601f10611a0957610100808354040283529160200191611a34565b820191906000526020600020905b815481529060010190602001808311611a1757829003601f168201915b5050505050908060030154905083565b600a828051602081018201805184825260208301602085012081835280955050505050508181548110611a7357fe5b90600052602060002001600091509150505481565b60606001821415611aeb576004805480602002602001604051908101604052809291908181526020018280548015611adf57602002820191906000526020600020905b815481526020019060010190808311611acb575b50505050509050611c70565b6002821415611b4c576005805480602002602001604051908101604052809291908181526020018280548015611b4057602002820191906000526020600020905b815481526020019060010190808311611b2c575b50505050509050611c70565b6003821415611bad576006805480602002602001604051908101604052809291908181526020018280548015611ba157602002820191906000526020600020905b815481526020019060010190808311611b8d575b50505050509050611c70565b6004821415611c0e576007805480602002602001604051908101604052809291908181526020018280548015611c0257602002820191906000526020600020905b815481526020019060010190808311611bee575b50505050509050611c70565b6005821415611c6f576008805480602002602001604051908101604052809291908181526020018280548015611c6357602002820191906000526020600020905b815481526020019060010190808311611c4f575b50505050509050611c70565b5b919050565b6060600360008381526020019081526020016000206002018054600181600116156101000203166002900480601f016020809104026020016040519081016040528092919081815260200182805460018160011615610100020316600290048015611d215780601f10611cf657610100808354040283529160200191611d21565b820191906000526020600020905b815481529060010190602001808311611d0457829003601f168201915b50505050509050919050565b6060600982604051611d3f9190612d8a565b9081526020016040518091039020805480602002602001604051908101604052809291908181526020018280548015611d9757602002820191906000526020600020905b815481526020019060010190808311611d83575b50505050509050919050565b600c818051602081018201805184825260208301602085012081835280955050505050506000915090508054600181600116156101000203166002900480601f016020809104026020016040519081016040528092919081815260200182805460018160011615610100020316600290048015611e615780601f10611e3657610100808354040283529160200191611e61565b820191906000526020600020905b815481529060010190602001808311611e4457829003601f168201915b505050505081565b60078181548110611e7657fe5b906000526020600020016000915090505481565b60048181548110611e9757fe5b906000526020600020016000915090505481565b6009828051602081018201805184825260208301602085012081835280955050505050508181548110611eda57fe5b90600052602060002001600091509150505481565b600b82604051611eff9190612d8a565b9081526020016040518091039020600201819080600181540180825580915050906001820390600052602060002001600090919290919091509080519060200190611f4b929190612160565b5050600b81604051611f5d9190612d8a565b9081526020016040518091039020600301600081548092919060010191905055505050565b60068181548110611f8f57fe5b906000526020600020016000915090505481565b60005481565b606060036000838152602001908152602001600020600501805480602002602001604051908101604052809291908181526020016000905b8282101561209d578382906000526020600020018054600181600116156101000203166002900480601f0160208091040260200160405190810160405280929190818152602001828054600181600116156101000203166002900480156120895780601f1061205e57610100808354040283529160200191612089565b820191906000526020600020905b81548152906001019060200180831161206c57829003601f168201915b505050505081526020019060010190611fe1565b505050509050919050565b6060600360008381526020019081526020016000206001018054600181600116156101000203166002900480601f0160208091040260200160405190810160405280929190818152602001828054600181600116156101000203166002900480156121545780601f1061212957610100808354040283529160200191612154565b820191906000526020600020905b81548152906001019060200180831161213757829003601f168201915b50505050509050919050565b828054600181600116156101000203166002900490600052602060002090601f016020900481019282601f106121a157805160ff19168380011785556121cf565b828001600101855582156121cf579182015b828111156121ce5782518255916020019190600101906121b3565b5b5090506121dc91906122c0565b5090565b828054600181600116156101000203166002900490600052602060002090601f016020900481019282601f1061222157805160ff191683800117855561224f565b8280016001018555821561224f579182015b8281111561224e578251825591602001919060010190612233565b5b50905061225c91906122c0565b5090565b8280548282559060005260206000209081019282156122af579160200282015b828111156122ae57825182908051906020019061229e9291906121e0565b5091602001919060010190612280565b5b5090506122bc91906122e5565b5090565b6122e291905b808211156122de5760008160009055506001016122c6565b5090565b90565b61230e91905b8082111561230a57600081816123019190612311565b506001016122eb565b5090565b90565b50805460018160011615610100020316600290046000825580601f106123375750612356565b601f01602090049060005260206000209081019061235591906122c0565b5b50565b600082601f83011261236a57600080fd5b813561237d6123788261300e565b612fe1565b9150818183526020840193506020810190508360005b838110156123c357813586016123a988826123cd565b845260208401935060208301925050600181019050612393565b5050505092915050565b600082601f8301126123de57600080fd5b81356123f16123ec82613036565b612fe1565b9150818183526020840193506020810190508360005b83811015612437578135860161241d88826124b5565b845260208401935060208301925050600181019050612407565b5050505092915050565b600082601f83011261245257600080fd5b81356124656124608261305e565b612fe1565b9150818183526020840193506020810190508360005b838110156124ab578135860161249188826124b5565b84526020840193506020830192505060018101905061247b565b5050505092915050565b600082601f8301126124c657600080fd5b81356124d96124d482613086565b612fe1565b915080825260208301602083018583830111156124f557600080fd5b61250083828461319d565b50505092915050565b600082601f83011261251a57600080fd5b813561252d612528826130b2565b612fe1565b9150808252602083016020830185838301111561254957600080fd5b61255483828461319d565b50505092915050565b60008135905061256c816131f0565b92915050565b6000806000806080858703121561258857600080fd5b600085013567ffffffffffffffff8111156125a257600080fd5b6125ae87828801612441565b945050602085013567ffffffffffffffff8111156125cb57600080fd5b6125d787828801612441565b935050604085013567ffffffffffffffff8111156125f457600080fd5b61260087828801612441565b925050606085013567ffffffffffffffff81111561261d57600080fd5b61262987828801612359565b91505092959194509250565b60006020828403121561264757600080fd5b600082013567ffffffffffffffff81111561266157600080fd5b61266d848285016124b5565b91505092915050565b60006020828403121561268857600080fd5b600082013567ffffffffffffffff8111156126a257600080fd5b6126ae84828501612509565b91505092915050565b600080604083850312156126ca57600080fd5b600083013567ffffffffffffffff8111156126e457600080fd5b6126f085828601612509565b925050602083013567ffffffffffffffff81111561270d57600080fd5b61271985828601612509565b9150509250929050565b60008060008060008060c0878903121561273c57600080fd5b600087013567ffffffffffffffff81111561275657600080fd5b61276289828a01612509565b965050602087013567ffffffffffffffff81111561277f57600080fd5b61278b89828a01612509565b955050604087013567ffffffffffffffff8111156127a857600080fd5b6127b489828a01612509565b945050606087013567ffffffffffffffff8111156127d157600080fd5b6127dd89828a01612509565b93505060806127ee89828a0161255d565b92505060a087013567ffffffffffffffff81111561280b57600080fd5b61281789828a01612509565b9150509295509295509295565b6000806040838503121561283757600080fd5b600083013567ffffffffffffffff81111561285157600080fd5b61285d85828601612509565b925050602061286e8582860161255d565b9150509250929050565b6000806040838503121561288b57600080fd5b600083013567ffffffffffffffff8111156128a557600080fd5b6128b1858286016124b5565b92505060206128c28582860161255d565b9150509250929050565b6000602082840312156128de57600080fd5b60006128ec8482850161255d565b91505092915050565b6000806040838503121561290857600080fd5b60006129168582860161255d565b925050602083013567ffffffffffffffff81111561293357600080fd5b61293f85828601612509565b9150509250929050565b60006129558383612ab2565b905092915050565b60006129698383612d55565b60208301905092915050565b6000612980826130fe565b61298a8185613144565b93508360208202850161299c856130de565b8060005b858110156129d857848403895281516129b98582612949565b94506129c48361312a565b925060208a019950506001810190506129a0565b50829750879550505050505092915050565b60006129f582613109565b6129ff8185613155565b9350612a0a836130ee565b8060005b83811015612a3b578151612a22888261295d565b9750612a2d83613137565b925050600181019050612a0e565b5085935050505092915050565b6000612a538261311f565b612a5d8185613177565b9350612a6d8185602086016131ac565b612a76816131df565b840191505092915050565b6000612a8c8261311f565b612a968185613188565b9350612aa68185602086016131ac565b80840191505092915050565b6000612abd82613114565b612ac78185613166565b9350612ad78185602086016131ac565b612ae0816131df565b840191505092915050565b6000612af682613114565b612b008185613177565b9350612b108185602086016131ac565b612b19816131df565b840191505092915050565b6000612b2f82613114565b612b398185613188565b9350612b498185602086016131ac565b80840191505092915050565b6000612b62600483613188565b91507f6c696b65000000000000000000000000000000000000000000000000000000006000830152600482019050919050565b6000612ba2600583613188565b91507f6c617465720000000000000000000000000000000000000000000000000000006000830152600582019050919050565b6000612be2600583613188565b91507f6c696b65640000000000000000000000000000000000000000000000000000006000830152600582019050919050565b6000612c22600483613188565b91507f76696577000000000000000000000000000000000000000000000000000000006000830152600482019050919050565b6000612c62600683613188565b91507f75706c6f616400000000000000000000000000000000000000000000000000006000830152600682019050919050565b6000612ca2600483613188565b91507f73617665000000000000000000000000000000000000000000000000000000006000830152600482019050919050565b6000612ce2600983613188565b91507f73756273637269626500000000000000000000000000000000000000000000006000830152600982019050919050565b6000612d22600783613188565b91507f636f6d6d656e74000000000000000000000000000000000000000000000000006000830152600782019050919050565b612d5e81613193565b82525050565b612d6d81613193565b82525050565b6000612d7f8284612b24565b915081905092915050565b6000612d968284612a81565b915081905092915050565b6000612dac82612b55565b9150819050919050565b6000612dc182612b95565b9150819050919050565b6000612dd682612bd5565b9150819050919050565b6000612deb82612c15565b9150819050919050565b6000612e0082612c55565b9150819050919050565b6000612e1582612c95565b9150819050919050565b6000612e2a82612cd5565b9150819050919050565b6000612e3f82612d15565b9150819050919050565b60006020820190508181036000830152612e638184612975565b905092915050565b60006020820190508181036000830152612e8581846129ea565b905092915050565b60006020820190508181036000830152612ea78184612aeb565b905092915050565b60006020820190508181036000830152612ec98184612a48565b905092915050565b60006060820190508181036000830152612eeb8186612aeb565b90508181036020830152612eff8185612aeb565b9050612f0e6040830184612d64565b949350505050565b6000602082019050612f2b6000830184612d64565b92915050565b600061012082019050612f47600083018c612d64565b8181036020830152612f59818b612aeb565b90508181036040830152612f6d818a612aeb565b90508181036060830152612f818189612aeb565b90508181036080830152612f958188612aeb565b9050612fa460a0830187612d64565b612fb160c0830186612d64565b612fbe60e0830185612d64565b818103610100830152612fd18184612aeb565b90509a9950505050505050505050565b6000604051905081810181811067ffffffffffffffff8211171561300457600080fd5b8060405250919050565b600067ffffffffffffffff82111561302557600080fd5b602082029050602081019050919050565b600067ffffffffffffffff82111561304d57600080fd5b602082029050602081019050919050565b600067ffffffffffffffff82111561307557600080fd5b602082029050602081019050919050565b600067ffffffffffffffff82111561309d57600080fd5b601f19601f8301169050602081019050919050565b600067ffffffffffffffff8211156130c957600080fd5b601f19601f8301169050602081019050919050565b6000819050602082019050919050565b6000819050602082019050919050565b600081519050919050565b600081519050919050565b600081519050919050565b600081519050919050565b6000602082019050919050565b6000602082019050919050565b600082825260208201905092915050565b600082825260208201905092915050565b600082825260208201905092915050565b600082825260208201905092915050565b600081905092915050565b6000819050919050565b82818337600083830152505050565b60005b838110156131ca5780820151818401526020810190506131af565b838111156131d9576000848401525b50505050565b6000601f19601f8301169050919050565b6131f981613193565b811461320457600080fd5b5056fea365627a7a723158205ec8c6fd326d2c625df4d6033be9aca6aad3276296552739302922ebf47c23c46c6578706572696d656e74616cf564736f6c63430005100040",
  "source": "pragma solidity ^0.5.16;\r\npragma experimental ABIEncoderV2;\r\n\r\ncontract Primary {\r\n    uint256 public videoCount = 0;\r\n    uint256 public usersCount = 0;\r\n    string public name = \"Primary\";\r\n    mapping(uint256 => Video) public Id_Video;\r\n    uint256[] public Tag1_Videos;\r\n    uint256[] public Tag2_Videos;\r\n    uint256[] public Tag3_Videos;\r\n    uint256[] public Tag4_Videos;\r\n    uint256[] public Tag5_Videos;\r\n    mapping(string => uint256[]) public Title_Video;\r\n    mapping(string => uint256[]) public User_Videos;\r\n    mapping(string => User) public PublicKey_User;\r\n    mapping(string => string) public UserName_User;\r\n\r\n    struct Video {\r\n        uint256 id;\r\n        string hash;\r\n        string title;\r\n        string time;\r\n        string description;\r\n        string[] comments;\r\n        uint256 views;\r\n        uint256 hearts;\r\n        uint256 tags;\r\n        string creatorId;\r\n    }\r\n\r\n    struct User {\r\n        string publicKey;\r\n        string userName;\r\n        string[] subscriptions;\r\n        uint256 subscribersCount;\r\n        mapping(string => uint256[]) Playlist_Videos;\r\n    }\r\n\r\n    constructor() public {}\r\n\r\n    function getTagsVideos(uint256 _tag)\r\n        public\r\n        view\r\n        returns (uint256[] memory)\r\n    {\r\n        if (_tag == 1) {\r\n            return Tag1_Videos;\r\n        } else if (_tag == 2) {\r\n            return Tag2_Videos;\r\n        } else if (_tag == 3) {\r\n            return Tag3_Videos;\r\n        } else if (_tag == 4) {\r\n            return Tag4_Videos;\r\n        } else if (_tag == 5) {\r\n            return Tag5_Videos;\r\n        }\r\n    }\r\n\r\n    function getUserName(string memory _publicKey)\r\n        public\r\n        view\r\n        returns (string memory)\r\n    {\r\n        return PublicKey_User[_publicKey].userName;\r\n    }\r\n\r\n    function getUserSubscriptions(string memory _publicKey)\r\n        public\r\n        view\r\n        returns (string[] memory)\r\n    {\r\n        return PublicKey_User[_publicKey].subscriptions;\r\n    }\r\n\r\n    function getVideoHash(uint256 _id) public view returns (string memory) {\r\n        return Id_Video[_id].hash;\r\n    }\r\n\r\n    function getVideoTitle(uint256 _id) public view returns (string memory) {\r\n        return Id_Video[_id].title;\r\n    }\r\n\r\n    function getVideo(string memory title) public view returns (uint256[] memory) {\r\n        return Title_Video[title];\r\n    }\r\n\r\n    function getUserPlaylist(string memory _publicKey, string memory _playlist)\r\n        public\r\n        view\r\n        returns (uint256[] memory)\r\n    {\r\n        return PublicKey_User[_publicKey].Playlist_Videos[_playlist];\r\n    }\r\n\r\n    function getUserVideos(string memory _publicKey)\r\n        public\r\n        view\r\n        returns (uint256[] memory)\r\n    {\r\n        return User_Videos[_publicKey];\r\n    }\r\n\r\n    function getVideoComments(uint256 _videoId)\r\n        public\r\n        view\r\n        returns (string[] memory)\r\n    {\r\n        return Id_Video[_videoId].comments;\r\n    }\r\n\r\n    function signup(string memory _userName, string memory _publicKey) public {\r\n        usersCount++;\r\n        string[] memory subscriptions;\r\n        PublicKey_User[_publicKey] = User(\r\n            _publicKey,\r\n            _userName,\r\n            subscriptions,\r\n            0\r\n        );\r\n        UserName_User[_userName] = _publicKey;\r\n    }\r\n\r\n    function transactions(\r\n        string[] memory _type,\r\n        string[] memory _userId,\r\n        string[] memory _timestamp,\r\n        string[][] memory _params\r\n    ) public {\r\n        for (\r\n            uint256 transaction = 0;\r\n            transaction < _type.length;\r\n            transaction++\r\n        ) {\r\n            if (\r\n                keccak256(abi.encodePacked(_type[transaction])) ==\r\n                keccak256(abi.encodePacked(\"view\"))\r\n            ) {\r\n                watch(stringToUint(_params[transaction][0]));\r\n            } else if (\r\n                keccak256(abi.encodePacked(_type[transaction])) ==\r\n                keccak256(abi.encodePacked(\"like\"))\r\n            ) {\r\n                like(\r\n                    _userId[transaction],\r\n                    stringToUint(_params[transaction][0])\r\n                );\r\n            } else if (\r\n                keccak256(abi.encodePacked(_type[transaction])) ==\r\n                keccak256(abi.encodePacked(\"comment\"))\r\n            ) {\r\n                comment(\r\n                    stringToUint(_params[transaction][0]),\r\n                    _params[transaction][1]\r\n                );\r\n            } else if (\r\n                keccak256(abi.encodePacked(_type[transaction])) ==\r\n                keccak256(abi.encodePacked(\"subscribe\"))\r\n            ) {\r\n                subscribe(_userId[transaction], _params[transaction][0]);\r\n            } else if (\r\n                keccak256(abi.encodePacked(_type[transaction])) ==\r\n                keccak256(abi.encodePacked(\"save\"))\r\n            ) {\r\n                save(\r\n                    _userId[transaction],\r\n                    stringToUint(_params[transaction][0])\r\n                );\r\n            } else if (\r\n                keccak256(abi.encodePacked(_type[transaction])) ==\r\n                keccak256(abi.encodePacked(\"upload\"))\r\n            ) {\r\n                uploadVideo(\r\n                    _params[transaction][3],\r\n                    _params[transaction][0],\r\n                    _timestamp[transaction],\r\n                    _params[transaction][1],\r\n                    stringToUint(_params[transaction][2]),\r\n                    _userId[transaction]\r\n                );\r\n            }\r\n        }\r\n    }\r\n\r\n    function watch(uint256 _videoId) public {\r\n        Id_Video[_videoId].views++;\r\n    }\r\n\r\n    function like(string memory _userId, uint256 _videoId) public {\r\n        Id_Video[_videoId].hearts++;\r\n        PublicKey_User[_userId].Playlist_Videos[\"liked\"].push(_videoId);\r\n    }\r\n\r\n    function save(string memory _userId, uint256 _videoId) public {\r\n        PublicKey_User[_userId].Playlist_Videos[\"later\"].push(_videoId);\r\n    }\r\n\r\n    function comment(uint256 _videoId, string memory _comment) public {\r\n        Id_Video[_videoId].comments.push(_comment);\r\n    }\r\n\r\n    function subscribe(string memory _userId, string memory _subscribedUserId)\r\n        public\r\n    {\r\n        PublicKey_User[_userId].subscriptions.push(_subscribedUserId);\r\n        PublicKey_User[_subscribedUserId].subscribersCount++;\r\n    }\r\n\r\n    function uploadVideo(\r\n        string memory _hash,\r\n        string memory _title,\r\n        string memory _time,\r\n        string memory _description,\r\n        uint256 _tags,\r\n        string memory _creatorId\r\n    ) public {\r\n        videoCount++;\r\n        string[] memory comments;\r\n        Id_Video[videoCount] = Video(\r\n            videoCount,\r\n            _hash,\r\n            _title,\r\n            _time,\r\n            _description,\r\n            comments,\r\n            0,\r\n            0,\r\n            _tags,\r\n            _creatorId\r\n        );\r\n        Title_Video[_title].push(videoCount);\r\n        User_Videos[_creatorId].push(videoCount);\r\n        if ((_tags & 1) != 0) {\r\n            Tag1_Videos.push(videoCount);\r\n        }\r\n        if ((_tags >> 1) & 1 != 0) {\r\n            Tag2_Videos.push(videoCount);\r\n        }\r\n        if ((_tags >> 2) & 1 != 0) {\r\n            Tag3_Videos.push(videoCount);\r\n        }\r\n        if ((_tags >> 3) & 1 != 0) {\r\n            Tag4_Videos.push(videoCount);\r\n        }\r\n        if ((_tags >> 4) & 1 != 0) {\r\n            Tag5_Videos.push(videoCount);\r\n        }\r\n    }\r\n\r\n    function stringToUint(string memory s)\r\n        public\r\n        pure\r\n        returns (uint256 result)\r\n    {\r\n        bytes memory b = bytes(s);\r\n        uint256 i;\r\n        result = 0;\r\n        for (i = 0; i < b.length; i++) {\r\n            uint256 c = uint256(uint8(b[i]));\r\n            if (c >= 48 && c <= 57) {\r\n                result = result * 10 + (c - 48);\r\n            }\r\n        }\r\n    }\r\n}\r\n",
  "sourcePath": "D:\\Dvideo\\src\\contracts\\Primary.sol",
  "compiler": {
    "name": "solc",
    "version": "0.5.16+commit.9c3226ce.Emscripten.clang"
  },
  "schemaVersion": "3.4.3",
  "updatedAt": "2021-11-03T09:40:41.782Z",
  "networkType": "ethereum",
  "devdoc": {
    "methods": {}
  },
  "userdoc": {
    "methods": {}
  }
}