{
  "contractName": "Primary",
  "abi": [
    {
      "inputs": [],
      "payable": false,
      "stateMutability": "nonpayable",
      "type": "constructor"
    },
    {
      "constant": true,
      "inputs": [
        {
          "internalType": "uint256",
          "name": "",
          "type": "uint256"
        }
      ],
      "name": "Id_Video",
      "outputs": [
        {
          "internalType": "uint256",
          "name": "id",
          "type": "uint256"
        },
        {
          "internalType": "string",
          "name": "hash",
          "type": "string"
        },
        {
          "internalType": "string",
          "name": "title",
          "type": "string"
        },
        {
          "internalType": "string",
          "name": "time",
          "type": "string"
        },
        {
          "internalType": "string",
          "name": "description",
          "type": "string"
        },
        {
          "internalType": "uint256",
          "name": "views",
          "type": "uint256"
        },
        {
          "internalType": "uint256",
          "name": "hearts",
          "type": "uint256"
        },
        {
          "internalType": "uint256",
          "name": "tags",
          "type": "uint256"
        },
        {
          "internalType": "string",
          "name": "creatorId",
          "type": "string"
        }
      ],
      "payable": false,
      "stateMutability": "view",
      "type": "function"
    },
    {
      "constant": true,
      "inputs": [
        {
          "internalType": "string",
          "name": "",
          "type": "string"
        }
      ],
      "name": "PublicKey_User",
      "outputs": [
        {
          "internalType": "string",
          "name": "publicKey",
          "type": "string"
        },
        {
          "internalType": "string",
          "name": "userName",
          "type": "string"
        },
        {
          "internalType": "uint256",
          "name": "subscribersCount",
          "type": "uint256"
        }
      ],
      "payable": false,
      "stateMutability": "view",
      "type": "function"
    },
    {
      "constant": true,
      "inputs": [
        {
          "internalType": "uint256",
          "name": "",
          "type": "uint256"
        }
      ],
      "name": "Tag1_Videos",
      "outputs": [
        {
          "internalType": "uint256",
          "name": "",
          "type": "uint256"
        }
      ],
      "payable": false,
      "stateMutability": "view",
      "type": "function"
    },
    {
      "constant": true,
      "inputs": [
        {
          "internalType": "uint256",
          "name": "",
          "type": "uint256"
        }
      ],
      "name": "Tag2_Videos",
      "outputs": [
        {
          "internalType": "uint256",
          "name": "",
          "type": "uint256"
        }
      ],
      "payable": false,
      "stateMutability": "view",
      "type": "function"
    },
    {
      "constant": true,
      "inputs": [
        {
          "internalType": "uint256",
          "name": "",
          "type": "uint256"
        }
      ],
      "name": "Tag3_Videos",
      "outputs": [
        {
          "internalType": "uint256",
          "name": "",
          "type": "uint256"
        }
      ],
      "payable": false,
      "stateMutability": "view",
      "type": "function"
    },
    {
      "constant": true,
      "inputs": [
        {
          "internalType": "string",
          "name": "",
          "type": "string"
        }
      ],
      "name": "Title_Video",
      "outputs": [
        {
          "internalType": "uint256",
          "name": "",
          "type": "uint256"
        }
      ],
      "payable": false,
      "stateMutability": "view",
      "type": "function"
    },
    {
      "constant": true,
      "inputs": [
        {
          "internalType": "string",
          "name": "",
          "type": "string"
        }
      ],
      "name": "UserName_User",
      "outputs": [
        {
          "internalType": "string",
          "name": "",
          "type": "string"
        }
      ],
      "payable": false,
      "stateMutability": "view",
      "type": "function"
    },
    {
      "constant": true,
      "inputs": [
        {
          "internalType": "string",
          "name": "",
          "type": "string"
        },
        {
          "internalType": "uint256",
          "name": "",
          "type": "uint256"
        }
      ],
      "name": "User_Videos",
      "outputs": [
        {
          "internalType": "uint256",
          "name": "",
          "type": "uint256"
        }
      ],
      "payable": false,
      "stateMutability": "view",
      "type": "function"
    },
    {
      "constant": true,
      "inputs": [],
      "name": "name",
      "outputs": [
        {
          "internalType": "string",
          "name": "",
          "type": "string"
        }
      ],
      "payable": false,
      "stateMutability": "view",
      "type": "function"
    },
    {
      "constant": true,
      "inputs": [],
      "name": "usersCount",
      "outputs": [
        {
          "internalType": "uint256",
          "name": "",
          "type": "uint256"
        }
      ],
      "payable": false,
      "stateMutability": "view",
      "type": "function"
    },
    {
      "constant": true,
      "inputs": [],
      "name": "videoCount",
      "outputs": [
        {
          "internalType": "uint256",
          "name": "",
          "type": "uint256"
        }
      ],
      "payable": false,
      "stateMutability": "view",
      "type": "function"
    },
    {
      "constant": false,
      "inputs": [
        {
          "internalType": "string",
          "name": "_userName",
          "type": "string"
        },
        {
          "internalType": "string",
          "name": "_publicKey",
          "type": "string"
        }
      ],
      "name": "signup",
      "outputs": [],
      "payable": false,
      "stateMutability": "nonpayable",
      "type": "function"
    },
    {
      "constant": false,
      "inputs": [
        {
          "internalType": "string[]",
          "name": "_type",
          "type": "string[]"
        },
        {
          "internalType": "string[]",
          "name": "_userId",
          "type": "string[]"
        },
        {
          "internalType": "string[]",
          "name": "_timestamp",
          "type": "string[]"
        },
        {
          "internalType": "string[][]",
          "name": "_params",
          "type": "string[][]"
        }
      ],
      "name": "transactions",
      "outputs": [],
      "payable": false,
      "stateMutability": "nonpayable",
      "type": "function"
    },
    {
      "constant": false,
      "inputs": [
        {
          "internalType": "string",
          "name": "_userId",
          "type": "string"
        },
        {
          "internalType": "uint256",
          "name": "_videoId",
          "type": "uint256"
        }
      ],
      "name": "watch",
      "outputs": [],
      "payable": false,
      "stateMutability": "nonpayable",
      "type": "function"
    },
    {
      "constant": false,
      "inputs": [
        {
          "internalType": "string",
          "name": "_userId",
          "type": "string"
        },
        {
          "internalType": "uint256",
          "name": "_videoId",
          "type": "uint256"
        }
      ],
      "name": "like",
      "outputs": [],
      "payable": false,
      "stateMutability": "nonpayable",
      "type": "function"
    },
    {
      "constant": false,
      "inputs": [
        {
          "internalType": "uint256",
          "name": "_videoId",
          "type": "uint256"
        },
        {
          "internalType": "string",
          "name": "_comment",
          "type": "string"
        }
      ],
      "name": "comment",
      "outputs": [],
      "payable": false,
      "stateMutability": "nonpayable",
      "type": "function"
    },
    {
      "constant": false,
      "inputs": [
        {
          "internalType": "string",
          "name": "_userId",
          "type": "string"
        },
        {
          "internalType": "string",
          "name": "_subscribedUserId",
          "type": "string"
        }
      ],
      "name": "subscribe",
      "outputs": [],
      "payable": false,
      "stateMutability": "nonpayable",
      "type": "function"
    },
    {
      "constant": false,
      "inputs": [
        {
          "internalType": "string",
          "name": "_hash",
          "type": "string"
        },
        {
          "internalType": "string",
          "name": "_title",
          "type": "string"
        },
        {
          "internalType": "string",
          "name": "_time",
          "type": "string"
        },
        {
          "internalType": "string",
          "name": "_description",
          "type": "string"
        },
        {
          "internalType": "uint256",
          "name": "_tags",
          "type": "uint256"
        },
        {
          "internalType": "string",
          "name": "_creatorId",
          "type": "string"
        }
      ],
      "name": "uploadVideo",
      "outputs": [],
      "payable": false,
      "stateMutability": "nonpayable",
      "type": "function"
    },
    {
      "constant": false,
      "inputs": [
        {
          "internalType": "string",
          "name": "s",
          "type": "string"
        }
      ],
      "name": "stringToUint",
      "outputs": [
        {
          "internalType": "uint256",
          "name": "result",
          "type": "uint256"
        }
      ],
      "payable": false,
      "stateMutability": "nonpayable",
      "type": "function"
    }
  ],
  "bytecode": "0x60806040526000805560006001556040518060400160405280600781526020017f5072696d61727900000000000000000000000000000000000000000000000000815250600290805190602001906200005a9291906200006f565b503480156200006857600080fd5b506200011e565b828054600181600116156101000203166002900490600052602060002090601f016020900481019282601f10620000b257805160ff1916838001178555620000e3565b82800160010185558215620000e3579182015b82811115620000e2578251825591602001919060010190620000c5565b5b509050620000f29190620000f6565b5090565b6200011b91905b8082111562000117576000816000905550600101620000fd565b5090565b90565b6124e6806200012e6000396000f3fe608060405234801561001057600080fd5b50600436106101215760003560e01c80636ba13a82116100ad578063b66cab0f11610071578063b66cab0f14610348578063bbd5cf2f14610378578063c00f123d14610394578063c61b5f4c146103c4578063e12e4fa0146103e257610121565b80636ba13a821461027c5780637c47d2621461029a5780637d8379b8146102b65780637e642989146102e85780639e227b101461031857610121565b80631bd95155116100f45780631bd95155146101c857806332fca881146101f8578063346d4d66146102285780633c04c0151461024457806347e70e641461026057610121565b806305f79ed81461012657806306fdde031461015e578063138b07871461017c5780631805c523146101ac575b600080fd5b610140600480360361013b9190810190611e26565b6103fe565b60405161015599989796959493929190612250565b60405180910390f35b610166610744565b60405161017391906121ce565b60405180910390f35b61019660048036036101919190810190611b8f565b6107e2565b6040516101a39190612235565b60405180910390f35b6101c660048036036101c19190810190611e4f565b610810565b005b6101e260048036036101dd9190810190611bd0565b610867565b6040516101ef9190612235565b60405180910390f35b610212600480360361020d9190810190611e26565b6108da565b60405161021f9190612235565b60405180910390f35b610242600480360361023d9190810190611acc565b6108fb565b005b61025e60048036036102599190810190611d7e565b610d44565b005b61027a60048036036102759190810190611c11565b610dd3565b005b610284610ff8565b6040516102919190612235565b60405180910390f35b6102b460048036036102af9190810190611c7d565b610ffe565b005b6102d060048036036102cb9190810190611b8f565b6112d6565b6040516102df939291906121f0565b60405180910390f35b61030260048036036102fd9190810190611dd2565b611446565b60405161030f9190612235565b60405180910390f35b610332600480360361032d9190810190611b8f565b61148a565b60405161033f91906121ce565b60405180910390f35b610362600480360361035d9190810190611e26565b611550565b60405161036f9190612235565b60405180910390f35b610392600480360361038d9190810190611c11565b611571565b005b6103ae60048036036103a99190810190611e26565b611604565b6040516103bb9190612235565b60405180910390f35b6103cc611625565b6040516103d99190612235565b60405180910390f35b6103fc60048036036103f79190810190611d7e565b61162b565b005b6003602052806000526040600020600091509050806000015490806001018054600181600116156101000203166002900480601f0160208091040260200160405190810160405280929190818152602001828054600181600116156101000203166002900480156104b05780601f10610485576101008083540402835291602001916104b0565b820191906000526020600020905b81548152906001019060200180831161049357829003601f168201915b505050505090806002018054600181600116156101000203166002900480601f01602080910402602001604051908101604052809291908181526020018280546001816001161561010002031660029004801561054e5780601f106105235761010080835404028352916020019161054e565b820191906000526020600020905b81548152906001019060200180831161053157829003601f168201915b505050505090806003018054600181600116156101000203166002900480601f0160208091040260200160405190810160405280929190818152602001828054600181600116156101000203166002900480156105ec5780601f106105c1576101008083540402835291602001916105ec565b820191906000526020600020905b8154815290600101906020018083116105cf57829003601f168201915b505050505090806004018054600181600116156101000203166002900480601f01602080910402602001604051908101604052809291908181526020018280546001816001161561010002031660029004801561068a5780601f1061065f5761010080835404028352916020019161068a565b820191906000526020600020905b81548152906001019060200180831161066d57829003601f168201915b505050505090806006015490806007015490806008015490806009018054600181600116156101000203166002900480601f01602080910402602001604051908101604052809291908181526020018280546001816001161561010002031660029004801561073a5780601f1061070f5761010080835404028352916020019161073a565b820191906000526020600020905b81548152906001019060200180831161071d57829003601f168201915b5050505050905089565b60028054600181600116156101000203166002900480601f0160208091040260200160405190810160405280929190818152602001828054600181600116156101000203166002900480156107da5780601f106107af576101008083540402835291602001916107da565b820191906000526020600020905b8154815290600101906020018083116107bd57829003601f168201915b505050505081565b6007818051602081018201805184825260208301602085012081835280955050505050506000915090505481565b600360008381526020019081526020016000206005018190806001815401808255809150509060018203906000526020600020016000909192909190915090805190602001906108619291906116ba565b50505050565b600060608290506000809250600090505b81518110156108d357600082828151811061088f57fe5b602001015160f81c60f81b60f81c60ff169050603081101580156108b4575060398111155b156108c55760308103600a85020193505b508080600101915050610878565b5050919050565b600581815481106108e757fe5b906000526020600020016000915090505481565b60008090505b8451811015610d3d576040516020016109199061217a565b6040516020818303038152906040528051906020012085828151811061093b57fe5b6020026020010151604051602001610953919061210d565b6040516020818303038152906040528051906020012014156109c0576109bb84828151811061097e57fe5b60200260200101516109b684848151811061099557fe5b60200260200101516000815181106109a957fe5b6020026020010151610867565b61162b565b610d30565b6040516020016109cf9061213b565b604051602081830303815290604052805190602001208582815181106109f157fe5b6020026020010151604051602001610a09919061210d565b604051602081830303815290604052805190602001201415610a7657610a71848281518110610a3457fe5b6020026020010151610a6c848481518110610a4b57fe5b6020026020010151600081518110610a5f57fe5b6020026020010151610867565b610d44565b610d2f565b604051602001610a85906121b9565b60405160208183030381529060405280519060200120858281518110610aa757fe5b6020026020010151604051602001610abf919061210d565b604051602081830303815290604052805190602001201415610b4057610b3b610b0e838381518110610aed57fe5b6020026020010151600081518110610b0157fe5b6020026020010151610867565b838381518110610b1a57fe5b6020026020010151600181518110610b2e57fe5b6020026020010151610810565b610d2e565b604051602001610b4f906121a4565b60405160208183030381529060405280519060200120858281518110610b7157fe5b6020026020010151604051602001610b89919061210d565b604051602081830303815290604052805190602001201415610bee57610be9848281518110610bb457fe5b6020026020010151838381518110610bc857fe5b6020026020010151600081518110610bdc57fe5b6020026020010151611571565b610d2d565b604051602001610bfd9061218f565b60405160208183030381529060405280519060200120858281518110610c1f57fe5b6020026020010151604051602001610c37919061210d565b604051602081830303815290604052805190602001201415610d2c57610d2b828281518110610c6257fe5b6020026020010151600381518110610c7657fe5b6020026020010151838381518110610c8a57fe5b6020026020010151600081518110610c9e57fe5b6020026020010151858481518110610cb257fe5b6020026020010151858581518110610cc657fe5b6020026020010151600181518110610cda57fe5b6020026020010151610d12878781518110610cf157fe5b6020026020010151600281518110610d0557fe5b6020026020010151610867565b898781518110610d1e57fe5b6020026020010151610ffe565b5b5b5b5b5b8080600101915050610901565b5050505050565b6003600082815260200190815260200160002060070160008154809291906001019190505550600982604051610d7a9190612124565b9081526020016040518091039020600401604051610d9790612165565b90815260200160405180910390208190806001815401808255809150509060018203906000526020600020016000909192909190915055505050565b600160008154809291906001019190505550606060405180608001604052808381526020018481526020018281526020016000815250600983604051610e199190612124565b90815260200160405180910390206000820151816000019080519060200190610e4392919061173a565b506020820151816001019080519060200190610e6092919061173a565b506040820151816002019080519060200190610e7d9291906117ba565b5060608201518160030155905050600982604051610e9b9190612124565b90815260200160405180910390206002018060018154018082558091505090600182039060005260206000200160006040518060200160405280600081525090919091509080519060200190610ef29291906116ba565b5050600982604051610f049190612124565b9081526020016040518091039020600401604051610f2190612150565b908152602001604051809103902060009080600181540180825580915050906001820390600052602060002001600090919290919091505550600982604051610f6a9190612124565b9081526020016040518091039020600401604051610f8790612165565b90815260200160405180910390206000908060018154018082558091505090600182039060005260206000200160009091929091909150555081600a84604051610fd19190612124565b90815260200160405180910390209080519060200190610ff29291906116ba565b50505050565b60015481565b600080815480929190600101919050555060606040518061014001604052806000548152602001888152602001878152602001868152602001858152602001828152602001600081526020016000815260200184815260200183815250600360008054815260200190815260200160002060008201518160000155602082015181600101908051906020019061109592919061173a565b5060408201518160020190805190602001906110b292919061173a565b5060608201518160030190805190602001906110cf92919061173a565b5060808201518160040190805190602001906110ec92919061173a565b5060a08201518160050190805190602001906111099291906117ba565b5060c0820151816006015560e08201518160070155610100820151816008015561012082015181600901908051906020019061114692919061173a565b50905050600360008054815260200190815260200160002060050180600181540180825580915050906001820390600052602060002001600060405180602001604052806000815250909190915090805190602001906111a79291906116ba565b50506000546007876040516111bc9190612124565b9081526020016040518091039020819055506008826040516111de9190612124565b908152602001604051809103902060005490806001815401808255809150509060018203906000526020600020016000909192909190915055506000600184161461125257600460005490806001815401808255809150509060018203906000526020600020016000909192909190915055505b600060018085901c161461128f57600560005490806001815401808255809150509060018203906000526020600020016000909192909190915055505b60006001600285901c16146112cd57600660005490806001815401808255809150509060018203906000526020600020016000909192909190915055505b50505050505050565b600981805160208101820180518482526020830160208501208183528095505050505050600091509050806000018054600181600116156101000203166002900480601f0160208091040260200160405190810160405280929190818152602001828054600181600116156101000203166002900480156113985780601f1061136d57610100808354040283529160200191611398565b820191906000526020600020905b81548152906001019060200180831161137b57829003601f168201915b505050505090806001018054600181600116156101000203166002900480601f0160208091040260200160405190810160405280929190818152602001828054600181600116156101000203166002900480156114365780601f1061140b57610100808354040283529160200191611436565b820191906000526020600020905b81548152906001019060200180831161141957829003601f168201915b5050505050908060030154905083565b600882805160208101820180518482526020830160208501208183528095505050505050818154811061147557fe5b90600052602060002001600091509150505481565b600a818051602081018201805184825260208301602085012081835280955050505050506000915090508054600181600116156101000203166002900480601f0160208091040260200160405190810160405280929190818152602001828054600181600116156101000203166002900480156115485780601f1061151d57610100808354040283529160200191611548565b820191906000526020600020905b81548152906001019060200180831161152b57829003601f168201915b505050505081565b6004818154811061155d57fe5b906000526020600020016000915090505481565b6009826040516115819190612124565b90815260200160405180910390206002018190806001815401808255809150509060018203906000526020600020016000909192909190915090805190602001906115cd9291906116ba565b50506009816040516115df9190612124565b9081526020016040518091039020600301600081548092919060010191905055505050565b6006818154811061161157fe5b906000526020600020016000915090505481565b60005481565b60036000828152602001908152602001600020600601600081548092919060010191905055506009826040516116619190612124565b908152602001604051809103902060040160405161167e90612150565b90815260200160405180910390208190806001815401808255809150509060018203906000526020600020016000909192909190915055505050565b828054600181600116156101000203166002900490600052602060002090601f016020900481019282601f106116fb57805160ff1916838001178555611729565b82800160010185558215611729579182015b8281111561172857825182559160200191906001019061170d565b5b509050611736919061181a565b5090565b828054600181600116156101000203166002900490600052602060002090601f016020900481019282601f1061177b57805160ff19168380011785556117a9565b828001600101855582156117a9579182015b828111156117a857825182559160200191906001019061178d565b5b5090506117b6919061181a565b5090565b828054828255906000526020600020908101928215611809579160200282015b828111156118085782518290805190602001906117f892919061173a565b50916020019190600101906117da565b5b509050611816919061183f565b5090565b61183c91905b80821115611838576000816000905550600101611820565b5090565b90565b61186891905b80821115611864576000818161185b919061186b565b50600101611845565b5090565b90565b50805460018160011615610100020316600290046000825580601f1061189157506118b0565b601f0160209004906000526020600020908101906118af919061181a565b5b50565b600082601f8301126118c457600080fd5b81356118d76118d28261232d565b612300565b9150818183526020840193506020810190508360005b8381101561191d57813586016119038882611927565b8452602084019350602083019250506001810190506118ed565b5050505092915050565b600082601f83011261193857600080fd5b813561194b61194682612355565b612300565b9150818183526020840193506020810190508360005b8381101561199157813586016119778882611a0f565b845260208401935060208301925050600181019050611961565b5050505092915050565b600082601f8301126119ac57600080fd5b81356119bf6119ba8261237d565b612300565b9150818183526020840193506020810190508360005b83811015611a0557813586016119eb8882611a0f565b8452602084019350602083019250506001810190506119d5565b5050505092915050565b600082601f830112611a2057600080fd5b8135611a33611a2e826123a5565b612300565b91508082526020830160208301858383011115611a4f57600080fd5b611a5a838284612439565b50505092915050565b600082601f830112611a7457600080fd5b8135611a87611a82826123d1565b612300565b91508082526020830160208301858383011115611aa357600080fd5b611aae838284612439565b50505092915050565b600081359050611ac68161248c565b92915050565b60008060008060808587031215611ae257600080fd5b600085013567ffffffffffffffff811115611afc57600080fd5b611b088782880161199b565b945050602085013567ffffffffffffffff811115611b2557600080fd5b611b318782880161199b565b935050604085013567ffffffffffffffff811115611b4e57600080fd5b611b5a8782880161199b565b925050606085013567ffffffffffffffff811115611b7757600080fd5b611b83878288016118b3565b91505092959194509250565b600060208284031215611ba157600080fd5b600082013567ffffffffffffffff811115611bbb57600080fd5b611bc784828501611a0f565b91505092915050565b600060208284031215611be257600080fd5b600082013567ffffffffffffffff811115611bfc57600080fd5b611c0884828501611a63565b91505092915050565b60008060408385031215611c2457600080fd5b600083013567ffffffffffffffff811115611c3e57600080fd5b611c4a85828601611a63565b925050602083013567ffffffffffffffff811115611c6757600080fd5b611c7385828601611a63565b9150509250929050565b60008060008060008060c08789031215611c9657600080fd5b600087013567ffffffffffffffff811115611cb057600080fd5b611cbc89828a01611a63565b965050602087013567ffffffffffffffff811115611cd957600080fd5b611ce589828a01611a63565b955050604087013567ffffffffffffffff811115611d0257600080fd5b611d0e89828a01611a63565b945050606087013567ffffffffffffffff811115611d2b57600080fd5b611d3789828a01611a63565b9350506080611d4889828a01611ab7565b92505060a087013567ffffffffffffffff811115611d6557600080fd5b611d7189828a01611a63565b9150509295509295509295565b60008060408385031215611d9157600080fd5b600083013567ffffffffffffffff811115611dab57600080fd5b611db785828601611a63565b9250506020611dc885828601611ab7565b9150509250929050565b60008060408385031215611de557600080fd5b600083013567ffffffffffffffff811115611dff57600080fd5b611e0b85828601611a0f565b9250506020611e1c85828601611ab7565b9150509250929050565b600060208284031215611e3857600080fd5b6000611e4684828501611ab7565b91505092915050565b60008060408385031215611e6257600080fd5b6000611e7085828601611ab7565b925050602083013567ffffffffffffffff811115611e8d57600080fd5b611e9985828601611a63565b9150509250929050565b6000611eae82612408565b611eb88185612424565b9350611ec8818560208601612448565b80840191505092915050565b6000611edf826123fd565b611ee98185612413565b9350611ef9818560208601612448565b611f028161247b565b840191505092915050565b6000611f18826123fd565b611f228185612424565b9350611f32818560208601612448565b80840191505092915050565b6000611f4b600483612424565b91507f6c696b65000000000000000000000000000000000000000000000000000000006000830152600482019050919050565b6000611f8b600683612424565b91507f76696577656400000000000000000000000000000000000000000000000000006000830152600682019050919050565b6000611fcb600583612424565b91507f6c696b65640000000000000000000000000000000000000000000000000000006000830152600582019050919050565b600061200b600483612424565b91507f76696577000000000000000000000000000000000000000000000000000000006000830152600482019050919050565b600061204b600683612424565b91507f75706c6f616400000000000000000000000000000000000000000000000000006000830152600682019050919050565b600061208b600983612424565b91507f73756273637269626500000000000000000000000000000000000000000000006000830152600982019050919050565b60006120cb600783612424565b91507f636f6d6d656e74000000000000000000000000000000000000000000000000006000830152600782019050919050565b6121078161242f565b82525050565b60006121198284611f0d565b915081905092915050565b60006121308284611ea3565b915081905092915050565b600061214682611f3e565b9150819050919050565b600061215b82611f7e565b9150819050919050565b600061217082611fbe565b9150819050919050565b600061218582611ffe565b9150819050919050565b600061219a8261203e565b9150819050919050565b60006121af8261207e565b9150819050919050565b60006121c4826120be565b9150819050919050565b600060208201905081810360008301526121e88184611ed4565b905092915050565b6000606082019050818103600083015261220a8186611ed4565b9050818103602083015261221e8185611ed4565b905061222d60408301846120fe565b949350505050565b600060208201905061224a60008301846120fe565b92915050565b600061012082019050612266600083018c6120fe565b8181036020830152612278818b611ed4565b9050818103604083015261228c818a611ed4565b905081810360608301526122a08189611ed4565b905081810360808301526122b48188611ed4565b90506122c360a08301876120fe565b6122d060c08301866120fe565b6122dd60e08301856120fe565b8181036101008301526122f08184611ed4565b90509a9950505050505050505050565b6000604051905081810181811067ffffffffffffffff8211171561232357600080fd5b8060405250919050565b600067ffffffffffffffff82111561234457600080fd5b602082029050602081019050919050565b600067ffffffffffffffff82111561236c57600080fd5b602082029050602081019050919050565b600067ffffffffffffffff82111561239457600080fd5b602082029050602081019050919050565b600067ffffffffffffffff8211156123bc57600080fd5b601f19601f8301169050602081019050919050565b600067ffffffffffffffff8211156123e857600080fd5b601f19601f8301169050602081019050919050565b600081519050919050565b600081519050919050565b600082825260208201905092915050565b600081905092915050565b6000819050919050565b82818337600083830152505050565b60005b8381101561246657808201518184015260208101905061244b565b83811115612475576000848401525b50505050565b6000601f19601f8301169050919050565b6124958161242f565b81146124a057600080fd5b5056fea365627a7a723158203e79c109630323db236fb355a8a2a7a25ca37852c76e955dcc89be40808541916c6578706572696d656e74616cf564736f6c63430005100040",
  "source": "pragma solidity ^0.5.16;\r\npragma experimental ABIEncoderV2;\r\n\r\ncontract Primary {\r\n    uint256 public videoCount = 0;\r\n    uint256 public usersCount = 0;\r\n    string public name = \"Primary\";\r\n    mapping(uint256 => Video) public Id_Video;\r\n    uint256[] public Tag1_Videos;\r\n    uint256[] public Tag2_Videos;\r\n    uint256[] public Tag3_Videos;\r\n    mapping(string => uint256) public Title_Video;\r\n    mapping(string => uint256[]) public User_Videos;\r\n    mapping(string => User) public PublicKey_User;\r\n    mapping(string => string) public UserName_User;\r\n\r\n    struct Video {\r\n        uint256 id;\r\n        string hash;\r\n        string title;\r\n        string time;\r\n        string description;\r\n        string[] comments;\r\n        uint256 views;\r\n        uint256 hearts;\r\n        uint256 tags;\r\n        string creatorId;\r\n    }\r\n\r\n    struct User {\r\n        string publicKey;\r\n        string userName;\r\n        string[] subscriptions;\r\n        uint256 subscribersCount;\r\n        mapping(string => uint256[]) Playlist_Videos;\r\n    }\r\n\r\n    constructor() public {}\r\n\r\n    function signup(string memory _userName, string memory _publicKey) public {\r\n        usersCount++;\r\n        string[] memory subscriptions;\r\n        PublicKey_User[_publicKey] = User(\r\n            _publicKey,\r\n            _userName,\r\n            subscriptions,\r\n            0\r\n        );\r\n        PublicKey_User[_publicKey].subscriptions.push(\"\");\r\n        PublicKey_User[_publicKey].Playlist_Videos[\"viewed\"].push(0);\r\n        PublicKey_User[_publicKey].Playlist_Videos[\"liked\"].push(0);\r\n        UserName_User[_userName] = _publicKey;\r\n    }\r\n\r\n    function transactions(\r\n        string[] memory _type,\r\n        string[] memory _userId,\r\n        string[] memory _timestamp,\r\n        string[][] memory _params\r\n    ) public {\r\n        for (\r\n            uint256 transaction = 0;\r\n            transaction < _type.length;\r\n            transaction++\r\n        ) {\r\n            if (\r\n                keccak256(abi.encodePacked(_type[transaction])) ==\r\n                keccak256(abi.encodePacked(\"view\"))\r\n            ) {\r\n                watch(\r\n                    _userId[transaction],\r\n                    stringToUint(_params[transaction][0])\r\n                );\r\n            } else if (\r\n                keccak256(abi.encodePacked(_type[transaction])) ==\r\n                keccak256(abi.encodePacked(\"like\"))\r\n            ) {\r\n                like(\r\n                    _userId[transaction],\r\n                    stringToUint(_params[transaction][0])\r\n                );\r\n            } else if (\r\n                keccak256(abi.encodePacked(_type[transaction])) ==\r\n                keccak256(abi.encodePacked(\"comment\"))\r\n            ) {\r\n                comment(\r\n                    stringToUint(_params[transaction][0]),\r\n                    _params[transaction][1]\r\n                );\r\n            } else if (\r\n                keccak256(abi.encodePacked(_type[transaction])) ==\r\n                keccak256(abi.encodePacked(\"subscribe\"))\r\n            ) {\r\n                subscribe(_userId[transaction], _params[transaction][0]);\r\n            } else if (\r\n                keccak256(abi.encodePacked(_type[transaction])) ==\r\n                keccak256(abi.encodePacked(\"upload\"))\r\n            ) {\r\n                uploadVideo(\r\n                    _params[transaction][3],\r\n                    _params[transaction][0],\r\n                    _timestamp[transaction],\r\n                    _params[transaction][1],\r\n                    stringToUint(_params[transaction][2]),\r\n                    _userId[transaction]\r\n                );\r\n            }\r\n        }\r\n    }\r\n\r\n    function watch(string memory _userId, uint256 _videoId) public {\r\n        Id_Video[_videoId].views++;\r\n        PublicKey_User[_userId].Playlist_Videos[\"viewed\"].push(_videoId);\r\n    }\r\n\r\n    function like(string memory _userId, uint256 _videoId) public {\r\n        Id_Video[_videoId].hearts++;\r\n        PublicKey_User[_userId].Playlist_Videos[\"liked\"].push(_videoId);\r\n    }\r\n\r\n    function comment(uint256 _videoId, string memory _comment) public {\r\n        Id_Video[_videoId].comments.push(_comment);\r\n    }\r\n\r\n    function subscribe(string memory _userId, string memory _subscribedUserId)\r\n        public\r\n    {\r\n        PublicKey_User[_userId].subscriptions.push(_subscribedUserId);\r\n        PublicKey_User[_subscribedUserId].subscribersCount++;\r\n    }\r\n\r\n    function uploadVideo(\r\n        string memory _hash,\r\n        string memory _title,\r\n        string memory _time,\r\n        string memory _description,\r\n        uint256 _tags,\r\n        string memory _creatorId\r\n    ) public {\r\n        videoCount++;\r\n        string[] memory comments;\r\n        Id_Video[videoCount] = Video(\r\n            videoCount,\r\n            _hash,\r\n            _title,\r\n            _time,\r\n            _description,\r\n            comments,\r\n            0,\r\n            0,\r\n            _tags,\r\n            _creatorId\r\n        );\r\n        Id_Video[videoCount].comments.push(\"\");\r\n        Title_Video[_title] = videoCount;\r\n        User_Videos[_creatorId].push(videoCount);\r\n        if ((_tags & 1) != 0) {\r\n            Tag1_Videos.push(videoCount);\r\n        }\r\n        if ((_tags >> 1) & 1 != 0) {\r\n            Tag2_Videos.push(videoCount);\r\n        }\r\n        if ((_tags >> 2) & 1 != 0) {\r\n            Tag3_Videos.push(videoCount);\r\n        }\r\n    }\r\n\r\n    function stringToUint(string memory s) public returns (uint256 result) {\r\n        bytes memory b = bytes(s);\r\n        uint256 i;\r\n        result = 0;\r\n        for (i = 0; i < b.length; i++) {\r\n            uint256 c = uint256(uint8(b[i]));\r\n            if (c >= 48 && c <= 57) {\r\n                result = result * 10 + (c - 48);\r\n            }\r\n        }\r\n    }\r\n}\r\n",
  "sourcePath": "C:\\College NSIT\\Sem 7\\BTP Dtube\\dvideo\\src\\contracts\\Primary.sol",
  "compiler": {
    "name": "solc",
    "version": "0.5.16+commit.9c3226ce.Emscripten.clang"
  },
  "schemaVersion": "3.4.3",
  "updatedAt": "2021-10-16T07:27:07.592Z",
  "networkType": "ethereum",
  "devdoc": {
    "methods": {}
  },
  "userdoc": {
    "methods": {}
  }
}