{
  "contractName": "Primary",
  "abi": [
    {
      "inputs": [],
      "payable": false,
      "stateMutability": "nonpayable",
      "type": "constructor"
    },
    {
      "constant": true,
      "inputs": [
        {
          "internalType": "uint256",
          "name": "",
          "type": "uint256"
        }
      ],
      "name": "Id_Video",
      "outputs": [
        {
          "internalType": "uint256",
          "name": "id",
          "type": "uint256"
        },
        {
          "internalType": "string",
          "name": "hash",
          "type": "string"
        },
        {
          "internalType": "string",
          "name": "title",
          "type": "string"
        },
        {
          "internalType": "string",
          "name": "time",
          "type": "string"
        },
        {
          "internalType": "string",
          "name": "description",
          "type": "string"
        },
        {
          "internalType": "uint256",
          "name": "views",
          "type": "uint256"
        },
        {
          "internalType": "uint256",
          "name": "hearts",
          "type": "uint256"
        },
        {
          "internalType": "uint256",
          "name": "tags",
          "type": "uint256"
        },
        {
          "internalType": "string",
          "name": "creatorId",
          "type": "string"
        }
      ],
      "payable": false,
      "stateMutability": "view",
      "type": "function"
    },
    {
      "constant": true,
      "inputs": [
        {
          "internalType": "string",
          "name": "",
          "type": "string"
        }
      ],
      "name": "PublicKey_User",
      "outputs": [
        {
          "internalType": "string",
          "name": "publicKey",
          "type": "string"
        },
        {
          "internalType": "string",
          "name": "userName",
          "type": "string"
        },
        {
          "internalType": "uint256",
          "name": "subscribersCount",
          "type": "uint256"
        }
      ],
      "payable": false,
      "stateMutability": "view",
      "type": "function"
    },
    {
      "constant": true,
      "inputs": [
        {
          "internalType": "uint256",
          "name": "",
          "type": "uint256"
        }
      ],
      "name": "Tag1_Videos",
      "outputs": [
        {
          "internalType": "uint256",
          "name": "",
          "type": "uint256"
        }
      ],
      "payable": false,
      "stateMutability": "view",
      "type": "function"
    },
    {
      "constant": true,
      "inputs": [
        {
          "internalType": "uint256",
          "name": "",
          "type": "uint256"
        }
      ],
      "name": "Tag2_Videos",
      "outputs": [
        {
          "internalType": "uint256",
          "name": "",
          "type": "uint256"
        }
      ],
      "payable": false,
      "stateMutability": "view",
      "type": "function"
    },
    {
      "constant": true,
      "inputs": [
        {
          "internalType": "uint256",
          "name": "",
          "type": "uint256"
        }
      ],
      "name": "Tag3_Videos",
      "outputs": [
        {
          "internalType": "uint256",
          "name": "",
          "type": "uint256"
        }
      ],
      "payable": false,
      "stateMutability": "view",
      "type": "function"
    },
    {
      "constant": true,
      "inputs": [
        {
          "internalType": "string",
          "name": "",
          "type": "string"
        }
      ],
      "name": "Title_Video",
      "outputs": [
        {
          "internalType": "uint256",
          "name": "",
          "type": "uint256"
        }
      ],
      "payable": false,
      "stateMutability": "view",
      "type": "function"
    },
    {
      "constant": true,
      "inputs": [
        {
          "internalType": "string",
          "name": "",
          "type": "string"
        }
      ],
      "name": "UserName_User",
      "outputs": [
        {
          "internalType": "string",
          "name": "",
          "type": "string"
        }
      ],
      "payable": false,
      "stateMutability": "view",
      "type": "function"
    },
    {
      "constant": true,
      "inputs": [
        {
          "internalType": "string",
          "name": "",
          "type": "string"
        },
        {
          "internalType": "uint256",
          "name": "",
          "type": "uint256"
        }
      ],
      "name": "User_Videos",
      "outputs": [
        {
          "internalType": "uint256",
          "name": "",
          "type": "uint256"
        }
      ],
      "payable": false,
      "stateMutability": "view",
      "type": "function"
    },
    {
      "constant": true,
      "inputs": [],
      "name": "name",
      "outputs": [
        {
          "internalType": "string",
          "name": "",
          "type": "string"
        }
      ],
      "payable": false,
      "stateMutability": "view",
      "type": "function"
    },
    {
      "constant": true,
      "inputs": [],
      "name": "usersCount",
      "outputs": [
        {
          "internalType": "uint256",
          "name": "",
          "type": "uint256"
        }
      ],
      "payable": false,
      "stateMutability": "view",
      "type": "function"
    },
    {
      "constant": true,
      "inputs": [],
      "name": "videoCount",
      "outputs": [
        {
          "internalType": "uint256",
          "name": "",
          "type": "uint256"
        }
      ],
      "payable": false,
      "stateMutability": "view",
      "type": "function"
    },
    {
      "constant": true,
      "inputs": [
        {
          "internalType": "string",
          "name": "_publicKey",
          "type": "string"
        }
      ],
      "name": "getUserSubscriptions",
      "outputs": [
        {
          "internalType": "string[]",
          "name": "",
          "type": "string[]"
        }
      ],
      "payable": false,
      "stateMutability": "view",
      "type": "function"
    },
    {
      "constant": true,
      "inputs": [
        {
          "internalType": "string",
          "name": "_publicKey",
          "type": "string"
        },
        {
          "internalType": "string",
          "name": "_playlist",
          "type": "string"
        }
      ],
      "name": "getUserPlaylist",
      "outputs": [
        {
          "internalType": "uint256[]",
          "name": "",
          "type": "uint256[]"
        }
      ],
      "payable": false,
      "stateMutability": "view",
      "type": "function"
    },
    {
      "constant": true,
      "inputs": [
        {
          "internalType": "uint256",
          "name": "_videoId",
          "type": "uint256"
        }
      ],
      "name": "getVideoComments",
      "outputs": [
        {
          "internalType": "string[]",
          "name": "",
          "type": "string[]"
        }
      ],
      "payable": false,
      "stateMutability": "view",
      "type": "function"
    },
    {
      "constant": false,
      "inputs": [
        {
          "internalType": "string",
          "name": "_userName",
          "type": "string"
        },
        {
          "internalType": "string",
          "name": "_publicKey",
          "type": "string"
        }
      ],
      "name": "signup",
      "outputs": [],
      "payable": false,
      "stateMutability": "nonpayable",
      "type": "function"
    },
    {
      "constant": false,
      "inputs": [
        {
          "internalType": "string[]",
          "name": "_type",
          "type": "string[]"
        },
        {
          "internalType": "string[]",
          "name": "_userId",
          "type": "string[]"
        },
        {
          "internalType": "string[]",
          "name": "_timestamp",
          "type": "string[]"
        },
        {
          "internalType": "string[][]",
          "name": "_params",
          "type": "string[][]"
        }
      ],
      "name": "transactions",
      "outputs": [],
      "payable": false,
      "stateMutability": "nonpayable",
      "type": "function"
    },
    {
      "constant": false,
      "inputs": [
        {
          "internalType": "string",
          "name": "_userId",
          "type": "string"
        },
        {
          "internalType": "uint256",
          "name": "_videoId",
          "type": "uint256"
        }
      ],
      "name": "watch",
      "outputs": [],
      "payable": false,
      "stateMutability": "nonpayable",
      "type": "function"
    },
    {
      "constant": false,
      "inputs": [
        {
          "internalType": "string",
          "name": "_userId",
          "type": "string"
        },
        {
          "internalType": "uint256",
          "name": "_videoId",
          "type": "uint256"
        }
      ],
      "name": "like",
      "outputs": [],
      "payable": false,
      "stateMutability": "nonpayable",
      "type": "function"
    },
    {
      "constant": false,
      "inputs": [
        {
          "internalType": "string",
          "name": "_userId",
          "type": "string"
        },
        {
          "internalType": "uint256",
          "name": "_videoId",
          "type": "uint256"
        }
      ],
      "name": "save",
      "outputs": [],
      "payable": false,
      "stateMutability": "nonpayable",
      "type": "function"
    },
    {
      "constant": false,
      "inputs": [
        {
          "internalType": "uint256",
          "name": "_videoId",
          "type": "uint256"
        },
        {
          "internalType": "string",
          "name": "_comment",
          "type": "string"
        }
      ],
      "name": "comment",
      "outputs": [],
      "payable": false,
      "stateMutability": "nonpayable",
      "type": "function"
    },
    {
      "constant": false,
      "inputs": [
        {
          "internalType": "string",
          "name": "_userId",
          "type": "string"
        },
        {
          "internalType": "string",
          "name": "_subscribedUserId",
          "type": "string"
        }
      ],
      "name": "subscribe",
      "outputs": [],
      "payable": false,
      "stateMutability": "nonpayable",
      "type": "function"
    },
    {
      "constant": false,
      "inputs": [
        {
          "internalType": "string",
          "name": "_hash",
          "type": "string"
        },
        {
          "internalType": "string",
          "name": "_title",
          "type": "string"
        },
        {
          "internalType": "string",
          "name": "_time",
          "type": "string"
        },
        {
          "internalType": "string",
          "name": "_description",
          "type": "string"
        },
        {
          "internalType": "uint256",
          "name": "_tags",
          "type": "uint256"
        },
        {
          "internalType": "string",
          "name": "_creatorId",
          "type": "string"
        }
      ],
      "name": "uploadVideo",
      "outputs": [],
      "payable": false,
      "stateMutability": "nonpayable",
      "type": "function"
    },
    {
      "constant": true,
      "inputs": [
        {
          "internalType": "string",
          "name": "s",
          "type": "string"
        }
      ],
      "name": "stringToUint",
      "outputs": [
        {
          "internalType": "uint256",
          "name": "result",
          "type": "uint256"
        }
      ],
      "payable": false,
      "stateMutability": "pure",
      "type": "function"
    }
  ],
  "bytecode": "0x60806040526000805560006001556040518060400160405280600781526020017f5072696d61727900000000000000000000000000000000000000000000000000815250600290805190602001906200005a9291906200006f565b503480156200006857600080fd5b506200011e565b828054600181600116156101000203166002900490600052602060002090601f016020900481019282601f10620000b257805160ff1916838001178555620000e3565b82800160010185558215620000e3579182015b82811115620000e2578251825591602001919060010190620000c5565b5b509050620000f29190620000f6565b5090565b6200011b91905b8082111562000117576000816000905550600101620000fd565b5090565b90565b6129e7806200012e6000396000f3fe608060405234801561001057600080fd5b506004361061014d5760003560e01c806347e70e64116100c3578063b66cab0f1161007c578063b66cab0f146103f0578063bbd5cf2f14610420578063c00f123d1461043c578063c61b5f4c1461046c578063daf6160c1461048a578063e12e4fa0146104ba5761014d565b806347e70e64146103085780636ba13a82146103245780637c47d262146103425780637d8379b81461035e5780637e642989146103905780639e227b10146103c05761014d565b80631bd95155116101155780631bd9515514610210578063228528451461024057806329b754221461027057806332fca881146102a0578063346d4d66146102d05780633c04c015146102ec5761014d565b806305f79ed81461015257806306fdde031461018a57806307dba6bf146101a8578063138b0787146101c45780631805c523146101f4575b600080fd5b61016c600480360361016791908101906120c4565b6104d6565b604051610181999897969594939291906126ce565b60405180910390f35b61019261081c565b60405161019f919061264c565b60405180910390f35b6101c260048036036101bd919081019061201c565b6108ba565b005b6101de60048036036101d99190810190611e2d565b610923565b6040516101eb91906126b3565b60405180910390f35b61020e600480360361020991908101906120ed565b610951565b005b61022a60048036036102259190810190611e6e565b6109a8565b60405161023791906126b3565b60405180910390f35b61025a60048036036102559190810190611e6e565b610a1b565b6040516102679190612608565b60405180910390f35b61028a60048036036102859190810190611eaf565b610b25565b604051610297919061262a565b60405180910390f35b6102ba60048036036102b591908101906120c4565b610bbb565b6040516102c791906126b3565b60405180910390f35b6102ea60048036036102e59190810190611d6a565b610bdc565b005b6103066004803603610301919081019061201c565b6110dc565b005b610322600480360361031d9190810190611eaf565b61116b565b005b61032c61125b565b60405161033991906126b3565b60405180910390f35b61035c60048036036103579190810190611f1b565b611261565b005b61037860048036036103739190810190611e2d565b6114da565b6040516103879392919061266e565b60405180910390f35b6103aa60048036036103a59190810190612070565b61164a565b6040516103b791906126b3565b60405180910390f35b6103da60048036036103d59190810190611e2d565b61168e565b6040516103e7919061264c565b60405180910390f35b61040a600480360361040591908101906120c4565b611754565b60405161041791906126b3565b60405180910390f35b61043a60048036036104359190810190611eaf565b611775565b005b610456600480360361045191908101906120c4565b611808565b60405161046391906126b3565b60405180910390f35b610474611829565b60405161048191906126b3565b60405180910390f35b6104a4600480360361049f91908101906120c4565b61182f565b6040516104b19190612608565b60405180910390f35b6104d460048036036104cf919081019061201c565b61192e565b005b6003602052806000526040600020600091509050806000015490806001018054600181600116156101000203166002900480601f0160208091040260200160405190810160405280929190818152602001828054600181600116156101000203166002900480156105885780601f1061055d57610100808354040283529160200191610588565b820191906000526020600020905b81548152906001019060200180831161056b57829003601f168201915b505050505090806002018054600181600116156101000203166002900480601f0160208091040260200160405190810160405280929190818152602001828054600181600116156101000203166002900480156106265780601f106105fb57610100808354040283529160200191610626565b820191906000526020600020905b81548152906001019060200180831161060957829003601f168201915b505050505090806003018054600181600116156101000203166002900480601f0160208091040260200160405190810160405280929190818152602001828054600181600116156101000203166002900480156106c45780601f10610699576101008083540402835291602001916106c4565b820191906000526020600020905b8154815290600101906020018083116106a757829003601f168201915b505050505090806004018054600181600116156101000203166002900480601f0160208091040260200160405190810160405280929190818152602001828054600181600116156101000203166002900480156107625780601f1061073757610100808354040283529160200191610762565b820191906000526020600020905b81548152906001019060200180831161074557829003601f168201915b505050505090806006015490806007015490806008015490806009018054600181600116156101000203166002900480601f0160208091040260200160405190810160405280929190818152602001828054600181600116156101000203166002900480156108125780601f106107e757610100808354040283529160200191610812565b820191906000526020600020905b8154815290600101906020018083116107f557829003601f168201915b5050505050905089565b60028054600181600116156101000203166002900480601f0160208091040260200160405190810160405280929190818152602001828054600181600116156101000203166002900480156108b25780601f10610887576101008083540402835291602001916108b2565b820191906000526020600020905b81548152906001019060200180831161089557829003601f168201915b505050505081565b6009826040516108ca9190612549565b90815260200160405180910390206004016040516108e790612575565b90815260200160405180910390208190806001815401808255809150509060018203906000526020600020016000909192909190915055505050565b6007818051602081018201805184825260208301602085012081835280955050505050506000915090505481565b600360008381526020019081526020016000206005018190806001815401808255809150509060018203906000526020600020016000909192909190915090805190602001906109a2929190611958565b50505050565b600060608290506000809250600090505b8151811015610a145760008282815181106109d057fe5b602001015160f81c60f81b60f81c60ff169050603081101580156109f5575060398111155b15610a065760308103600a85020193505b5080806001019150506109b9565b5050919050565b6060600982604051610a2d9190612549565b9081526020016040518091039020600201805480602002602001604051908101604052809291908181526020016000905b82821015610b1a578382906000526020600020018054600181600116156101000203166002900480601f016020809104026020016040519081016040528092919081815260200182805460018160011615610100020316600290048015610b065780601f10610adb57610100808354040283529160200191610b06565b820191906000526020600020905b815481529060010190602001808311610ae957829003601f168201915b505050505081526020019060010190610a5e565b505050509050919050565b6060600983604051610b379190612549565b908152602001604051809103902060040182604051610b569190612549565b9081526020016040518091039020805480602002602001604051908101604052809291908181526020018280548015610bae57602002820191906000526020600020905b815481526020019060010190808311610b9a575b5050505050905092915050565b60058181548110610bc857fe5b906000526020600020016000915090505481565b60008090505b84518110156110d557604051602001610bfa9061259f565b60405160208183030381529060405280519060200120858281518110610c1c57fe5b6020026020010151604051602001610c349190612532565b604051602081830303815290604052805190602001201415610ca157610c9c848281518110610c5f57fe5b6020026020010151610c97848481518110610c7657fe5b6020026020010151600081518110610c8a57fe5b60200260200101516109a8565b61192e565b6110c8565b604051602001610cb090612560565b60405160208183030381529060405280519060200120858281518110610cd257fe5b6020026020010151604051602001610cea9190612532565b604051602081830303815290604052805190602001201415610d5757610d52848281518110610d1557fe5b6020026020010151610d4d848481518110610d2c57fe5b6020026020010151600081518110610d4057fe5b60200260200101516109a8565b6110dc565b6110c7565b604051602001610d66906125f3565b60405160208183030381529060405280519060200120858281518110610d8857fe5b6020026020010151604051602001610da09190612532565b604051602081830303815290604052805190602001201415610e2157610e1c610def838381518110610dce57fe5b6020026020010151600081518110610de257fe5b60200260200101516109a8565b838381518110610dfb57fe5b6020026020010151600181518110610e0f57fe5b6020026020010151610951565b6110c6565b604051602001610e30906125de565b60405160208183030381529060405280519060200120858281518110610e5257fe5b6020026020010151604051602001610e6a9190612532565b604051602081830303815290604052805190602001201415610ecf57610eca848281518110610e9557fe5b6020026020010151838381518110610ea957fe5b6020026020010151600081518110610ebd57fe5b6020026020010151611775565b6110c5565b604051602001610ede906125c9565b60405160208183030381529060405280519060200120858281518110610f0057fe5b6020026020010151604051602001610f189190612532565b604051602081830303815290604052805190602001201415610f8557610f80848281518110610f4357fe5b6020026020010151610f7b848481518110610f5a57fe5b6020026020010151600081518110610f6e57fe5b60200260200101516109a8565b6108ba565b6110c4565b604051602001610f94906125b4565b60405160208183030381529060405280519060200120858281518110610fb657fe5b6020026020010151604051602001610fce9190612532565b6040516020818303038152906040528051906020012014156110c3576110c2828281518110610ff957fe5b602002602001015160038151811061100d57fe5b602002602001015183838151811061102157fe5b602002602001015160008151811061103557fe5b602002602001015185848151811061104957fe5b602002602001015185858151811061105d57fe5b602002602001015160018151811061107157fe5b60200260200101516110a987878151811061108857fe5b602002602001015160028151811061109c57fe5b60200260200101516109a8565b8987815181106110b557fe5b6020026020010151611261565b5b5b5b5b5b5b8080600101915050610be2565b5050505050565b60036000828152602001908152602001600020600701600081548092919060010191905055506009826040516111129190612549565b908152602001604051809103902060040160405161112f9061258a565b90815260200160405180910390208190806001815401808255809150509060018203906000526020600020016000909192909190915055505050565b6001600081548092919060010191905055506060604051806080016040528083815260200184815260200182815260200160008152506009836040516111b19190612549565b908152602001604051809103902060008201518160000190805190602001906111db9291906119d8565b5060208201518160010190805190602001906111f89291906119d8565b506040820151816002019080519060200190611215929190611a58565b506060820151816003015590505081600a846040516112349190612549565b90815260200160405180910390209080519060200190611255929190611958565b50505050565b60015481565b60008081548092919060010191905055506060604051806101400160405280600054815260200188815260200187815260200186815260200185815260200182815260200160008152602001600081526020018481526020018381525060036000805481526020019081526020016000206000820151816000015560208201518160010190805190602001906112f89291906119d8565b5060408201518160020190805190602001906113159291906119d8565b5060608201518160030190805190602001906113329291906119d8565b50608082015181600401908051906020019061134f9291906119d8565b5060a082015181600501908051906020019061136c929190611a58565b5060c0820151816006015560e0820151816007015561010082015181600801556101208201518160090190805190602001906113a99291906119d8565b509050506000546007876040516113c09190612549565b9081526020016040518091039020819055506008826040516113e29190612549565b908152602001604051809103902060005490806001815401808255809150509060018203906000526020600020016000909192909190915055506000600184161461145657600460005490806001815401808255809150509060018203906000526020600020016000909192909190915055505b600060018085901c161461149357600560005490806001815401808255809150509060018203906000526020600020016000909192909190915055505b60006001600285901c16146114d157600660005490806001815401808255809150509060018203906000526020600020016000909192909190915055505b50505050505050565b600981805160208101820180518482526020830160208501208183528095505050505050600091509050806000018054600181600116156101000203166002900480601f01602080910402602001604051908101604052809291908181526020018280546001816001161561010002031660029004801561159c5780601f106115715761010080835404028352916020019161159c565b820191906000526020600020905b81548152906001019060200180831161157f57829003601f168201915b505050505090806001018054600181600116156101000203166002900480601f01602080910402602001604051908101604052809291908181526020018280546001816001161561010002031660029004801561163a5780601f1061160f5761010080835404028352916020019161163a565b820191906000526020600020905b81548152906001019060200180831161161d57829003601f168201915b5050505050908060030154905083565b600882805160208101820180518482526020830160208501208183528095505050505050818154811061167957fe5b90600052602060002001600091509150505481565b600a818051602081018201805184825260208301602085012081835280955050505050506000915090508054600181600116156101000203166002900480601f01602080910402602001604051908101604052809291908181526020018280546001816001161561010002031660029004801561174c5780601f106117215761010080835404028352916020019161174c565b820191906000526020600020905b81548152906001019060200180831161172f57829003601f168201915b505050505081565b6004818154811061176157fe5b906000526020600020016000915090505481565b6009826040516117859190612549565b90815260200160405180910390206002018190806001815401808255809150509060018203906000526020600020016000909192909190915090805190602001906117d1929190611958565b50506009816040516117e39190612549565b9081526020016040518091039020600301600081548092919060010191905055505050565b6006818154811061181557fe5b906000526020600020016000915090505481565b60005481565b606060036000838152602001908152602001600020600501805480602002602001604051908101604052809291908181526020016000905b82821015611923578382906000526020600020018054600181600116156101000203166002900480601f01602080910402602001604051908101604052809291908181526020018280546001816001161561010002031660029004801561190f5780601f106118e45761010080835404028352916020019161190f565b820191906000526020600020905b8154815290600101906020018083116118f257829003601f168201915b505050505081526020019060010190611867565b505050509050919050565b60036000828152602001908152602001600020600601600081548092919060010191905055505050565b828054600181600116156101000203166002900490600052602060002090601f016020900481019282601f1061199957805160ff19168380011785556119c7565b828001600101855582156119c7579182015b828111156119c65782518255916020019190600101906119ab565b5b5090506119d49190611ab8565b5090565b828054600181600116156101000203166002900490600052602060002090601f016020900481019282601f10611a1957805160ff1916838001178555611a47565b82800160010185558215611a47579182015b82811115611a46578251825591602001919060010190611a2b565b5b509050611a549190611ab8565b5090565b828054828255906000526020600020908101928215611aa7579160200282015b82811115611aa6578251829080519060200190611a969291906119d8565b5091602001919060010190611a78565b5b509050611ab49190611add565b5090565b611ada91905b80821115611ad6576000816000905550600101611abe565b5090565b90565b611b0691905b80821115611b025760008181611af99190611b09565b50600101611ae3565b5090565b90565b50805460018160011615610100020316600290046000825580601f10611b2f5750611b4e565b601f016020900490600052602060002090810190611b4d9190611ab8565b5b50565b600082601f830112611b6257600080fd5b8135611b75611b70826127ab565b61277e565b9150818183526020840193506020810190508360005b83811015611bbb5781358601611ba18882611bc5565b845260208401935060208301925050600181019050611b8b565b5050505092915050565b600082601f830112611bd657600080fd5b8135611be9611be4826127d3565b61277e565b9150818183526020840193506020810190508360005b83811015611c2f5781358601611c158882611cad565b845260208401935060208301925050600181019050611bff565b5050505092915050565b600082601f830112611c4a57600080fd5b8135611c5d611c58826127fb565b61277e565b9150818183526020840193506020810190508360005b83811015611ca35781358601611c898882611cad565b845260208401935060208301925050600181019050611c73565b5050505092915050565b600082601f830112611cbe57600080fd5b8135611cd1611ccc82612823565b61277e565b91508082526020830160208301858383011115611ced57600080fd5b611cf883828461293a565b50505092915050565b600082601f830112611d1257600080fd5b8135611d25611d208261284f565b61277e565b91508082526020830160208301858383011115611d4157600080fd5b611d4c83828461293a565b50505092915050565b600081359050611d648161298d565b92915050565b60008060008060808587031215611d8057600080fd5b600085013567ffffffffffffffff811115611d9a57600080fd5b611da687828801611c39565b945050602085013567ffffffffffffffff811115611dc357600080fd5b611dcf87828801611c39565b935050604085013567ffffffffffffffff811115611dec57600080fd5b611df887828801611c39565b925050606085013567ffffffffffffffff811115611e1557600080fd5b611e2187828801611b51565b91505092959194509250565b600060208284031215611e3f57600080fd5b600082013567ffffffffffffffff811115611e5957600080fd5b611e6584828501611cad565b91505092915050565b600060208284031215611e8057600080fd5b600082013567ffffffffffffffff811115611e9a57600080fd5b611ea684828501611d01565b91505092915050565b60008060408385031215611ec257600080fd5b600083013567ffffffffffffffff811115611edc57600080fd5b611ee885828601611d01565b925050602083013567ffffffffffffffff811115611f0557600080fd5b611f1185828601611d01565b9150509250929050565b60008060008060008060c08789031215611f3457600080fd5b600087013567ffffffffffffffff811115611f4e57600080fd5b611f5a89828a01611d01565b965050602087013567ffffffffffffffff811115611f7757600080fd5b611f8389828a01611d01565b955050604087013567ffffffffffffffff811115611fa057600080fd5b611fac89828a01611d01565b945050606087013567ffffffffffffffff811115611fc957600080fd5b611fd589828a01611d01565b9350506080611fe689828a01611d55565b92505060a087013567ffffffffffffffff81111561200357600080fd5b61200f89828a01611d01565b9150509295509295509295565b6000806040838503121561202f57600080fd5b600083013567ffffffffffffffff81111561204957600080fd5b61205585828601611d01565b925050602061206685828601611d55565b9150509250929050565b6000806040838503121561208357600080fd5b600083013567ffffffffffffffff81111561209d57600080fd5b6120a985828601611cad565b92505060206120ba85828601611d55565b9150509250929050565b6000602082840312156120d657600080fd5b60006120e484828501611d55565b91505092915050565b6000806040838503121561210057600080fd5b600061210e85828601611d55565b925050602083013567ffffffffffffffff81111561212b57600080fd5b61213785828601611d01565b9150509250929050565b600061214d8383612271565b905092915050565b60006121618383612514565b60208301905092915050565b60006121788261289b565b61218281856128e1565b9350836020820285016121948561287b565b8060005b858110156121d057848403895281516121b18582612141565b94506121bc836128c7565b925060208a01995050600181019050612198565b50829750879550505050505092915050565b60006121ed826128a6565b6121f781856128f2565b93506122028361288b565b8060005b8381101561223357815161221a8882612155565b9750612225836128d4565b925050600181019050612206565b5085935050505092915050565b600061224b826128bc565b6122558185612925565b9350612265818560208601612949565b80840191505092915050565b600061227c826128b1565b6122868185612903565b9350612296818560208601612949565b61229f8161297c565b840191505092915050565b60006122b5826128b1565b6122bf8185612914565b93506122cf818560208601612949565b6122d88161297c565b840191505092915050565b60006122ee826128b1565b6122f88185612925565b9350612308818560208601612949565b80840191505092915050565b6000612321600483612925565b91507f6c696b65000000000000000000000000000000000000000000000000000000006000830152600482019050919050565b6000612361600583612925565b91507f6c617465720000000000000000000000000000000000000000000000000000006000830152600582019050919050565b60006123a1600583612925565b91507f6c696b65640000000000000000000000000000000000000000000000000000006000830152600582019050919050565b60006123e1600483612925565b91507f76696577000000000000000000000000000000000000000000000000000000006000830152600482019050919050565b6000612421600683612925565b91507f75706c6f616400000000000000000000000000000000000000000000000000006000830152600682019050919050565b6000612461600483612925565b91507f73617665000000000000000000000000000000000000000000000000000000006000830152600482019050919050565b60006124a1600983612925565b91507f73756273637269626500000000000000000000000000000000000000000000006000830152600982019050919050565b60006124e1600783612925565b91507f636f6d6d656e74000000000000000000000000000000000000000000000000006000830152600782019050919050565b61251d81612930565b82525050565b61252c81612930565b82525050565b600061253e82846122e3565b915081905092915050565b60006125558284612240565b915081905092915050565b600061256b82612314565b9150819050919050565b600061258082612354565b9150819050919050565b600061259582612394565b9150819050919050565b60006125aa826123d4565b9150819050919050565b60006125bf82612414565b9150819050919050565b60006125d482612454565b9150819050919050565b60006125e982612494565b9150819050919050565b60006125fe826124d4565b9150819050919050565b60006020820190508181036000830152612622818461216d565b905092915050565b6000602082019050818103600083015261264481846121e2565b905092915050565b6000602082019050818103600083015261266681846122aa565b905092915050565b6000606082019050818103600083015261268881866122aa565b9050818103602083015261269c81856122aa565b90506126ab6040830184612523565b949350505050565b60006020820190506126c86000830184612523565b92915050565b6000610120820190506126e4600083018c612523565b81810360208301526126f6818b6122aa565b9050818103604083015261270a818a6122aa565b9050818103606083015261271e81896122aa565b9050818103608083015261273281886122aa565b905061274160a0830187612523565b61274e60c0830186612523565b61275b60e0830185612523565b81810361010083015261276e81846122aa565b90509a9950505050505050505050565b6000604051905081810181811067ffffffffffffffff821117156127a157600080fd5b8060405250919050565b600067ffffffffffffffff8211156127c257600080fd5b602082029050602081019050919050565b600067ffffffffffffffff8211156127ea57600080fd5b602082029050602081019050919050565b600067ffffffffffffffff82111561281257600080fd5b602082029050602081019050919050565b600067ffffffffffffffff82111561283a57600080fd5b601f19601f8301169050602081019050919050565b600067ffffffffffffffff82111561286657600080fd5b601f19601f8301169050602081019050919050565b6000819050602082019050919050565b6000819050602082019050919050565b600081519050919050565b600081519050919050565b600081519050919050565b600081519050919050565b6000602082019050919050565b6000602082019050919050565b600082825260208201905092915050565b600082825260208201905092915050565b600082825260208201905092915050565b600082825260208201905092915050565b600081905092915050565b6000819050919050565b82818337600083830152505050565b60005b8381101561296757808201518184015260208101905061294c565b83811115612976576000848401525b50505050565b6000601f19601f8301169050919050565b61299681612930565b81146129a157600080fd5b5056fea365627a7a7231582080c15c7de07e8430b229214ea06fd9d0211a7b49ed55490993aeefe45c8e86ec6c6578706572696d656e74616cf564736f6c63430005100040",
  "source": "pragma solidity ^0.5.16;\r\npragma experimental ABIEncoderV2;\r\n\r\ncontract Primary {\r\n    uint256 public videoCount = 0;\r\n    uint256 public usersCount = 0;\r\n    string public name = \"Primary\";\r\n    mapping(uint256 => Video) public Id_Video;\r\n    uint256[] public Tag1_Videos;\r\n    uint256[] public Tag2_Videos;\r\n    uint256[] public Tag3_Videos;\r\n    mapping(string => uint256) public Title_Video;\r\n    mapping(string => uint256[]) public User_Videos;\r\n    mapping(string => User) public PublicKey_User;\r\n    mapping(string => string) public UserName_User;\r\n\r\n    struct Video {\r\n        uint256 id;\r\n        string hash;\r\n        string title;\r\n        string time;\r\n        string description;\r\n        string[] comments;\r\n        uint256 views;\r\n        uint256 hearts;\r\n        uint256 tags;\r\n        string creatorId;\r\n    }\r\n\r\n    struct User {\r\n        string publicKey;\r\n        string userName;\r\n        string[] subscriptions;\r\n        uint256 subscribersCount;\r\n        mapping(string => uint256[]) Playlist_Videos;\r\n    }\r\n\r\n    constructor() public {}\r\n\r\n    function getUserSubscriptions(string memory _publicKey)\r\n        public\r\n        view\r\n        returns (string[] memory)\r\n    {\r\n        return PublicKey_User[_publicKey].subscriptions;\r\n    }\r\n\r\n    function getUserPlaylist(string memory _publicKey, string memory _playlist)\r\n        public\r\n        view\r\n        returns (uint256[] memory)\r\n    {\r\n        return PublicKey_User[_publicKey].Playlist_Videos[_playlist];\r\n    }\r\n\r\n    function getVideoComments(uint256 _videoId)\r\n        public\r\n        view\r\n        returns (string[] memory)\r\n    {\r\n        return Id_Video[_videoId].comments;\r\n    }\r\n\r\n    function signup(string memory _userName, string memory _publicKey) public {\r\n        usersCount++;\r\n        string[] memory subscriptions;\r\n        PublicKey_User[_publicKey] = User(\r\n            _publicKey,\r\n            _userName,\r\n            subscriptions,\r\n            0\r\n        );\r\n        UserName_User[_userName] = _publicKey;\r\n    }\r\n\r\n    function transactions(\r\n        string[] memory _type,\r\n        string[] memory _userId,\r\n        string[] memory _timestamp,\r\n        string[][] memory _params\r\n    ) public {\r\n        for (\r\n            uint256 transaction = 0;\r\n            transaction < _type.length;\r\n            transaction++\r\n        ) {\r\n            if (\r\n                keccak256(abi.encodePacked(_type[transaction])) ==\r\n                keccak256(abi.encodePacked(\"view\"))\r\n            ) {\r\n                watch(\r\n                    _userId[transaction],\r\n                    stringToUint(_params[transaction][0])\r\n                );\r\n            } else if (\r\n                keccak256(abi.encodePacked(_type[transaction])) ==\r\n                keccak256(abi.encodePacked(\"like\"))\r\n            ) {\r\n                like(\r\n                    _userId[transaction],\r\n                    stringToUint(_params[transaction][0])\r\n                );\r\n            } else if (\r\n                keccak256(abi.encodePacked(_type[transaction])) ==\r\n                keccak256(abi.encodePacked(\"comment\"))\r\n            ) {\r\n                comment(\r\n                    stringToUint(_params[transaction][0]),\r\n                    _params[transaction][1]\r\n                );\r\n            } else if (\r\n                keccak256(abi.encodePacked(_type[transaction])) ==\r\n                keccak256(abi.encodePacked(\"subscribe\"))\r\n            ) {\r\n                subscribe(_userId[transaction], _params[transaction][0]);\r\n            } else if (\r\n                keccak256(abi.encodePacked(_type[transaction])) ==\r\n                keccak256(abi.encodePacked(\"save\"))\r\n            ) {\r\n                save(\r\n                    _userId[transaction],\r\n                    stringToUint(_params[transaction][0])\r\n                );\r\n            } else if (\r\n                keccak256(abi.encodePacked(_type[transaction])) ==\r\n                keccak256(abi.encodePacked(\"upload\"))\r\n            ) {\r\n                uploadVideo(\r\n                    _params[transaction][3],\r\n                    _params[transaction][0],\r\n                    _timestamp[transaction],\r\n                    _params[transaction][1],\r\n                    stringToUint(_params[transaction][2]),\r\n                    _userId[transaction]\r\n                );\r\n            }\r\n        }\r\n    }\r\n\r\n    function watch(string memory _userId, uint256 _videoId) public {\r\n        Id_Video[_videoId].views++;\r\n    }\r\n\r\n    function like(string memory _userId, uint256 _videoId) public {\r\n        Id_Video[_videoId].hearts++;\r\n        PublicKey_User[_userId].Playlist_Videos[\"liked\"].push(_videoId);\r\n    }\r\n\r\n    function save(string memory _userId, uint256 _videoId) public {\r\n        PublicKey_User[_userId].Playlist_Videos[\"later\"].push(_videoId);\r\n    }\r\n\r\n    function comment(uint256 _videoId, string memory _comment) public {\r\n        Id_Video[_videoId].comments.push(_comment);\r\n    }\r\n\r\n    function subscribe(string memory _userId, string memory _subscribedUserId)\r\n        public\r\n    {\r\n        PublicKey_User[_userId].subscriptions.push(_subscribedUserId);\r\n        PublicKey_User[_subscribedUserId].subscribersCount++;\r\n    }\r\n\r\n    function uploadVideo(\r\n        string memory _hash,\r\n        string memory _title,\r\n        string memory _time,\r\n        string memory _description,\r\n        uint256 _tags,\r\n        string memory _creatorId\r\n    ) public {\r\n        videoCount++;\r\n        string[] memory comments;\r\n        Id_Video[videoCount] = Video(\r\n            videoCount,\r\n            _hash,\r\n            _title,\r\n            _time,\r\n            _description,\r\n            comments,\r\n            0,\r\n            0,\r\n            _tags,\r\n            _creatorId\r\n        );\r\n        Title_Video[_title] = videoCount;\r\n        User_Videos[_creatorId].push(videoCount);\r\n        if ((_tags & 1) != 0) {\r\n            Tag1_Videos.push(videoCount);\r\n        }\r\n        if ((_tags >> 1) & 1 != 0) {\r\n            Tag2_Videos.push(videoCount);\r\n        }\r\n        if ((_tags >> 2) & 1 != 0) {\r\n            Tag3_Videos.push(videoCount);\r\n        }\r\n    }\r\n\r\n    function stringToUint(string memory s)\r\n        public\r\n        pure\r\n        returns (uint256 result)\r\n    {\r\n        bytes memory b = bytes(s);\r\n        uint256 i;\r\n        result = 0;\r\n        for (i = 0; i < b.length; i++) {\r\n            uint256 c = uint256(uint8(b[i]));\r\n            if (c >= 48 && c <= 57) {\r\n                result = result * 10 + (c - 48);\r\n            }\r\n        }\r\n    }\r\n}\r\n",
  "sourcePath": "C:\\College NSIT\\Sem 7\\BTP Dtube\\dvideo\\src\\contracts\\Primary.sol",
  "compiler": {
    "name": "solc",
    "version": "0.5.16+commit.9c3226ce.Emscripten.clang"
  },
  "schemaVersion": "3.4.3",
  "updatedAt": "2021-10-19T08:25:32.763Z",
  "networkType": "ethereum",
  "devdoc": {
    "methods": {}
  },
  "userdoc": {
    "methods": {}
  }
}