{
  "contractName": "Primary",
  "abi": [
    {
      "inputs": [],
      "payable": false,
      "stateMutability": "nonpayable",
      "type": "constructor"
    },
    {
      "anonymous": false,
      "inputs": [
        {
          "indexed": false,
          "internalType": "uint256",
          "name": "id",
          "type": "uint256"
        },
        {
          "indexed": false,
          "internalType": "string",
          "name": "hash",
          "type": "string"
        },
        {
          "indexed": false,
          "internalType": "string",
          "name": "title",
          "type": "string"
        },
        {
          "indexed": false,
          "internalType": "address",
          "name": "author",
          "type": "address"
        }
      ],
      "name": "VideoUploaded",
      "type": "event"
    },
    {
      "constant": true,
      "inputs": [
        {
          "internalType": "uint256",
          "name": "",
          "type": "uint256"
        }
      ],
      "name": "Id_Video",
      "outputs": [
        {
          "internalType": "uint256",
          "name": "id",
          "type": "uint256"
        },
        {
          "internalType": "string",
          "name": "hash",
          "type": "string"
        },
        {
          "internalType": "string",
          "name": "title",
          "type": "string"
        },
        {
          "internalType": "string",
          "name": "time",
          "type": "string"
        },
        {
          "internalType": "string",
          "name": "description",
          "type": "string"
        },
        {
          "internalType": "uint256",
          "name": "views",
          "type": "uint256"
        },
        {
          "internalType": "uint256",
          "name": "hearts",
          "type": "uint256"
        },
        {
          "internalType": "uint256",
          "name": "tags",
          "type": "uint256"
        },
        {
          "internalType": "string",
          "name": "creatorId",
          "type": "string"
        }
      ],
      "payable": false,
      "stateMutability": "view",
      "type": "function"
    },
    {
      "constant": true,
      "inputs": [
        {
          "internalType": "string",
          "name": "",
          "type": "string"
        }
      ],
      "name": "PublicKey_User",
      "outputs": [
        {
          "internalType": "string",
          "name": "publicKey",
          "type": "string"
        },
        {
          "internalType": "string",
          "name": "userName",
          "type": "string"
        },
        {
          "internalType": "uint256",
          "name": "subscribersCount",
          "type": "uint256"
        }
      ],
      "payable": false,
      "stateMutability": "view",
      "type": "function"
    },
    {
      "constant": true,
      "inputs": [
        {
          "internalType": "uint256",
          "name": "",
          "type": "uint256"
        }
      ],
      "name": "Tag1_Videos",
      "outputs": [
        {
          "internalType": "uint256",
          "name": "",
          "type": "uint256"
        }
      ],
      "payable": false,
      "stateMutability": "view",
      "type": "function"
    },
    {
      "constant": true,
      "inputs": [
        {
          "internalType": "uint256",
          "name": "",
          "type": "uint256"
        }
      ],
      "name": "Tag2_Videos",
      "outputs": [
        {
          "internalType": "uint256",
          "name": "",
          "type": "uint256"
        }
      ],
      "payable": false,
      "stateMutability": "view",
      "type": "function"
    },
    {
      "constant": true,
      "inputs": [
        {
          "internalType": "uint256",
          "name": "",
          "type": "uint256"
        }
      ],
      "name": "Tag3_Videos",
      "outputs": [
        {
          "internalType": "uint256",
          "name": "",
          "type": "uint256"
        }
      ],
      "payable": false,
      "stateMutability": "view",
      "type": "function"
    },
    {
      "constant": true,
      "inputs": [
        {
          "internalType": "string",
          "name": "",
          "type": "string"
        }
      ],
      "name": "Title_Video",
      "outputs": [
        {
          "internalType": "uint256",
          "name": "",
          "type": "uint256"
        }
      ],
      "payable": false,
      "stateMutability": "view",
      "type": "function"
    },
    {
      "constant": true,
      "inputs": [
        {
          "internalType": "string",
          "name": "",
          "type": "string"
        },
        {
          "internalType": "uint256",
          "name": "",
          "type": "uint256"
        }
      ],
      "name": "User_Videos",
      "outputs": [
        {
          "internalType": "uint256",
          "name": "",
          "type": "uint256"
        }
      ],
      "payable": false,
      "stateMutability": "view",
      "type": "function"
    },
    {
      "constant": true,
      "inputs": [],
      "name": "name",
      "outputs": [
        {
          "internalType": "string",
          "name": "",
          "type": "string"
        }
      ],
      "payable": false,
      "stateMutability": "view",
      "type": "function"
    },
    {
      "constant": true,
      "inputs": [],
      "name": "usersCount",
      "outputs": [
        {
          "internalType": "uint256",
          "name": "",
          "type": "uint256"
        }
      ],
      "payable": false,
      "stateMutability": "view",
      "type": "function"
    },
    {
      "constant": true,
      "inputs": [],
      "name": "videoCount",
      "outputs": [
        {
          "internalType": "uint256",
          "name": "",
          "type": "uint256"
        }
      ],
      "payable": false,
      "stateMutability": "view",
      "type": "function"
    },
    {
      "constant": false,
      "inputs": [
        {
          "internalType": "string",
          "name": "_userName",
          "type": "string"
        },
        {
          "internalType": "string",
          "name": "_publicKey",
          "type": "string"
        }
      ],
      "name": "signup",
      "outputs": [],
      "payable": false,
      "stateMutability": "nonpayable",
      "type": "function"
    },
    {
      "constant": false,
      "inputs": [
        {
          "internalType": "string[]",
          "name": "_type",
          "type": "string[]"
        },
        {
          "internalType": "string[]",
          "name": "_userId",
          "type": "string[]"
        },
        {
          "internalType": "string[]",
          "name": "_timestamp",
          "type": "string[]"
        },
        {
          "internalType": "string[][]",
          "name": "_params",
          "type": "string[][]"
        }
      ],
      "name": "transactions",
      "outputs": [],
      "payable": false,
      "stateMutability": "nonpayable",
      "type": "function"
    },
    {
      "constant": false,
      "inputs": [
        {
          "internalType": "string",
          "name": "_userId",
          "type": "string"
        },
        {
          "internalType": "uint256",
          "name": "_videoId",
          "type": "uint256"
        }
      ],
      "name": "watch",
      "outputs": [],
      "payable": false,
      "stateMutability": "nonpayable",
      "type": "function"
    },
    {
      "constant": false,
      "inputs": [
        {
          "internalType": "string",
          "name": "_userId",
          "type": "string"
        },
        {
          "internalType": "uint256",
          "name": "_videoId",
          "type": "uint256"
        }
      ],
      "name": "like",
      "outputs": [],
      "payable": false,
      "stateMutability": "nonpayable",
      "type": "function"
    },
    {
      "constant": false,
      "inputs": [
        {
          "internalType": "uint256",
          "name": "_videoId",
          "type": "uint256"
        },
        {
          "internalType": "string",
          "name": "_comment",
          "type": "string"
        }
      ],
      "name": "comment",
      "outputs": [],
      "payable": false,
      "stateMutability": "nonpayable",
      "type": "function"
    },
    {
      "constant": false,
      "inputs": [
        {
          "internalType": "string",
          "name": "_userId",
          "type": "string"
        },
        {
          "internalType": "string",
          "name": "_subscribedUserId",
          "type": "string"
        }
      ],
      "name": "subscribe",
      "outputs": [],
      "payable": false,
      "stateMutability": "nonpayable",
      "type": "function"
    },
    {
      "constant": false,
      "inputs": [
        {
          "internalType": "string",
          "name": "_hash",
          "type": "string"
        },
        {
          "internalType": "string",
          "name": "_title",
          "type": "string"
        },
        {
          "internalType": "string",
          "name": "_time",
          "type": "string"
        },
        {
          "internalType": "string",
          "name": "_description",
          "type": "string"
        },
        {
          "internalType": "uint256",
          "name": "_tags",
          "type": "uint256"
        },
        {
          "internalType": "string",
          "name": "_creatorId",
          "type": "string"
        }
      ],
      "name": "uploadVideo",
      "outputs": [],
      "payable": false,
      "stateMutability": "nonpayable",
      "type": "function"
    },
    {
      "constant": true,
      "inputs": [
        {
          "internalType": "string",
          "name": "s",
          "type": "string"
        }
      ],
      "name": "stringToUint",
      "outputs": [
        {
          "internalType": "uint256",
          "name": "result",
          "type": "uint256"
        }
      ],
      "payable": false,
      "stateMutability": "view",
      "type": "function"
    }
  ],
  "bytecode": "0x60806040526000805560006001556040518060400160405280600781526020017f5072696d61727900000000000000000000000000000000000000000000000000815250600290805190602001906200005a9291906200006f565b503480156200006857600080fd5b506200011e565b828054600181600116156101000203166002900490600052602060002090601f016020900481019282601f10620000b257805160ff1916838001178555620000e3565b82800160010185558215620000e3579182015b82811115620000e2578251825591602001919060010190620000c5565b5b509050620000f29190620000f6565b5090565b6200011b91905b8082111562000117576000816000905550600101620000fd565b5090565b90565b61221e806200012e6000396000f3fe608060405234801561001057600080fd5b50600436106101165760003560e01c80636ba13a82116100a2578063b66cab0f11610071578063b66cab0f1461030d578063bbd5cf2f1461033d578063c00f123d14610359578063c61b5f4c14610389578063e12e4fa0146103a757610116565b80636ba13a82146102715780637c47d2621461028f5780637d8379b8146102ab5780637e642989146102dd57610116565b80631bd95155116100e95780631bd95155146101bd57806332fca881146101ed578063346d4d661461021d5780633c04c0151461023957806347e70e641461025557610116565b806305f79ed81461011b57806306fdde0314610153578063138b0787146101715780631805c523146101a1575b600080fd5b61013560048036036101309190810190611b5e565b6103c3565b60405161014a99989796959493929190611f88565b60405180910390f35b61015b610709565b6040516101689190611f06565b60405180910390f35b61018b600480360361018691908101906118c7565b6107a7565b6040516101989190611f6d565b60405180910390f35b6101bb60048036036101b69190810190611b87565b6107d5565b005b6101d760048036036101d29190810190611908565b61082c565b6040516101e49190611f6d565b60405180910390f35b61020760048036036102029190810190611b5e565b61089f565b6040516102149190611f6d565b60405180910390f35b61023760048036036102329190810190611804565b6108c0565b005b610253600480360361024e9190810190611ab6565b610d09565b005b61026f600480360361026a9190810190611949565b610d98565b005b610279610e55565b6040516102869190611f6d565b60405180910390f35b6102a960048036036102a491908101906119b5565b610e5b565b005b6102c560048036036102c091908101906118c7565b6110d4565b6040516102d493929190611f28565b60405180910390f35b6102f760048036036102f29190810190611b0a565b611244565b6040516103049190611f6d565b60405180910390f35b61032760048036036103229190810190611b5e565b611288565b6040516103349190611f6d565b60405180910390f35b61035760048036036103529190810190611949565b6112a9565b005b610373600480360361036e9190810190611b5e565b61133c565b6040516103809190611f6d565b60405180910390f35b61039161135d565b60405161039e9190611f6d565b60405180910390f35b6103c160048036036103bc9190810190611ab6565b611363565b005b6003602052806000526040600020600091509050806000015490806001018054600181600116156101000203166002900480601f0160208091040260200160405190810160405280929190818152602001828054600181600116156101000203166002900480156104755780601f1061044a57610100808354040283529160200191610475565b820191906000526020600020905b81548152906001019060200180831161045857829003601f168201915b505050505090806002018054600181600116156101000203166002900480601f0160208091040260200160405190810160405280929190818152602001828054600181600116156101000203166002900480156105135780601f106104e857610100808354040283529160200191610513565b820191906000526020600020905b8154815290600101906020018083116104f657829003601f168201915b505050505090806003018054600181600116156101000203166002900480601f0160208091040260200160405190810160405280929190818152602001828054600181600116156101000203166002900480156105b15780601f10610586576101008083540402835291602001916105b1565b820191906000526020600020905b81548152906001019060200180831161059457829003601f168201915b505050505090806004018054600181600116156101000203166002900480601f01602080910402602001604051908101604052809291908181526020018280546001816001161561010002031660029004801561064f5780601f106106245761010080835404028352916020019161064f565b820191906000526020600020905b81548152906001019060200180831161063257829003601f168201915b505050505090806006015490806007015490806008015490806009018054600181600116156101000203166002900480601f0160208091040260200160405190810160405280929190818152602001828054600181600116156101000203166002900480156106ff5780601f106106d4576101008083540402835291602001916106ff565b820191906000526020600020905b8154815290600101906020018083116106e257829003601f168201915b5050505050905089565b60028054600181600116156101000203166002900480601f01602080910402602001604051908101604052809291908181526020018280546001816001161561010002031660029004801561079f5780601f106107745761010080835404028352916020019161079f565b820191906000526020600020905b81548152906001019060200180831161078257829003601f168201915b505050505081565b6007818051602081018201805184825260208301602085012081835280955050505050506000915090505481565b600360008381526020019081526020016000206005018190806001815401808255809150509060018203906000526020600020016000909192909190915090805190602001906108269291906113f2565b50505050565b600060608290506000809250600090505b815181101561089857600082828151811061085457fe5b602001015160f81c60f81b60f81c60ff16905060308110158015610879575060398111155b1561088a5760308103600a85020193505b50808060010191505061083d565b5050919050565b600581815481106108ac57fe5b906000526020600020016000915090505481565b60008090505b8451811015610d02576040516020016108de90611eb2565b6040516020818303038152906040528051906020012085828151811061090057fe5b60200260200101516040516020016109189190611e45565b6040516020818303038152906040528051906020012014156109855761098084828151811061094357fe5b602002602001015161097b84848151811061095a57fe5b602002602001015160008151811061096e57fe5b602002602001015161082c565b611363565b610cf5565b60405160200161099490611e73565b604051602081830303815290604052805190602001208582815181106109b657fe5b60200260200101516040516020016109ce9190611e45565b604051602081830303815290604052805190602001201415610a3b57610a368482815181106109f957fe5b6020026020010151610a31848481518110610a1057fe5b6020026020010151600081518110610a2457fe5b602002602001015161082c565b610d09565b610cf4565b604051602001610a4a90611ef1565b60405160208183030381529060405280519060200120858281518110610a6c57fe5b6020026020010151604051602001610a849190611e45565b604051602081830303815290604052805190602001201415610b0557610b00610ad3838381518110610ab257fe5b6020026020010151600081518110610ac657fe5b602002602001015161082c565b838381518110610adf57fe5b6020026020010151600181518110610af357fe5b60200260200101516107d5565b610cf3565b604051602001610b1490611edc565b60405160208183030381529060405280519060200120858281518110610b3657fe5b6020026020010151604051602001610b4e9190611e45565b604051602081830303815290604052805190602001201415610bb357610bae848281518110610b7957fe5b6020026020010151838381518110610b8d57fe5b6020026020010151600081518110610ba157fe5b60200260200101516112a9565b610cf2565b604051602001610bc290611ec7565b60405160208183030381529060405280519060200120858281518110610be457fe5b6020026020010151604051602001610bfc9190611e45565b604051602081830303815290604052805190602001201415610cf157610cf0828281518110610c2757fe5b6020026020010151600381518110610c3b57fe5b6020026020010151838381518110610c4f57fe5b6020026020010151600081518110610c6357fe5b6020026020010151858481518110610c7757fe5b6020026020010151858581518110610c8b57fe5b6020026020010151600181518110610c9f57fe5b6020026020010151610cd7878781518110610cb657fe5b6020026020010151600281518110610cca57fe5b602002602001015161082c565b898781518110610ce357fe5b6020026020010151610e5b565b5b5b5b5b5b80806001019150506108c6565b5050505050565b6003600082815260200190815260200160002060070160008154809291906001019190505550600982604051610d3f9190611e5c565b9081526020016040518091039020600401604051610d5c90611e9d565b90815260200160405180910390208190806001815401808255809150509060018203906000526020600020016000909192909190915055505050565b600160008154809291906001019190505550606060405180608001604052808381526020018481526020018281526020016000815250600983604051610dde9190611e5c565b90815260200160405180910390206000820151816000019080519060200190610e08929190611472565b506020820151816001019080519060200190610e25929190611472565b506040820151816002019080519060200190610e429291906114f2565b5060608201518160030155905050505050565b60015481565b6000808154809291906001019190505550606060405180610140016040528060005481526020018881526020018781526020018681526020018581526020018281526020016000815260200160008152602001848152602001838152506003600080548152602001908152602001600020600082015181600001556020820151816001019080519060200190610ef2929190611472565b506040820151816002019080519060200190610f0f929190611472565b506060820151816003019080519060200190610f2c929190611472565b506080820151816004019080519060200190610f49929190611472565b5060a0820151816005019080519060200190610f669291906114f2565b5060c0820151816006015560e082015181600701556101008201518160080155610120820151816009019080519060200190610fa3929190611472565b50905050600054600787604051610fba9190611e5c565b908152602001604051809103902081905550600882604051610fdc9190611e5c565b908152602001604051809103902060005490806001815401808255809150509060018203906000526020600020016000909192909190915055506000600184161461105057600460005490806001815401808255809150509060018203906000526020600020016000909192909190915055505b600060018085901c161461108d57600560005490806001815401808255809150509060018203906000526020600020016000909192909190915055505b60006001600285901c16146110cb57600660005490806001815401808255809150509060018203906000526020600020016000909192909190915055505b50505050505050565b600981805160208101820180518482526020830160208501208183528095505050505050600091509050806000018054600181600116156101000203166002900480601f0160208091040260200160405190810160405280929190818152602001828054600181600116156101000203166002900480156111965780601f1061116b57610100808354040283529160200191611196565b820191906000526020600020905b81548152906001019060200180831161117957829003601f168201915b505050505090806001018054600181600116156101000203166002900480601f0160208091040260200160405190810160405280929190818152602001828054600181600116156101000203166002900480156112345780601f1061120957610100808354040283529160200191611234565b820191906000526020600020905b81548152906001019060200180831161121757829003601f168201915b5050505050908060030154905083565b600882805160208101820180518482526020830160208501208183528095505050505050818154811061127357fe5b90600052602060002001600091509150505481565b6004818154811061129557fe5b906000526020600020016000915090505481565b6009826040516112b99190611e5c565b90815260200160405180910390206002018190806001815401808255809150509060018203906000526020600020016000909192909190915090805190602001906113059291906113f2565b50506009816040516113179190611e5c565b9081526020016040518091039020600301600081548092919060010191905055505050565b6006818154811061134957fe5b906000526020600020016000915090505481565b60005481565b60036000828152602001908152602001600020600601600081548092919060010191905055506009826040516113999190611e5c565b90815260200160405180910390206004016040516113b690611e88565b90815260200160405180910390208190806001815401808255809150509060018203906000526020600020016000909192909190915055505050565b828054600181600116156101000203166002900490600052602060002090601f016020900481019282601f1061143357805160ff1916838001178555611461565b82800160010185558215611461579182015b82811115611460578251825591602001919060010190611445565b5b50905061146e9190611552565b5090565b828054600181600116156101000203166002900490600052602060002090601f016020900481019282601f106114b357805160ff19168380011785556114e1565b828001600101855582156114e1579182015b828111156114e05782518255916020019190600101906114c5565b5b5090506114ee9190611552565b5090565b828054828255906000526020600020908101928215611541579160200282015b82811115611540578251829080519060200190611530929190611472565b5091602001919060010190611512565b5b50905061154e9190611577565b5090565b61157491905b80821115611570576000816000905550600101611558565b5090565b90565b6115a091905b8082111561159c576000818161159391906115a3565b5060010161157d565b5090565b90565b50805460018160011615610100020316600290046000825580601f106115c957506115e8565b601f0160209004906000526020600020908101906115e79190611552565b5b50565b600082601f8301126115fc57600080fd5b813561160f61160a82612065565b612038565b9150818183526020840193506020810190508360005b83811015611655578135860161163b888261165f565b845260208401935060208301925050600181019050611625565b5050505092915050565b600082601f83011261167057600080fd5b813561168361167e8261208d565b612038565b9150818183526020840193506020810190508360005b838110156116c957813586016116af8882611747565b845260208401935060208301925050600181019050611699565b5050505092915050565b600082601f8301126116e457600080fd5b81356116f76116f2826120b5565b612038565b9150818183526020840193506020810190508360005b8381101561173d57813586016117238882611747565b84526020840193506020830192505060018101905061170d565b5050505092915050565b600082601f83011261175857600080fd5b813561176b611766826120dd565b612038565b9150808252602083016020830185838301111561178757600080fd5b611792838284612171565b50505092915050565b600082601f8301126117ac57600080fd5b81356117bf6117ba82612109565b612038565b915080825260208301602083018583830111156117db57600080fd5b6117e6838284612171565b50505092915050565b6000813590506117fe816121c4565b92915050565b6000806000806080858703121561181a57600080fd5b600085013567ffffffffffffffff81111561183457600080fd5b611840878288016116d3565b945050602085013567ffffffffffffffff81111561185d57600080fd5b611869878288016116d3565b935050604085013567ffffffffffffffff81111561188657600080fd5b611892878288016116d3565b925050606085013567ffffffffffffffff8111156118af57600080fd5b6118bb878288016115eb565b91505092959194509250565b6000602082840312156118d957600080fd5b600082013567ffffffffffffffff8111156118f357600080fd5b6118ff84828501611747565b91505092915050565b60006020828403121561191a57600080fd5b600082013567ffffffffffffffff81111561193457600080fd5b6119408482850161179b565b91505092915050565b6000806040838503121561195c57600080fd5b600083013567ffffffffffffffff81111561197657600080fd5b6119828582860161179b565b925050602083013567ffffffffffffffff81111561199f57600080fd5b6119ab8582860161179b565b9150509250929050565b60008060008060008060c087890312156119ce57600080fd5b600087013567ffffffffffffffff8111156119e857600080fd5b6119f489828a0161179b565b965050602087013567ffffffffffffffff811115611a1157600080fd5b611a1d89828a0161179b565b955050604087013567ffffffffffffffff811115611a3a57600080fd5b611a4689828a0161179b565b945050606087013567ffffffffffffffff811115611a6357600080fd5b611a6f89828a0161179b565b9350506080611a8089828a016117ef565b92505060a087013567ffffffffffffffff811115611a9d57600080fd5b611aa989828a0161179b565b9150509295509295509295565b60008060408385031215611ac957600080fd5b600083013567ffffffffffffffff811115611ae357600080fd5b611aef8582860161179b565b9250506020611b00858286016117ef565b9150509250929050565b60008060408385031215611b1d57600080fd5b600083013567ffffffffffffffff811115611b3757600080fd5b611b4385828601611747565b9250506020611b54858286016117ef565b9150509250929050565b600060208284031215611b7057600080fd5b6000611b7e848285016117ef565b91505092915050565b60008060408385031215611b9a57600080fd5b6000611ba8858286016117ef565b925050602083013567ffffffffffffffff811115611bc557600080fd5b611bd18582860161179b565b9150509250929050565b6000611be682612140565b611bf0818561215c565b9350611c00818560208601612180565b80840191505092915050565b6000611c1782612135565b611c21818561214b565b9350611c31818560208601612180565b611c3a816121b3565b840191505092915050565b6000611c5082612135565b611c5a818561215c565b9350611c6a818560208601612180565b80840191505092915050565b6000611c8360048361215c565b91507f6c696b65000000000000000000000000000000000000000000000000000000006000830152600482019050919050565b6000611cc360068361215c565b91507f76696577656400000000000000000000000000000000000000000000000000006000830152600682019050919050565b6000611d0360058361215c565b91507f6c696b65640000000000000000000000000000000000000000000000000000006000830152600582019050919050565b6000611d4360048361215c565b91507f76696577000000000000000000000000000000000000000000000000000000006000830152600482019050919050565b6000611d8360068361215c565b91507f75706c6f616400000000000000000000000000000000000000000000000000006000830152600682019050919050565b6000611dc360098361215c565b91507f73756273637269626500000000000000000000000000000000000000000000006000830152600982019050919050565b6000611e0360078361215c565b91507f636f6d6d656e74000000000000000000000000000000000000000000000000006000830152600782019050919050565b611e3f81612167565b82525050565b6000611e518284611c45565b915081905092915050565b6000611e688284611bdb565b915081905092915050565b6000611e7e82611c76565b9150819050919050565b6000611e9382611cb6565b9150819050919050565b6000611ea882611cf6565b9150819050919050565b6000611ebd82611d36565b9150819050919050565b6000611ed282611d76565b9150819050919050565b6000611ee782611db6565b9150819050919050565b6000611efc82611df6565b9150819050919050565b60006020820190508181036000830152611f208184611c0c565b905092915050565b60006060820190508181036000830152611f428186611c0c565b90508181036020830152611f568185611c0c565b9050611f656040830184611e36565b949350505050565b6000602082019050611f826000830184611e36565b92915050565b600061012082019050611f9e600083018c611e36565b8181036020830152611fb0818b611c0c565b90508181036040830152611fc4818a611c0c565b90508181036060830152611fd88189611c0c565b90508181036080830152611fec8188611c0c565b9050611ffb60a0830187611e36565b61200860c0830186611e36565b61201560e0830185611e36565b8181036101008301526120288184611c0c565b90509a9950505050505050505050565b6000604051905081810181811067ffffffffffffffff8211171561205b57600080fd5b8060405250919050565b600067ffffffffffffffff82111561207c57600080fd5b602082029050602081019050919050565b600067ffffffffffffffff8211156120a457600080fd5b602082029050602081019050919050565b600067ffffffffffffffff8211156120cc57600080fd5b602082029050602081019050919050565b600067ffffffffffffffff8211156120f457600080fd5b601f19601f8301169050602081019050919050565b600067ffffffffffffffff82111561212057600080fd5b601f19601f8301169050602081019050919050565b600081519050919050565b600081519050919050565b600082825260208201905092915050565b600081905092915050565b6000819050919050565b82818337600083830152505050565b60005b8381101561219e578082015181840152602081019050612183565b838111156121ad576000848401525b50505050565b6000601f19601f8301169050919050565b6121cd81612167565b81146121d857600080fd5b5056fea365627a7a72315820998a5d7dd1a411790b346fcdd081c2b7f6d3a8586553134176ca030ec7f9e1976c6578706572696d656e74616cf564736f6c63430005100040",
  "source": "pragma solidity ^0.5.16;\r\npragma experimental ABIEncoderV2;\r\n\r\ncontract Primary {\r\n    uint256 public videoCount = 0;\r\n    uint256 public usersCount = 0;\r\n    string public name = \"Primary\";\r\n    mapping(uint256 => Video) public Id_Video;\r\n    uint256[] public Tag1_Videos;\r\n    uint256[] public Tag2_Videos;\r\n    uint256[] public Tag3_Videos;\r\n    mapping(string => uint256) public Title_Video;\r\n    mapping(string => uint256[]) public User_Videos;\r\n    mapping(string => User) public PublicKey_User;\r\n\r\n    struct Video {\r\n        uint256 id;\r\n        string hash;\r\n        string title;\r\n        string time;\r\n        string description;\r\n        string[] comments;\r\n        uint256 views;\r\n        uint256 hearts;\r\n        uint256 tags;\r\n        string creatorId;\r\n    }\r\n\r\n    struct User {\r\n        string publicKey;\r\n        string userName;\r\n        string[] subscriptions;\r\n        uint256 subscribersCount;\r\n        mapping(string => uint256[]) Playlist_Videos;\r\n    }\r\n\r\n    event VideoUploaded(uint256 id, string hash, string title, address author);\r\n\r\n    constructor() public {}\r\n\r\n    function signup(string memory _userName, string memory _publicKey) public {\r\n        usersCount++;\r\n        string[] memory subscriptions;\r\n        PublicKey_User[_publicKey] = User(\r\n            _publicKey,\r\n            _userName,\r\n            subscriptions,\r\n            0\r\n        );\r\n    }\r\n\r\n    function transactions(\r\n        string[] memory _type,\r\n        string[] memory _userId,\r\n        string[] memory _timestamp,\r\n        string[][] memory _params\r\n    ) public {\r\n        for (\r\n            uint256 transaction = 0;\r\n            transaction < _type.length;\r\n            transaction++\r\n        ) {\r\n            if (\r\n                keccak256(abi.encodePacked(_type[transaction])) ==\r\n                keccak256(abi.encodePacked(\"view\"))\r\n            ) {\r\n                watch(\r\n                    _userId[transaction],\r\n                    stringToUint(_params[transaction][0])\r\n                );\r\n            } else if (\r\n                keccak256(abi.encodePacked(_type[transaction])) ==\r\n                keccak256(abi.encodePacked(\"like\"))\r\n            ) {\r\n                like(\r\n                    _userId[transaction],\r\n                    stringToUint(_params[transaction][0])\r\n                );\r\n            } else if (\r\n                keccak256(abi.encodePacked(_type[transaction])) ==\r\n                keccak256(abi.encodePacked(\"comment\"))\r\n            ) {\r\n                comment(\r\n                    stringToUint(_params[transaction][0]),\r\n                    _params[transaction][1]\r\n                );\r\n            } else if (\r\n                keccak256(abi.encodePacked(_type[transaction])) ==\r\n                keccak256(abi.encodePacked(\"subscribe\"))\r\n            ) {\r\n                subscribe(_userId[transaction], _params[transaction][0]);\r\n            } else if (\r\n                keccak256(abi.encodePacked(_type[transaction])) ==\r\n                keccak256(abi.encodePacked(\"upload\"))\r\n            ) {\r\n                uploadVideo(\r\n                    _params[transaction][3],\r\n                    _params[transaction][0],\r\n                    _timestamp[transaction],\r\n                    _params[transaction][1],\r\n                    stringToUint(_params[transaction][2]),\r\n                    _userId[transaction]\r\n                );\r\n            }\r\n        }\r\n    }\r\n\r\n    function watch(string memory _userId, uint256 _videoId) public {\r\n        Id_Video[_videoId].views++;\r\n        PublicKey_User[_userId].Playlist_Videos[\"viewed\"].push(_videoId);\r\n    }\r\n\r\n    function like(string memory _userId, uint256 _videoId) public {\r\n        Id_Video[_videoId].hearts++;\r\n        PublicKey_User[_userId].Playlist_Videos[\"liked\"].push(_videoId);\r\n    }\r\n\r\n    function comment(uint256 _videoId, string memory _comment) public {\r\n        Id_Video[_videoId].comments.push(_comment);\r\n    }\r\n\r\n    function subscribe(string memory _userId, string memory _subscribedUserId)\r\n        public\r\n    {\r\n        PublicKey_User[_userId].subscriptions.push(_subscribedUserId);\r\n        PublicKey_User[_subscribedUserId].subscribersCount++;\r\n    }\r\n\r\n    function uploadVideo(\r\n        string memory _hash,\r\n        string memory _title,\r\n        string memory _time,\r\n        string memory _description,\r\n        uint256 _tags,\r\n        string memory _creatorId\r\n    ) public {\r\n        videoCount++;\r\n        string[] memory comments;\r\n        Id_Video[videoCount] = Video(\r\n            videoCount,\r\n            _hash,\r\n            _title,\r\n            _time,\r\n            _description,\r\n            comments,\r\n            0,\r\n            0,\r\n            _tags,\r\n            _creatorId\r\n        );\r\n        Title_Video[_title] = videoCount;\r\n        User_Videos[_creatorId].push(videoCount);\r\n        if ((_tags & 1) != 0) {\r\n            Tag1_Videos.push(videoCount);\r\n        }\r\n        if ((_tags >> 1) & 1 != 0) {\r\n            Tag2_Videos.push(videoCount);\r\n        }\r\n        if ((_tags >> 2) & 1 != 0) {\r\n            Tag3_Videos.push(videoCount);\r\n        }\r\n    }\r\n\r\n    function stringToUint(string memory s)\r\n        public\r\n        view\r\n        returns (uint256 result)\r\n    {\r\n        bytes memory b = bytes(s);\r\n        uint256 i;\r\n        result = 0;\r\n        for (i = 0; i < b.length; i++) {\r\n            uint256 c = uint256(uint8(b[i]));\r\n            if (c >= 48 && c <= 57) {\r\n                result = result * 10 + (c - 48);\r\n            }\r\n        }\r\n    }\r\n}\r\n",
  "sourcePath": "C:\\College NSIT\\Sem 7\\BTP Dtube\\dvideo\\src\\contracts\\Primary.sol",
  "compiler": {
    "name": "solc",
    "version": "0.5.16+commit.9c3226ce.Emscripten.clang"
  },
  "schemaVersion": "3.4.3",
  "updatedAt": "2021-10-15T12:18:59.054Z",
  "networkType": "ethereum",
  "devdoc": {
    "methods": {}
  },
  "userdoc": {
    "methods": {}
  }
}