{
  "contractName": "Primary",
  "abi": [
    {
      "inputs": [],
      "payable": false,
      "stateMutability": "nonpayable",
      "type": "constructor"
    },
    {
      "constant": true,
      "inputs": [
        {
          "internalType": "uint256",
          "name": "",
          "type": "uint256"
        }
      ],
      "name": "Id_Video",
      "outputs": [
        {
          "internalType": "uint256",
          "name": "id",
          "type": "uint256"
        },
        {
          "internalType": "string",
          "name": "hash",
          "type": "string"
        },
        {
          "internalType": "string",
          "name": "title",
          "type": "string"
        },
        {
          "internalType": "string",
          "name": "time",
          "type": "string"
        },
        {
          "internalType": "string",
          "name": "description",
          "type": "string"
        },
        {
          "internalType": "uint256",
          "name": "views",
          "type": "uint256"
        },
        {
          "internalType": "uint256",
          "name": "hearts",
          "type": "uint256"
        },
        {
          "internalType": "uint256",
          "name": "tags",
          "type": "uint256"
        },
        {
          "internalType": "string",
          "name": "creatorId",
          "type": "string"
        }
      ],
      "payable": false,
      "stateMutability": "view",
      "type": "function"
    },
    {
      "constant": true,
      "inputs": [
        {
          "internalType": "string",
          "name": "",
          "type": "string"
        }
      ],
      "name": "PublicKey_User",
      "outputs": [
        {
          "internalType": "string",
          "name": "publicKey",
          "type": "string"
        },
        {
          "internalType": "string",
          "name": "userName",
          "type": "string"
        },
        {
          "internalType": "uint256",
          "name": "subscribersCount",
          "type": "uint256"
        }
      ],
      "payable": false,
      "stateMutability": "view",
      "type": "function"
    },
    {
      "constant": true,
      "inputs": [
        {
          "internalType": "uint256",
          "name": "",
          "type": "uint256"
        }
      ],
      "name": "Tag1_Videos",
      "outputs": [
        {
          "internalType": "uint256",
          "name": "",
          "type": "uint256"
        }
      ],
      "payable": false,
      "stateMutability": "view",
      "type": "function"
    },
    {
      "constant": true,
      "inputs": [
        {
          "internalType": "uint256",
          "name": "",
          "type": "uint256"
        }
      ],
      "name": "Tag2_Videos",
      "outputs": [
        {
          "internalType": "uint256",
          "name": "",
          "type": "uint256"
        }
      ],
      "payable": false,
      "stateMutability": "view",
      "type": "function"
    },
    {
      "constant": true,
      "inputs": [
        {
          "internalType": "uint256",
          "name": "",
          "type": "uint256"
        }
      ],
      "name": "Tag3_Videos",
      "outputs": [
        {
          "internalType": "uint256",
          "name": "",
          "type": "uint256"
        }
      ],
      "payable": false,
      "stateMutability": "view",
      "type": "function"
    },
    {
      "constant": true,
      "inputs": [
        {
          "internalType": "string",
          "name": "",
          "type": "string"
        }
      ],
      "name": "Title_Video",
      "outputs": [
        {
          "internalType": "uint256",
          "name": "",
          "type": "uint256"
        }
      ],
      "payable": false,
      "stateMutability": "view",
      "type": "function"
    },
    {
      "constant": true,
      "inputs": [
        {
          "internalType": "string",
          "name": "",
          "type": "string"
        }
      ],
      "name": "UserName_User",
      "outputs": [
        {
          "internalType": "string",
          "name": "",
          "type": "string"
        }
      ],
      "payable": false,
      "stateMutability": "view",
      "type": "function"
    },
    {
      "constant": true,
      "inputs": [
        {
          "internalType": "string",
          "name": "",
          "type": "string"
        },
        {
          "internalType": "uint256",
          "name": "",
          "type": "uint256"
        }
      ],
      "name": "User_Videos",
      "outputs": [
        {
          "internalType": "uint256",
          "name": "",
          "type": "uint256"
        }
      ],
      "payable": false,
      "stateMutability": "view",
      "type": "function"
    },
    {
      "constant": true,
      "inputs": [],
      "name": "name",
      "outputs": [
        {
          "internalType": "string",
          "name": "",
          "type": "string"
        }
      ],
      "payable": false,
      "stateMutability": "view",
      "type": "function"
    },
    {
      "constant": true,
      "inputs": [],
      "name": "usersCount",
      "outputs": [
        {
          "internalType": "uint256",
          "name": "",
          "type": "uint256"
        }
      ],
      "payable": false,
      "stateMutability": "view",
      "type": "function"
    },
    {
      "constant": true,
      "inputs": [],
      "name": "videoCount",
      "outputs": [
        {
          "internalType": "uint256",
          "name": "",
          "type": "uint256"
        }
      ],
      "payable": false,
      "stateMutability": "view",
      "type": "function"
    },
    {
      "constant": true,
      "inputs": [
        {
          "internalType": "string",
          "name": "_publicKey",
          "type": "string"
        }
      ],
      "name": "getUserSubscriptions",
      "outputs": [
        {
          "internalType": "string[]",
          "name": "",
          "type": "string[]"
        }
      ],
      "payable": false,
      "stateMutability": "view",
      "type": "function"
    },
    {
      "constant": true,
      "inputs": [
        {
          "internalType": "string",
          "name": "_publicKey",
          "type": "string"
        },
        {
          "internalType": "string",
          "name": "_playlist",
          "type": "string"
        }
      ],
      "name": "getUserPlaylist",
      "outputs": [
        {
          "internalType": "uint256[]",
          "name": "",
          "type": "uint256[]"
        }
      ],
      "payable": false,
      "stateMutability": "view",
      "type": "function"
    },
    {
      "constant": true,
      "inputs": [
        {
          "internalType": "uint256",
          "name": "_videoId",
          "type": "uint256"
        }
      ],
      "name": "getVideoComments",
      "outputs": [
        {
          "internalType": "string[]",
          "name": "",
          "type": "string[]"
        }
      ],
      "payable": false,
      "stateMutability": "view",
      "type": "function"
    },
    {
      "constant": false,
      "inputs": [
        {
          "internalType": "string",
          "name": "_userName",
          "type": "string"
        },
        {
          "internalType": "string",
          "name": "_publicKey",
          "type": "string"
        }
      ],
      "name": "signup",
      "outputs": [],
      "payable": false,
      "stateMutability": "nonpayable",
      "type": "function"
    },
    {
      "constant": false,
      "inputs": [
        {
          "internalType": "string[]",
          "name": "_type",
          "type": "string[]"
        },
        {
          "internalType": "string[]",
          "name": "_userId",
          "type": "string[]"
        },
        {
          "internalType": "string[]",
          "name": "_timestamp",
          "type": "string[]"
        },
        {
          "internalType": "string[][]",
          "name": "_params",
          "type": "string[][]"
        }
      ],
      "name": "transactions",
      "outputs": [],
      "payable": false,
      "stateMutability": "nonpayable",
      "type": "function"
    },
    {
      "constant": false,
      "inputs": [
        {
          "internalType": "string",
          "name": "_userId",
          "type": "string"
        },
        {
          "internalType": "uint256",
          "name": "_videoId",
          "type": "uint256"
        }
      ],
      "name": "watch",
      "outputs": [],
      "payable": false,
      "stateMutability": "nonpayable",
      "type": "function"
    },
    {
      "constant": false,
      "inputs": [
        {
          "internalType": "string",
          "name": "_userId",
          "type": "string"
        },
        {
          "internalType": "uint256",
          "name": "_videoId",
          "type": "uint256"
        }
      ],
      "name": "like",
      "outputs": [],
      "payable": false,
      "stateMutability": "nonpayable",
      "type": "function"
    },
    {
      "constant": false,
      "inputs": [
        {
          "internalType": "uint256",
          "name": "_videoId",
          "type": "uint256"
        },
        {
          "internalType": "string",
          "name": "_comment",
          "type": "string"
        }
      ],
      "name": "comment",
      "outputs": [],
      "payable": false,
      "stateMutability": "nonpayable",
      "type": "function"
    },
    {
      "constant": false,
      "inputs": [
        {
          "internalType": "string",
          "name": "_userId",
          "type": "string"
        },
        {
          "internalType": "string",
          "name": "_subscribedUserId",
          "type": "string"
        }
      ],
      "name": "subscribe",
      "outputs": [],
      "payable": false,
      "stateMutability": "nonpayable",
      "type": "function"
    },
    {
      "constant": false,
      "inputs": [
        {
          "internalType": "string",
          "name": "_hash",
          "type": "string"
        },
        {
          "internalType": "string",
          "name": "_title",
          "type": "string"
        },
        {
          "internalType": "string",
          "name": "_time",
          "type": "string"
        },
        {
          "internalType": "string",
          "name": "_description",
          "type": "string"
        },
        {
          "internalType": "uint256",
          "name": "_tags",
          "type": "uint256"
        },
        {
          "internalType": "string",
          "name": "_creatorId",
          "type": "string"
        }
      ],
      "name": "uploadVideo",
      "outputs": [],
      "payable": false,
      "stateMutability": "nonpayable",
      "type": "function"
    },
    {
      "constant": true,
      "inputs": [
        {
          "internalType": "string",
          "name": "s",
          "type": "string"
        }
      ],
      "name": "stringToUint",
      "outputs": [
        {
          "internalType": "uint256",
          "name": "result",
          "type": "uint256"
        }
      ],
      "payable": false,
      "stateMutability": "pure",
      "type": "function"
    }
  ],
  "bytecode": "0x60806040526000805560006001556040518060400160405280600781526020017f5072696d61727900000000000000000000000000000000000000000000000000815250600290805190602001906200005a9291906200006f565b503480156200006857600080fd5b506200011e565b828054600181600116156101000203166002900490600052602060002090601f016020900481019282601f10620000b257805160ff1916838001178555620000e3565b82800160010185558215620000e3579182015b82811115620000e2578251825591602001919060010190620000c5565b5b509050620000f29190620000f6565b5090565b6200011b91905b8082111562000117576000816000905550600101620000fd565b5090565b90565b6128b0806200012e6000396000f3fe608060405234801561001057600080fd5b50600436106101425760003560e01c80636ba13a82116100b8578063b66cab0f1161007c578063b66cab0f146103c9578063bbd5cf2f146103f9578063c00f123d14610415578063c61b5f4c14610445578063daf6160c14610463578063e12e4fa01461049357610142565b80636ba13a82146102fd5780637c47d2621461031b5780637d8379b8146103375780637e642989146103695780639e227b101461039957610142565b8063228528451161010a578063228528451461021957806329b754221461024957806332fca88114610279578063346d4d66146102a95780633c04c015146102c557806347e70e64146102e157610142565b806305f79ed81461014757806306fdde031461017f578063138b07871461019d5780631805c523146101cd5780631bd95155146101e9575b600080fd5b610161600480360361015c9190810190611fe2565b6104af565b60405161017699989796959493929190612597565b60405180910390f35b6101876107f5565b6040516101949190612515565b60405180910390f35b6101b760048036036101b29190810190611d4b565b610893565b6040516101c4919061257c565b60405180910390f35b6101e760048036036101e2919081019061200b565b6108c1565b005b61020360048036036101fe9190810190611d8c565b610918565b604051610210919061257c565b60405180910390f35b610233600480360361022e9190810190611d8c565b61098b565b60405161024091906124d1565b60405180910390f35b610263600480360361025e9190810190611dcd565b610a95565b60405161027091906124f3565b60405180910390f35b610293600480360361028e9190810190611fe2565b610b2b565b6040516102a0919061257c565b60405180910390f35b6102c360048036036102be9190810190611c88565b610b4c565b005b6102df60048036036102da9190810190611f3a565b610f95565b005b6102fb60048036036102f69190810190611dcd565b611024565b005b610305611114565b604051610312919061257c565b60405180910390f35b61033560048036036103309190810190611e39565b61111a565b005b610351600480360361034c9190810190611d4b565b611393565b60405161036093929190612537565b60405180910390f35b610383600480360361037e9190810190611f8e565b611503565b604051610390919061257c565b60405180910390f35b6103b360048036036103ae9190810190611d4b565b611547565b6040516103c09190612515565b60405180910390f35b6103e360048036036103de9190810190611fe2565b61160d565b6040516103f0919061257c565b60405180910390f35b610413600480360361040e9190810190611dcd565b61162e565b005b61042f600480360361042a9190810190611fe2565b6116c1565b60405161043c919061257c565b60405180910390f35b61044d6116e2565b60405161045a919061257c565b60405180910390f35b61047d60048036036104789190810190611fe2565b6116e8565b60405161048a91906124d1565b60405180910390f35b6104ad60048036036104a89190810190611f3a565b6117e7565b005b6003602052806000526040600020600091509050806000015490806001018054600181600116156101000203166002900480601f0160208091040260200160405190810160405280929190818152602001828054600181600116156101000203166002900480156105615780601f1061053657610100808354040283529160200191610561565b820191906000526020600020905b81548152906001019060200180831161054457829003601f168201915b505050505090806002018054600181600116156101000203166002900480601f0160208091040260200160405190810160405280929190818152602001828054600181600116156101000203166002900480156105ff5780601f106105d4576101008083540402835291602001916105ff565b820191906000526020600020905b8154815290600101906020018083116105e257829003601f168201915b505050505090806003018054600181600116156101000203166002900480601f01602080910402602001604051908101604052809291908181526020018280546001816001161561010002031660029004801561069d5780601f106106725761010080835404028352916020019161069d565b820191906000526020600020905b81548152906001019060200180831161068057829003601f168201915b505050505090806004018054600181600116156101000203166002900480601f01602080910402602001604051908101604052809291908181526020018280546001816001161561010002031660029004801561073b5780601f106107105761010080835404028352916020019161073b565b820191906000526020600020905b81548152906001019060200180831161071e57829003601f168201915b505050505090806006015490806007015490806008015490806009018054600181600116156101000203166002900480601f0160208091040260200160405190810160405280929190818152602001828054600181600116156101000203166002900480156107eb5780601f106107c0576101008083540402835291602001916107eb565b820191906000526020600020905b8154815290600101906020018083116107ce57829003601f168201915b5050505050905089565b60028054600181600116156101000203166002900480601f01602080910402602001604051908101604052809291908181526020018280546001816001161561010002031660029004801561088b5780601f106108605761010080835404028352916020019161088b565b820191906000526020600020905b81548152906001019060200180831161086e57829003601f168201915b505050505081565b6007818051602081018201805184825260208301602085012081835280955050505050506000915090505481565b60036000838152602001908152602001600020600501819080600181540180825580915050906001820390600052602060002001600090919290919091509080519060200190610912929190611876565b50505050565b600060608290506000809250600090505b815181101561098457600082828151811061094057fe5b602001015160f81c60f81b60f81c60ff16905060308110158015610965575060398111155b156109765760308103600a85020193505b508080600101915050610929565b5050919050565b606060098260405161099d9190612427565b9081526020016040518091039020600201805480602002602001604051908101604052809291908181526020016000905b82821015610a8a578382906000526020600020018054600181600116156101000203166002900480601f016020809104026020016040519081016040528092919081815260200182805460018160011615610100020316600290048015610a765780601f10610a4b57610100808354040283529160200191610a76565b820191906000526020600020905b815481529060010190602001808311610a5957829003601f168201915b5050505050815260200190600101906109ce565b505050509050919050565b6060600983604051610aa79190612427565b908152602001604051809103902060040182604051610ac69190612427565b9081526020016040518091039020805480602002602001604051908101604052809291908181526020018280548015610b1e57602002820191906000526020600020905b815481526020019060010190808311610b0a575b5050505050905092915050565b60058181548110610b3857fe5b906000526020600020016000915090505481565b60008090505b8451811015610f8e57604051602001610b6a9061247d565b60405160208183030381529060405280519060200120858281518110610b8c57fe5b6020026020010151604051602001610ba49190612410565b604051602081830303815290604052805190602001201415610c1157610c0c848281518110610bcf57fe5b6020026020010151610c07848481518110610be657fe5b6020026020010151600081518110610bfa57fe5b6020026020010151610918565b6117e7565b610f81565b604051602001610c209061243e565b60405160208183030381529060405280519060200120858281518110610c4257fe5b6020026020010151604051602001610c5a9190612410565b604051602081830303815290604052805190602001201415610cc757610cc2848281518110610c8557fe5b6020026020010151610cbd848481518110610c9c57fe5b6020026020010151600081518110610cb057fe5b6020026020010151610918565b610f95565b610f80565b604051602001610cd6906124bc565b60405160208183030381529060405280519060200120858281518110610cf857fe5b6020026020010151604051602001610d109190612410565b604051602081830303815290604052805190602001201415610d9157610d8c610d5f838381518110610d3e57fe5b6020026020010151600081518110610d5257fe5b6020026020010151610918565b838381518110610d6b57fe5b6020026020010151600181518110610d7f57fe5b60200260200101516108c1565b610f7f565b604051602001610da0906124a7565b60405160208183030381529060405280519060200120858281518110610dc257fe5b6020026020010151604051602001610dda9190612410565b604051602081830303815290604052805190602001201415610e3f57610e3a848281518110610e0557fe5b6020026020010151838381518110610e1957fe5b6020026020010151600081518110610e2d57fe5b602002602001015161162e565b610f7e565b604051602001610e4e90612492565b60405160208183030381529060405280519060200120858281518110610e7057fe5b6020026020010151604051602001610e889190612410565b604051602081830303815290604052805190602001201415610f7d57610f7c828281518110610eb357fe5b6020026020010151600381518110610ec757fe5b6020026020010151838381518110610edb57fe5b6020026020010151600081518110610eef57fe5b6020026020010151858481518110610f0357fe5b6020026020010151858581518110610f1757fe5b6020026020010151600181518110610f2b57fe5b6020026020010151610f63878781518110610f4257fe5b6020026020010151600281518110610f5657fe5b6020026020010151610918565b898781518110610f6f57fe5b602002602001015161111a565b5b5b5b5b5b8080600101915050610b52565b5050505050565b6003600082815260200190815260200160002060070160008154809291906001019190505550600982604051610fcb9190612427565b9081526020016040518091039020600401604051610fe890612468565b90815260200160405180910390208190806001815401808255809150509060018203906000526020600020016000909192909190915055505050565b60016000815480929190600101919050555060606040518060800160405280838152602001848152602001828152602001600081525060098360405161106a9190612427565b908152602001604051809103902060008201518160000190805190602001906110949291906118f6565b5060208201518160010190805190602001906110b19291906118f6565b5060408201518160020190805190602001906110ce929190611976565b506060820151816003015590505081600a846040516110ed9190612427565b9081526020016040518091039020908051906020019061110e929190611876565b50505050565b60015481565b60008081548092919060010191905055506060604051806101400160405280600054815260200188815260200187815260200186815260200185815260200182815260200160008152602001600081526020018481526020018381525060036000805481526020019081526020016000206000820151816000015560208201518160010190805190602001906111b19291906118f6565b5060408201518160020190805190602001906111ce9291906118f6565b5060608201518160030190805190602001906111eb9291906118f6565b5060808201518160040190805190602001906112089291906118f6565b5060a0820151816005019080519060200190611225929190611976565b5060c0820151816006015560e0820151816007015561010082015181600801556101208201518160090190805190602001906112629291906118f6565b509050506000546007876040516112799190612427565b90815260200160405180910390208190555060088260405161129b9190612427565b908152602001604051809103902060005490806001815401808255809150509060018203906000526020600020016000909192909190915055506000600184161461130f57600460005490806001815401808255809150509060018203906000526020600020016000909192909190915055505b600060018085901c161461134c57600560005490806001815401808255809150509060018203906000526020600020016000909192909190915055505b60006001600285901c161461138a57600660005490806001815401808255809150509060018203906000526020600020016000909192909190915055505b50505050505050565b600981805160208101820180518482526020830160208501208183528095505050505050600091509050806000018054600181600116156101000203166002900480601f0160208091040260200160405190810160405280929190818152602001828054600181600116156101000203166002900480156114555780601f1061142a57610100808354040283529160200191611455565b820191906000526020600020905b81548152906001019060200180831161143857829003601f168201915b505050505090806001018054600181600116156101000203166002900480601f0160208091040260200160405190810160405280929190818152602001828054600181600116156101000203166002900480156114f35780601f106114c8576101008083540402835291602001916114f3565b820191906000526020600020905b8154815290600101906020018083116114d657829003601f168201915b5050505050908060030154905083565b600882805160208101820180518482526020830160208501208183528095505050505050818154811061153257fe5b90600052602060002001600091509150505481565b600a818051602081018201805184825260208301602085012081835280955050505050506000915090508054600181600116156101000203166002900480601f0160208091040260200160405190810160405280929190818152602001828054600181600116156101000203166002900480156116055780601f106115da57610100808354040283529160200191611605565b820191906000526020600020905b8154815290600101906020018083116115e857829003601f168201915b505050505081565b6004818154811061161a57fe5b906000526020600020016000915090505481565b60098260405161163e9190612427565b908152602001604051809103902060020181908060018154018082558091505090600182039060005260206000200160009091929091909150908051906020019061168a929190611876565b505060098160405161169c9190612427565b9081526020016040518091039020600301600081548092919060010191905055505050565b600681815481106116ce57fe5b906000526020600020016000915090505481565b60005481565b606060036000838152602001908152602001600020600501805480602002602001604051908101604052809291908181526020016000905b828210156117dc578382906000526020600020018054600181600116156101000203166002900480601f0160208091040260200160405190810160405280929190818152602001828054600181600116156101000203166002900480156117c85780601f1061179d576101008083540402835291602001916117c8565b820191906000526020600020905b8154815290600101906020018083116117ab57829003601f168201915b505050505081526020019060010190611720565b505050509050919050565b600360008281526020019081526020016000206006016000815480929190600101919050555060098260405161181d9190612427565b908152602001604051809103902060040160405161183a90612453565b90815260200160405180910390208190806001815401808255809150509060018203906000526020600020016000909192909190915055505050565b828054600181600116156101000203166002900490600052602060002090601f016020900481019282601f106118b757805160ff19168380011785556118e5565b828001600101855582156118e5579182015b828111156118e45782518255916020019190600101906118c9565b5b5090506118f291906119d6565b5090565b828054600181600116156101000203166002900490600052602060002090601f016020900481019282601f1061193757805160ff1916838001178555611965565b82800160010185558215611965579182015b82811115611964578251825591602001919060010190611949565b5b50905061197291906119d6565b5090565b8280548282559060005260206000209081019282156119c5579160200282015b828111156119c45782518290805190602001906119b49291906118f6565b5091602001919060010190611996565b5b5090506119d291906119fb565b5090565b6119f891905b808211156119f45760008160009055506001016119dc565b5090565b90565b611a2491905b80821115611a205760008181611a179190611a27565b50600101611a01565b5090565b90565b50805460018160011615610100020316600290046000825580601f10611a4d5750611a6c565b601f016020900490600052602060002090810190611a6b91906119d6565b5b50565b600082601f830112611a8057600080fd5b8135611a93611a8e82612674565b612647565b9150818183526020840193506020810190508360005b83811015611ad95781358601611abf8882611ae3565b845260208401935060208301925050600181019050611aa9565b5050505092915050565b600082601f830112611af457600080fd5b8135611b07611b028261269c565b612647565b9150818183526020840193506020810190508360005b83811015611b4d5781358601611b338882611bcb565b845260208401935060208301925050600181019050611b1d565b5050505092915050565b600082601f830112611b6857600080fd5b8135611b7b611b76826126c4565b612647565b9150818183526020840193506020810190508360005b83811015611bc15781358601611ba78882611bcb565b845260208401935060208301925050600181019050611b91565b5050505092915050565b600082601f830112611bdc57600080fd5b8135611bef611bea826126ec565b612647565b91508082526020830160208301858383011115611c0b57600080fd5b611c16838284612803565b50505092915050565b600082601f830112611c3057600080fd5b8135611c43611c3e82612718565b612647565b91508082526020830160208301858383011115611c5f57600080fd5b611c6a838284612803565b50505092915050565b600081359050611c8281612856565b92915050565b60008060008060808587031215611c9e57600080fd5b600085013567ffffffffffffffff811115611cb857600080fd5b611cc487828801611b57565b945050602085013567ffffffffffffffff811115611ce157600080fd5b611ced87828801611b57565b935050604085013567ffffffffffffffff811115611d0a57600080fd5b611d1687828801611b57565b925050606085013567ffffffffffffffff811115611d3357600080fd5b611d3f87828801611a6f565b91505092959194509250565b600060208284031215611d5d57600080fd5b600082013567ffffffffffffffff811115611d7757600080fd5b611d8384828501611bcb565b91505092915050565b600060208284031215611d9e57600080fd5b600082013567ffffffffffffffff811115611db857600080fd5b611dc484828501611c1f565b91505092915050565b60008060408385031215611de057600080fd5b600083013567ffffffffffffffff811115611dfa57600080fd5b611e0685828601611c1f565b925050602083013567ffffffffffffffff811115611e2357600080fd5b611e2f85828601611c1f565b9150509250929050565b60008060008060008060c08789031215611e5257600080fd5b600087013567ffffffffffffffff811115611e6c57600080fd5b611e7889828a01611c1f565b965050602087013567ffffffffffffffff811115611e9557600080fd5b611ea189828a01611c1f565b955050604087013567ffffffffffffffff811115611ebe57600080fd5b611eca89828a01611c1f565b945050606087013567ffffffffffffffff811115611ee757600080fd5b611ef389828a01611c1f565b9350506080611f0489828a01611c73565b92505060a087013567ffffffffffffffff811115611f2157600080fd5b611f2d89828a01611c1f565b9150509295509295509295565b60008060408385031215611f4d57600080fd5b600083013567ffffffffffffffff811115611f6757600080fd5b611f7385828601611c1f565b9250506020611f8485828601611c73565b9150509250929050565b60008060408385031215611fa157600080fd5b600083013567ffffffffffffffff811115611fbb57600080fd5b611fc785828601611bcb565b9250506020611fd885828601611c73565b9150509250929050565b600060208284031215611ff457600080fd5b600061200284828501611c73565b91505092915050565b6000806040838503121561201e57600080fd5b600061202c85828601611c73565b925050602083013567ffffffffffffffff81111561204957600080fd5b61205585828601611c1f565b9150509250929050565b600061206b838361218f565b905092915050565b600061207f83836123f2565b60208301905092915050565b600061209682612764565b6120a081856127aa565b9350836020820285016120b285612744565b8060005b858110156120ee57848403895281516120cf858261205f565b94506120da83612790565b925060208a019950506001810190506120b6565b50829750879550505050505092915050565b600061210b8261276f565b61211581856127bb565b935061212083612754565b8060005b838110156121515781516121388882612073565b97506121438361279d565b925050600181019050612124565b5085935050505092915050565b600061216982612785565b61217381856127ee565b9350612183818560208601612812565b80840191505092915050565b600061219a8261277a565b6121a481856127cc565b93506121b4818560208601612812565b6121bd81612845565b840191505092915050565b60006121d38261277a565b6121dd81856127dd565b93506121ed818560208601612812565b6121f681612845565b840191505092915050565b600061220c8261277a565b61221681856127ee565b9350612226818560208601612812565b80840191505092915050565b600061223f6004836127ee565b91507f6c696b65000000000000000000000000000000000000000000000000000000006000830152600482019050919050565b600061227f6006836127ee565b91507f76696577656400000000000000000000000000000000000000000000000000006000830152600682019050919050565b60006122bf6005836127ee565b91507f6c696b65640000000000000000000000000000000000000000000000000000006000830152600582019050919050565b60006122ff6004836127ee565b91507f76696577000000000000000000000000000000000000000000000000000000006000830152600482019050919050565b600061233f6006836127ee565b91507f75706c6f616400000000000000000000000000000000000000000000000000006000830152600682019050919050565b600061237f6009836127ee565b91507f73756273637269626500000000000000000000000000000000000000000000006000830152600982019050919050565b60006123bf6007836127ee565b91507f636f6d6d656e74000000000000000000000000000000000000000000000000006000830152600782019050919050565b6123fb816127f9565b82525050565b61240a816127f9565b82525050565b600061241c8284612201565b915081905092915050565b6000612433828461215e565b915081905092915050565b600061244982612232565b9150819050919050565b600061245e82612272565b9150819050919050565b6000612473826122b2565b9150819050919050565b6000612488826122f2565b9150819050919050565b600061249d82612332565b9150819050919050565b60006124b282612372565b9150819050919050565b60006124c7826123b2565b9150819050919050565b600060208201905081810360008301526124eb818461208b565b905092915050565b6000602082019050818103600083015261250d8184612100565b905092915050565b6000602082019050818103600083015261252f81846121c8565b905092915050565b6000606082019050818103600083015261255181866121c8565b9050818103602083015261256581856121c8565b90506125746040830184612401565b949350505050565b60006020820190506125916000830184612401565b92915050565b6000610120820190506125ad600083018c612401565b81810360208301526125bf818b6121c8565b905081810360408301526125d3818a6121c8565b905081810360608301526125e781896121c8565b905081810360808301526125fb81886121c8565b905061260a60a0830187612401565b61261760c0830186612401565b61262460e0830185612401565b81810361010083015261263781846121c8565b90509a9950505050505050505050565b6000604051905081810181811067ffffffffffffffff8211171561266a57600080fd5b8060405250919050565b600067ffffffffffffffff82111561268b57600080fd5b602082029050602081019050919050565b600067ffffffffffffffff8211156126b357600080fd5b602082029050602081019050919050565b600067ffffffffffffffff8211156126db57600080fd5b602082029050602081019050919050565b600067ffffffffffffffff82111561270357600080fd5b601f19601f8301169050602081019050919050565b600067ffffffffffffffff82111561272f57600080fd5b601f19601f8301169050602081019050919050565b6000819050602082019050919050565b6000819050602082019050919050565b600081519050919050565b600081519050919050565b600081519050919050565b600081519050919050565b6000602082019050919050565b6000602082019050919050565b600082825260208201905092915050565b600082825260208201905092915050565b600082825260208201905092915050565b600082825260208201905092915050565b600081905092915050565b6000819050919050565b82818337600083830152505050565b60005b83811015612830578082015181840152602081019050612815565b8381111561283f576000848401525b50505050565b6000601f19601f8301169050919050565b61285f816127f9565b811461286a57600080fd5b5056fea365627a7a72315820654cf17e502f3f4974ca71743a600af4811f3cd6d8fceb75b52c4853e8352a786c6578706572696d656e74616cf564736f6c63430005100040",
  "source": "pragma solidity ^0.5.16;\r\npragma experimental ABIEncoderV2;\r\n\r\ncontract Primary {\r\n    uint256 public videoCount = 0;\r\n    uint256 public usersCount = 0;\r\n    string public name = \"Primary\";\r\n    mapping(uint256 => Video) public Id_Video;\r\n    uint256[] public Tag1_Videos;\r\n    uint256[] public Tag2_Videos;\r\n    uint256[] public Tag3_Videos;\r\n    mapping(string => uint256) public Title_Video;\r\n    mapping(string => uint256[]) public User_Videos;\r\n    mapping(string => User) public PublicKey_User;\r\n    mapping(string => string) public UserName_User;\r\n\r\n    struct Video {\r\n        uint256 id;\r\n        string hash;\r\n        string title;\r\n        string time;\r\n        string description;\r\n        string[] comments;\r\n        uint256 views;\r\n        uint256 hearts;\r\n        uint256 tags;\r\n        string creatorId;\r\n    }\r\n\r\n    struct User {\r\n        string publicKey;\r\n        string userName;\r\n        string[] subscriptions;\r\n        uint256 subscribersCount;\r\n        mapping(string => uint256[]) Playlist_Videos;\r\n    }\r\n\r\n    constructor() public {}\r\n\r\n    function getUserSubscriptions(string memory _publicKey)\r\n        public\r\n        view\r\n        returns (string[] memory)\r\n    {\r\n        return PublicKey_User[_publicKey].subscriptions;\r\n    }\r\n\r\n    function getUserPlaylist(string memory _publicKey, string memory _playlist)\r\n        public\r\n        view\r\n        returns (uint256[] memory)\r\n    {\r\n        return PublicKey_User[_publicKey].Playlist_Videos[_playlist];\r\n    }\r\n\r\n    function getVideoComments(uint256 _videoId)\r\n        public\r\n        view\r\n        returns (string[] memory)\r\n    {\r\n        return Id_Video[_videoId].comments;\r\n    }\r\n\r\n    function signup(string memory _userName, string memory _publicKey) public {\r\n        usersCount++;\r\n        string[] memory subscriptions;\r\n        PublicKey_User[_publicKey] = User(\r\n            _publicKey,\r\n            _userName,\r\n            subscriptions,\r\n            0\r\n        );\r\n        UserName_User[_userName] = _publicKey;\r\n    }\r\n\r\n    function transactions(\r\n        string[] memory _type,\r\n        string[] memory _userId,\r\n        string[] memory _timestamp,\r\n        string[][] memory _params\r\n    ) public {\r\n        for (\r\n            uint256 transaction = 0;\r\n            transaction < _type.length;\r\n            transaction++\r\n        ) {\r\n            if (\r\n                keccak256(abi.encodePacked(_type[transaction])) ==\r\n                keccak256(abi.encodePacked(\"view\"))\r\n            ) {\r\n                watch(\r\n                    _userId[transaction],\r\n                    stringToUint(_params[transaction][0])\r\n                );\r\n            } else if (\r\n                keccak256(abi.encodePacked(_type[transaction])) ==\r\n                keccak256(abi.encodePacked(\"like\"))\r\n            ) {\r\n                like(\r\n                    _userId[transaction],\r\n                    stringToUint(_params[transaction][0])\r\n                );\r\n            } else if (\r\n                keccak256(abi.encodePacked(_type[transaction])) ==\r\n                keccak256(abi.encodePacked(\"comment\"))\r\n            ) {\r\n                comment(\r\n                    stringToUint(_params[transaction][0]),\r\n                    _params[transaction][1]\r\n                );\r\n            } else if (\r\n                keccak256(abi.encodePacked(_type[transaction])) ==\r\n                keccak256(abi.encodePacked(\"subscribe\"))\r\n            ) {\r\n                subscribe(_userId[transaction], _params[transaction][0]);\r\n            } else if (\r\n                keccak256(abi.encodePacked(_type[transaction])) ==\r\n                keccak256(abi.encodePacked(\"upload\"))\r\n            ) {\r\n                uploadVideo(\r\n                    _params[transaction][3],\r\n                    _params[transaction][0],\r\n                    _timestamp[transaction],\r\n                    _params[transaction][1],\r\n                    stringToUint(_params[transaction][2]),\r\n                    _userId[transaction]\r\n                );\r\n            }\r\n        }\r\n    }\r\n\r\n    function watch(string memory _userId, uint256 _videoId) public {\r\n        Id_Video[_videoId].views++;\r\n        PublicKey_User[_userId].Playlist_Videos[\"viewed\"].push(_videoId);\r\n    }\r\n\r\n    function like(string memory _userId, uint256 _videoId) public {\r\n        Id_Video[_videoId].hearts++;\r\n        PublicKey_User[_userId].Playlist_Videos[\"liked\"].push(_videoId);\r\n    }\r\n\r\n    function comment(uint256 _videoId, string memory _comment) public {\r\n        Id_Video[_videoId].comments.push(_comment);\r\n    }\r\n\r\n    function subscribe(string memory _userId, string memory _subscribedUserId)\r\n        public\r\n    {\r\n        PublicKey_User[_userId].subscriptions.push(_subscribedUserId);\r\n        PublicKey_User[_subscribedUserId].subscribersCount++;\r\n    }\r\n\r\n    function uploadVideo(\r\n        string memory _hash,\r\n        string memory _title,\r\n        string memory _time,\r\n        string memory _description,\r\n        uint256 _tags,\r\n        string memory _creatorId\r\n    ) public {\r\n        videoCount++;\r\n        string[] memory comments;\r\n        Id_Video[videoCount] = Video(\r\n            videoCount,\r\n            _hash,\r\n            _title,\r\n            _time,\r\n            _description,\r\n            comments,\r\n            0,\r\n            0,\r\n            _tags,\r\n            _creatorId\r\n        );\r\n        Title_Video[_title] = videoCount;\r\n        User_Videos[_creatorId].push(videoCount);\r\n        if ((_tags & 1) != 0) {\r\n            Tag1_Videos.push(videoCount);\r\n        }\r\n        if ((_tags >> 1) & 1 != 0) {\r\n            Tag2_Videos.push(videoCount);\r\n        }\r\n        if ((_tags >> 2) & 1 != 0) {\r\n            Tag3_Videos.push(videoCount);\r\n        }\r\n    }\r\n\r\n    function stringToUint(string memory s)\r\n        public\r\n        pure\r\n        returns (uint256 result)\r\n    {\r\n        bytes memory b = bytes(s);\r\n        uint256 i;\r\n        result = 0;\r\n        for (i = 0; i < b.length; i++) {\r\n            uint256 c = uint256(uint8(b[i]));\r\n            if (c >= 48 && c <= 57) {\r\n                result = result * 10 + (c - 48);\r\n            }\r\n        }\r\n    }\r\n}\r\n",
  "sourcePath": "C:\\College NSIT\\Sem 7\\BTP Dtube\\dvideo\\src\\contracts\\Primary.sol",
  "compiler": {
    "name": "solc",
    "version": "0.5.16+commit.9c3226ce.Emscripten.clang"
  },
  "schemaVersion": "3.4.3",
  "updatedAt": "2021-10-19T06:40:19.868Z",
  "networkType": "ethereum",
  "devdoc": {
    "methods": {}
  },
  "userdoc": {
    "methods": {}
  }
}